:10000000ABC0C5C0CECCC3C0C2C0C1C0C0C0BFC0E1
:1000100089CCBDC0BCC0BBC0BECCB9C0B8C032303A
:1000200032333038303430363132000000000000D6
:1000300000000000000000000000000000000000C0
:1000400000000000000000000000000000000000B0
:1000500000000000000000000000000000000000A0
:100060000000000000000000000000000001030488
:10007000050708090B0C0E0F1113141618191B1D78
:100080001F21232527292B2D30323437393B3E4081
:100090004346484B4E5154575A5D606366696D70D4
:1000A00073777A7E8185898D9094989CA0A5A9AD5F
:1000B000B1B6BABFC3C8CDD1D6DBE0E5EAEFF4FAFA
:1000C000FF010102020303040405060708090A0CE4
:1000D0000D0E0F11131416181A1D1F2224272A2D76
:1000E0003033373B3E42464B4F54595D63686E7325
:1000F000797F868C939AA1A8B0B8C0C8D1D9E2EC18
:10010000F5FFFFFFFFFFFFFFFFFFFFFFFFFFFFFF09
:10011000FFFFFFFFFFFFFFFFFFFFFFFFFFFFFFFFEF
:10012000FFFFFFFFFFFFFFFFFFFFFFFFFFFFFFFFDF
:10013000FFFFFFFFFFFFFFFFFFFFFFFFFFFFFFFFCF
:10014000FFFFFFFFFFFFFFFFFFFFFFFFFFFFFFFFBF
:10015000FFFFFFFFFFFF000011241FBECFE5D2E02D
:10016000DEBFCDBF10E0A0E6B0E0E0E2FFE102C0FC
:1001700005900D92A639B107D9F721E0A6E9B0E0C4
:1001800001C01D92AE33B207E1F711DCC7CE38CF04
:10019000482F362F272FEBE0F1E090E080E05081F0
:1001A00051110AC063E070E05BDEFC01E55FFE4FC9
:1001B00040833183228305C00196339680319105B7
:1001C00071F70895EF92FF921F93CF93DF931091F1
:1001D0000B01111106C0DF91CF911F91FF90EF909D
:1001E0000895E0900C01F0900D01C091E800C1501D
:1001F0000C2E000CDD0BC7FD0EC0FE01EE0FFF1F25
:10020000E751FF4F0190F081E02DB701812F099553
:1002100021978111F0CFEBE0F1E08381808384812D
:10022000958192838183339681E0E833F807A9F7BB
:100230001092380110923A0110923901C8CFBC01D6
:1002400080913D01A5CF10923D0110923C0110928A
:100250003B0181E08093C200089590E822E048EAE3
:1002600057E030E0815008F408950FB6F89496BD39
:1002700026BD0FBEFA013197F1F70FB6F89496BD7F
:1002800036BD0FBEEFCF86B383FB882780F991E0A0
:1002900089278093E1000895E0916600F09167005E
:1002A0003196FB70F460F0936700E09366008091F4
:1002B000DD008B5A8093DD00E4918091DD008E0F8C
:1002C0000895CF93DF9300D000D000D0CDB7DEB734
:1002D0002091BD004091F9005091FA00405E5740D6
:1002E00009F422E0843059F46093BE0026960FB6DC
:1002F000F894DEBF0FBECDBFDF91CF910895662386
:10030000A9F3823019F497E9961B692F96E0EFE77D
:10031000F0E0DE01119601900D929A95E1F781507F
:10032000990B880F991FA1E0B0E0AC0FBD1F8A0F99
:100330009B1FDC01ED91FC91E20FF11D6083D6CF94
:10034000CF92DF92EF92FF920F931F93CF93DF93A1
:100350009C015091BD00E0917A0082E0E11101C062
:10036000852F90E0DC01AC58BF4F4C914093780052
:100370008F589F4FDC018C9180937700F0E0E25919
:10038000FF4FC181642F70E0552381F0C13071F4BB
:10039000860F972F911D95958795DF91CF911F918E
:1003A0000F91FF90EF90DF90CF90089526173707B9
:1003B0008CF1821713068CF3511102C0822FEDCFFE
:1003C000841B6C2F6150770B8B01E82EF12CC70139
:1003D00078DD6093BB006695E62FF0E0842FD12C8A
:1003E000C12CD0E0DC17C9F2C601B80156DD842F5C
:1003F000860FA82FB0E0B9016A1B7B0B77FF03C003
:10040000BD01621B730BCE0CDF1CE617F7072CF641
:10041000DF5FE8CF842FC1CF81E008956111609341
:100420007D000895662369F0813099F48091FB0086
:100430009091FC00891B680F6093FB0082E0809321
:100440007E0080917C00873418F086E480937C00E5
:100450000895635E60937C00F4CF6093B6000895C6
:100460000F931F93CF93DF938091BD008093C300C0
:10047000809174008093C400809171008093C500C6
:1004800080916E008093C600809175008093C700B4
:10049000809172008093C80080916F008093C900A2
:1004A000809176008093CA00809173008093CB0086
:1004B000809170008093CC0080917A008093CD0071
:1004C0008091BE008093CE008091BC008093CF00CD
:1004D000809179008093D0008091C0008093D100FA
:1004E0008091BF008093D20080916B008093D300F5
:1004F000809169008093D40080916A008093D50038
:10050000809168008093D60080916C008093D70022
:1005100080917C008093D8008091FB008093D9006B
:1005200080917D008093DA0080916D008093DB00E4
:100530008091B6008093DC00F89403EC10E0C1E0F9
:10054000D1E0F80161918F01CE01D6DC2196CB314B
:10055000F1E0DF07B1F765EA80E091E0CDDC789467
:10056000DF91CF911F910F910895882321F0813061
:1005700029F0BC9A04C0BC98C4980895BC98C49A49
:100580000895CF93C82F8093DF008093DE00809181
:10059000E00081110AC091E0C11101C090E081E04A
:1005A000C23408F480E0890FE0DFC1110FC019BC2C
:1005B00018BC8091DF008530B8F480E892E00FB677
:1005C000F89486BD96BD0FBECF910895C1508C2F73
:1005D00090E0FC01EF53FF4FE491E9BD855D9F4F33
:1005E000FC01849188BDE5CF8E3018F480E891E05D
:1005F000E6CF80E890E0E3CF8093C100C2CFCF93F5
:10060000C091DF0089E18C0F873908F080E0B9DF05
:1006100082E023DE8C2FCF91B4CFCF93C091DF0047
:1006200080E0AFDF83E019DE8C2FCF91AACF81303D
:1006300019F41092C0000895823019F46093BF003D
:100640000895833019F46093BC000895843011F448
:10065000609379000895E62F9091FE009D3110F48B
:1006600080E083CF913228F4E695E170E3508E2349
:10067000F8CF982F9F709330A0F3EF70F0E0EB5716
:10068000FF4F8081EECFCF93282FCB01C0917A000E
:10069000C11117C0283049F41092BA001092B80066
:1006A0001092B7008C2FCF910895213B61F4809177
:1006B000BA008150833028F483E08093BA0080939D
:1006C000B900C1E0EFCF253BA1F46EE370E0E5DBBC
:1006D000892B41F78091BA008A3F20F78B5F809386
:1006E000BA008093B9001092B8001092B70087DF6B
:1006F000D9CF213031F78091B7009091B8000196A1
:1007000088382EE0920728F49093B8008093B700C1
:10071000C9CF1092B8001092B7008091BA00882318
:1007200009F281508093BA00BDCFFF920F931F93BF
:10073000CF93DF938C01D62FC72FF42E8091F90031
:100740009091FA00892B31F0E091F900F091FA00D4
:1007500089E009951093FA000093F900012B41F00C
:10076000E091F900F091FA006D2F7C2F8F2D099503
:1007700081E08093C200DF91CF911F910F91FF9094
:100780000895CF93DF93E091E800D0E0C0E0EE233E
:1007900051F0E150E093E800F0E0EE0FFF1FE75169
:1007A000FF4FC081D181E091E80090E080E0EE232E
:1007B00041F0E150FF0BEE0FFF1FE751FF4F80812B
:1007C00091814AE070E060E0B0DFCE01DF91CF912F
:1007D0000895883039F41092B30010929A0080E0A6
:1007E000D0DE0CC08130F9F490919A00911108C0CC
:1007F0006032710518F080939A0025DD80E008953D
:10080000913079F46B3B710520F082E080939A007F
:10081000E6CF6115710591F3862F880F84708E5E87
:10082000DFCFAFDFEBCF813811F0813E39F791E0B8
:1008300090939A00813E41F48091B300865F80934B
:10084000B30001DD8BE4CCCF8091B3008F5FF7CF95
:100850002091E800283080F4E22FF0E0EE0FFF1F37
:10086000E751FF4F808391832F5F2093E80048E09A
:100870005CDF8091E80008958FEF08950F931F9338
:10088000CF93DF93D82FC92F8B017BDFB8018D2F3A
:100890009C2FDF91CF911F910F91DACF843011F50A
:1008A0008091F9009091FA002AE0823D920731F49C
:1008B00069E170E086EA95E0E1DF0DC0865A954077
:1008C00061F49091DF00923040F0892F86959695E3
:1008D0009695890F91DE80E0089570E060E085EDE7
:1008E00094E0EACF81E00895282FCB01213C39F430
:1008F00070E060E085ED94E0C1DF80E00895223C87
:1009000029F470E060E08BE994E0F6CF213B39F404
:100910006EE370E0C2DA892B81F771DEEECF213E03
:1009200041F46EE370E0B9DA6F5F60936C0098DDBC
:10093000E4CF81E00895CF93C0917A00C11119C02E
:10094000813C41F470E060E085ED94E097DF8C2F0E
:10095000CF910895823C29F470E060E08BEB94E045
:10096000F5CF873B31F470E060E088EE97E070DF10
:10097000EECFC1E0ECCF813C39F470E060E085ED72
:1009800094E07CDF80E00895823C29F470E060E030
:1009900084E794E0F6CF873B31F470E060E08CEEC2
:1009A00097E056DFEFCF81E008950F931F93CF9329
:1009B0008B01883081F480E0E4DD1092BA00012BD5
:1009C00031F0C0E08C2FCF911F910F91089581E0FD
:1009D0008093E000F6CF813021F46931710588F30E
:1009E000F7CF833021F52091C000222359F0809168
:1009F000BF0090E062EC71E033DA0817190710F0DD
:100A000020937B0080916D00602F837024DE8091A5
:100A1000B6008823B1F290E062EC71E021DA801731
:100A2000910778F670E060E084EF97E016C0813BB4
:100A3000B1F481E090E084DCA4DD8091BC00811100
:100A4000C0CF8091BD00811104C00831110508F4A8
:100A5000B8CF61E070E086EA95E010DFB2CF813E6A
:100A6000C1F3813831F480917B0090E069DC89DD4D
:100A7000A8CF813C21F46091DF0070E0ECCF823B95
:100A800071F48091790090917A0091118091BE006B
:100A9000811103C086E990E0E9CF86E9E8CF823E84
:100AA00011F480E0E4CF66E970E0823CA1F2833982
:100AB000C1F3833C29F470E060E08BE994E0CDCF92
:100AC000843C11F49CDDAECF8F3C29F470E060E0F3
:100AD0008CE092E0C2CFC0917A008A3B79F4012B7E
:100AE00099F5CC2329F08BDD10927A00B9DC69CF1F
:100AF00070E060E080EE97E0ABDE64CFC11124C00F
:100B00008A3C31F47CDD81E080937A00A9DC5ACF05
:100B1000833B31F470E060E082ED9AE0AFDE52CFCB
:100B2000853C31F46CDD70E060E08DE49CE0F6CF54
:100B3000873C51F490916D0081E0890F83709C7F18
:100B4000892B80936D00E2CFC1E03CCF9F92AF92A2
:100B5000BF92CF92DF92EF92FF920F931F93CF93AA
:100B6000DF93C82F8B01A0907800E0907700B090C1
:100B7000BD00D090BB00B11002C0DD24D394C09062
:100B80007900D0917A00D111C090BE00CC2009F438
:100B900041C041E0C41621F080917B008E15D0F158
:100BA000A6E9FA2E9090BA00B8018C2F6CDD609106
:100BB000BA00662309F4B4C1911004C08091DF002B
:100BC00080939E008C2F8D7F883031F51092B50078
:100BD000CA3019F400917B0010E0A016110630F421
:100BE000E016110619F010F000937B00C801A8DB95
:100BF00003DD81E080936500D0E08D2FDF91CF9100
:100C00001F910F91FF90EF90DF90CF90BF90AF902A
:100C10009F900895FE2CC6CFC13C09F484C1C23C0C
:100C200071F48091DF008F1538F48F2DE5DC809111
:100C3000DF0080939E00E0CF80917B00F7CFC43C23
:100C400039F480E09EDC70E060E084EF97E06FC1F3
:100C50008FE48C0F823008F047C060916E0070E026
:100C6000C801BB2011F068E170E017D9892B21F68B
:100C70002091DF0001151105D9F4C23B99F48FEFE3
:100C800080936500809165006D2D70E0082E000C4A
:100C9000990BE6D82091DF00820F911D51DB8093E4
:100CA0007B00C4CF2E1558F7A21660F381E0E8CF81
:100CB000E0916E00F0E0CF0166E371E0D1D88017DB
:100CC000910710F42E15D8F6CF016CE672E0C8D863
:100CD00080179107B8F6A216A8F291DC70E060E0E8
:100CE00084EF97E0CBDDCECF8FE18C0F823020F404
:100CF0008091650081957ECFC13009F090C00932A6
:100D0000110511F4C0936500662389F080919E005F
:100D10006150770B90E0A4D86091B90070E0D1D811
:100D2000611101C061E06093DE006093C1008091B9
:100D3000DE009091DF00E82FE91BFF0B9F0160911F
:100D40009C0070919D006F5F7F4F70939D0060933A
:100D50009C00309709F450CF40E052E0F7FF06C006
:100D600040E450E0933810F440E051E05695479548
:100D700037FF02C02F5F3F4F35952795211531056D
:100D8000A9F74617570708F037CF891788F58FEF6F
:100D9000890F7FEF780F272F30E0A9014F535F4F66
:100DA000FA016491791740F599B5911125C06F3F0B
:100DB00019F569BD255D3F4FF901949168B5691733
:100DC00040F598B59F5F98BD99B5FA014491941389
:100DD0000AC098B5F9012491921305C0C091DE00B4
:100DE000D0DBC093DE0010929D0010929C0004CFD7
:100DF000981778F681E0CCCF99B5961720F499B57D
:100E00009F5F99BDD7CF99B56917A0F699B5915055
:100E1000F8CF68B59617C0F698B59150D4CFC530C5
:100E2000A9F48091DF00823408F4E6CE90E0801BC4
:100E3000910B282F813491053CF08739910508F0FA
:100E400026E92093DE00D8CE21E4FBCFC630B1F4F2
:100E50009091DF008091C100981708F0CDCE090F66
:100E6000111D90E08017910734F0C801013411057D
:100E700014F481E490E08093DE00BECEC73069F4C4
:100E80009091DE008091DF00891710F48F5FF3CF1F
:100E9000981708F0B1CE8150EECFC33C59F481E0F1
:100EA000B11080E08093BD00DBDAB7DB8091DF001A
:100EB00090E0F4CED11132C0C33B51F4012B09F0C4
:100EC0009BCECC2011F086E9F82E8F2D95DB95CEA8
:100ED000C33E19F480917B00F9CFC53C41F480E01A
:100EE00050DB70E060E08DE49CE0C8DC86CE70E012
:100EF00060E08CED97E0C73B79F0CA3C39F4809113
:100F0000DF008093C000ACDA7ADB77CECA3B31F4E5
:100F100070E060E084EE97E09BDC6FCED1E06DCEB8
:100F2000992009F44FCE70E060E085ED94E0A6DCF6
:100F300063CE582FCB01F901583089F410929B00F1
:100F400080E01FDB8091E10081111CC081E0809373
:100F50009B0070E060E089EE93E07ADC13C0252FFF
:100F6000207F203BB1F420919B00421780F06DE57B
:100F700070E093D7029741F42F5F20939B0088E3A2
:100F8000421718F480E0089582E1FBDAFBCF80E09D
:100F9000FCCF203E41F480919B00882311F048173C
:100FA000C0F6EFDBEFCF5A3069F76091B300809164
:100FB0009B00099555DAF5CF21E631E043E0B9CF42
:100FC00021E631E044E0B5CF27E133E044E0B1CFA2
:100FD0002EE032E041E0ADCF22E132E042E0A9CFA5
:100FE0002DE232E041E0A5CFCF93DF93D82F807977
:100FF0008039F1F490917400209175008D2F8F70DD
:10100000823049F48091C000811108C0822F2917D5
:1010100028F4892F03C0822F9217D8F3B2DAD33C79
:10102000E1F4EDDA70E060E085ED94E027DC0BC0E0
:10103000803811F480E0F2CFD13039F46931710594
:1010400010F0D093E000C0E016C0D33041F780919B
:101050006D0086958695FFDAF6CFD43C81F4C09179
:10106000C0006C2F70E0C11111C060917B0070E076
:1010700086EA95E003DC8C2FDF91CF910895D43B75
:1010800041F4CBDA10923D0161E070E086EA95E030
:10109000CDCFD53C19F466E970E0F8CFC0917A0065
:1010A000C11116C0DA3B31F470E060E080EF97E0E8
:1010B000CFDBE1CFD73C61F490916D00892F8C7F1D
:1010C0008C5F8C709370892B80936D00C9D9D3CFBE
:1010D000C1E0D1CF8CE287B91092080110920901CA
:1010E00086B1886486B9089510920A0184B125B149
:1010F0004091DD00829586958695837030E0220FC1
:10110000331F220F331F820F932F911D840F809363
:10111000DD008091FF00882309F44FC01092FF008A
:10112000809108019091E000992319F0379810926E
:10113000080181114BC080917E0060910001709187
:101140000101882341F060910401709105017093C1
:10115000010160930001605F7F4FF6E0769567952F
:10116000FA95E1F780E098E598D680917D0082506D
:10117000990B680F791F769567956093FE008091B3
:10118000B2008823D9F081508093B2008091E000B2
:1011900081110AC08FEA87B981E08093080110921B
:1011A000090186B1886486B980917E00882329F080
:1011B00080917E00815080937E0008956D3130F7DC
:1011C00070E060E084E0E4D785E0DECF813061F755
:1011D00080917E0081115CC0209102013091030159
:1011E000205F3F4FB90145E0769567954A95E1F755
:1011F000E091FB0056E0369527955A95E1F70E2EC3
:10120000000CFF0BCF0183519140280F391F309301
:10121000FD002093FC008091A100A82FB0E0AA0F50
:10122000BB1FAE55BF4F2D913C911197AB01421B97
:10123000530B6D937C938F5F87708093A100CA01DD
:10124000880F991F880F991F20917C0030E02D5E38
:101250003E4F2E1B3F0B220F331F821B930B860F1B
:10126000971F23E0181619060CF041C00197215072
:10127000C9F7181619060CF051C057FD6CC0209123
:10128000A0001216CCF5281B2093A00023DF8CCFE2
:1012900080910601909107019093030180930201D0
:1012A000409635E0969587953A95E1F79093A3009F
:1012B0008093A2009093A5008093A4009093A70030
:1012C0008093A6009093A9008093A8009093AB0010
:1012D0008093AA009093AD008093AC009093AF00F0
:1012E0008093AE009093B1008093B00075CF0097CB
:1012F00009F4BDCF0196BBCF880F991F61E070E064
:101300008530910524F00397BC017595679588E1B8
:10131000861B8093A00085E03BD7B8CF8C3F2FEF92
:101320009207CCF457FF17C02091A00027FF02C0FE
:101330002450A9CF24EE281B2093A0002091FE006A
:101340002F3108F4A3CF6CEF7FEF681B790B7595F5
:10135000679586E0E1CF8091FE008E3108F496CF4C
:1013600070E060E087E0D8CF0F931F93CF93109287
:10137000E30080913B0190913C019C012F5F3F4F26
:1013800088279078822B932B90933C0180933B018C
:10139000C091E10078D7C817B1F01092E0008093B7
:1013A000E10090913D018823C9F1892F80699F70E8
:1013B0009F3091F580933D0190E080E040D71092FE
:1013C0003C0110923B0100913B0110913C01809146
:1013D000E000882389F1B80183E0DAD6F3D60F73F1
:1013E0001127012BA9F410929F0074DE87EE86B9B5
:1013F00080919F00811106C086B1886486B981E022
:101400008093FF0080919F008F5F8F7180939F007A
:10141000CF911F910F9108958F5FCCCF892F8F7E31
:1014200095FD08C0806880933D0180913B019091BB
:101430003C01C4CF806CF7CFC0913D018C2F807FE1
:10144000803B39F470E060E081E0A2D6C801F7D6B5
:10145000CFCFB80181E09CD6C4FF0FC0C5FDF6CF49
:101460000831110528F210923C0110923B01C06234
:10147000C0933D0190E080E0EACFCC2309F4B8CFDF
:10148000C5FF02C0E0D6B4CF0231110508F4B0CFD9
:10149000C064C0933D0190E080E0D1D6F3CF80914D
:1014A0000A01811121DE8091E30081115DCF089551
:1014B000BF92CF92DF92EF92FF920F931F93CF9341
:1014C000DF93EC0110E888E0E82E87E0F82E02E0D8
:1014D00092ECC92EDD24D394B12C209759F481E0ED
:1014E000DF91CF911F910F91FF90EF90DF90CF9000
:1014F000BF9008958091C20081111DC09091DF00BE
:10150000953090F40FB6F89416BD06BD0FBEC60117
:101510000197F1F78B2D0FB6F89416BD86BD0FBE5F
:10152000BEDF50D62197D9CF0FB6F89416BD86BD31
:101530000FBEC701EDCF80E0D3CF0F931F93CF93A2
:10154000C82F06EA811102C008E0C1E010E089E17D
:1015500018D8C801ADDF80E014D88AEF90E0A8DF8A
:10156000C150A9F78AE992E0CF911F910F91A0CFC6
:10157000CF93DF93282F64E684D4382FC92F892F87
:101580006AE07FD4D92F243650F0832FD6DF8C2FFA
:101590006AE077D4D2DF8D2FDF91CF91CECFCA30E2
:1015A000B0F7F9CFDF92EF92FF920F931F93CF9393
:1015B000DF93D82F8B01C0916B0081E08093B50041
:1015C000C33079F4F090BA008D2F5DD8FF20A1F0E0
:1015D0008091BA00811110C070E060E085ED94E068
:1015E0004DD9D83071F0D13C09F0F6C070E060E020
:1015F00085ED94E043D908C0D83041F481E0809370
:10160000630081E08093640080E039C1D23C61F4E2
:101610001092BA008C2F90E0019665E070E051D4F2
:1016200080936B001DD7F0CFD13BC1F48091620055
:10163000012B41F49FEF8E3618F4823018F491E0BC
:101640009093630090916300890F21F481E080936F
:101650006200DACF8F36D8F38EE6F9CFD13E59F457
:1016600080916300819580936300809164008195EF
:1016700080936400D7CFD23BE1F481E08093630094
:1016800080916200823018F081508093620081E086
:1016900080936400C23008F0E5C000FDB5CFEC2FA8
:1016A000F0E0E759FF4F80818F3F09F4ADCF8F5FA6
:1016B000B0C0D13009F0EBC00932110511F4D0935C
:1016C0006300D09099008D2D880FD7FC809590E015
:1016D00067E070E0C5D3292FE09098008E2D880F29
:1016E000E7FC8095D09161006D2F70E090E0B8D359
:1016F000290FF09097008F2D880FF7FC8095C091EF
:1017000060006C2F70E090E0ABD3622F690F809186
:101710006200680F7727771F8091BA00813091F4BB
:101720008091B7009091B80025E0969587952A950D
:10173000E1F724E730E0A901481B590BCA0190D317
:10174000B901ABD3862F1DD700FD05C0A5D581708B
:101750008D0D80939900809196008E0D8093980056
:101760009BD565E28ED39F0D9093970095D58F738F
:1017700029F492D56DE085D390939600DD2331F066
:101780008BD58F7319F4D150D093610085D5811119
:1017900007C082D56BE075D39093610010929800DA
:1017A000C33030F079D58F7119F4C150C093600007
:1017B00073D58F7729F470D566E063D3909360007A
:1017C0000932110519F481E0809364008091DD00F5
:1017D000080F0093DD0018CFD23C09F41BCFD43C96
:1017E00021F48C2F90E0049618CFD13B49F5C230FC
:1017F00090F400FD09CFEC2FF0E0E759FF4F808116
:1018000090916400891B8F3F08F08EEF883008F4B8
:1018100088E08083F9CEC43009F0F6CE809168006C
:1018200090916400890F823038F482E080936800E0
:1018300080916800A6D6E8CE8937C0F388E7F6CF56
:10184000D13E09F412CFD23B09F421CFD23E09F4A4
:10185000E9CED53C81F470E060E08DE49CE00ED8E8
:1018600080E0E8CFC43009F0CFCE809168008330AB
:10187000F8F28150DBCF81E0D13009F4A1CFDF91C4
:10188000CF911F910F91FF90EF90DF900895D13C81
:1018900009F4ACCED43CD1F6A4CF0F931F93CF93D1
:1018A000DF93D82F8B01883031F48091B5008823E5
:1018B00011F088E077DE8D2F8079803991F481E016
:1018C0008093B400C091B500CC2311F0C0E003C0F8
:1018D00080917B0056D68C2FDF91CF911F910F9175
:1018E0000895803829F41092B40080E04AD6EECFF3
:1018F000C1E0D13081F7C091B400CC2359F0809180
:10190000B500882319F3B80181E0DF91CF911F91D1
:101910000F9148CE07331140C8F2D093E00080E029
:1019200024D6D9CF2F932FB72F933F938F939F9385
:10193000AF93BF93EF93FF93809109018823E9F060
:10194000E091080124B135B1F0E0EE0FFF1FDF0197
:10195000AC5FBE4F2D933C93E050FF4F808191814F
:101960008217930708F401962817390708F401979E
:101970009183808381E080930A0181E08093090153
:10198000FF91EF91BF91AF919F918F913F912F91D7
:101990002FBF2F9118958F9381E08093E3008F9153
:1019A00018958F9381E08093E2008F911895F894B9
:1019B00084B7877F84BF0FB6F894A89581B58861F6
:1019C00081BD11BC0FBEB89A81E083BF81EA8ABD98
:1019D000B99A88E088BB85BB8BB780628BBFA8951E
:1019E00081B5886181BD80E481BD74DB87EE86B9F5
:1019F000789481E032D470E060E08EE494E028D7FF
:101A00001092C200FCD53FD481117FC0F89480E0D1
:101A100091E06AD2853A09F0A0C003EC10E0C1E081
:101A2000D1E0CE0161D2F80181938F012196CB31B3
:101A3000F1E0DF07B1F778948091C3008093BD0097
:101A40008091C400809374008091C50080937100E0
:101A50008091C60080936E008091C70080937500CE
:101A60008091C800809372008091C90080936F00BC
:101A70008091CA00809376008091CB0080937300A0
:101A80008091CC00809370008091CD0080937A008B
:101A90008091CE008093BE008091CF008093BC00E7
:101AA0008091D000809379008091D1008093C00014
:101AB0008091D2008093BF008091D30080936B000F
:101AC0008091D400809369008091D50080936A0052
:101AD0008091D600809368008091D70080936C003D
:101AE0008091D80080937C008091D9008093FB0086
:101AF0008091DA0080937D008091DB0080936D00FF
:101B00008091DC008093B60029C0C0E08C2F39D5CD
:101B100083E190E0CDDC8C2F869533D583E190E096
:101B2000C7DCB1D38823B1F0CF5FC03479F765E16A
:101B300081E078D495D4C6E98C2F23D584E090E059
:101B4000B7DCC150C9F762CF8C2F1BD58DE090E078
:101B5000AFDCC150C111F8CF59CF78948091C0004B
:101B6000811180937B0061E070E085ED94E070D698
:101B700042E0242E57EE352E60E4462E5524539431
:101B8000CC24C394D12CECEF6E2EE3E07E2EF5ED49
:101B90008F2EF4E09F2E16D38091E6009091E700FF
:101BA000009749F06091E4007091E50067D61092CB
:101BB000E7001092E6008091E000882331F180E098
:101BC000E0D4A89581B5886181BD23E421BD379813
:101BD0005AD38111FDCF37D38BB780628BBF109260
:101BE0000A011092E3001092E2008091E00081115E
:101BF0002EC020927E008BB78F7D8BBF6BDA36B8FC
:101C0000A89581B5886181BD41BC49DC1092C200B4
:101C10008091F9009091FA0032E08C309307B9F589
:101C2000CEE1D0E0FE018491805387DC8CE291E02C
:101C30003FDC2196F0E0CA32DF07A1F79092E7007F
:101C40008092E6001092E5001092E400A4CF85B7E0
:101C5000877E806185BF85B7806285BF889585B79F
:101C60008F7D85BF8091E20081111092E00080910C
:101C70000A01882329F050927E005092FF0034DA46
:101C80008091E300882309F4B0CF6EDBAECF2AE069
:101C9000823D920779F03CE08D34930709F0A7C0AC
:101CA0008091B500813009F0D0C08091B4008823C4
:101CB00009F4CBC0C0916B00C230C9F1E0F0C43070
:101CC00009F069CFD0916800DD0FD73908F0D6E967
:101CD0008D2F57D485E090E0EBDB8091680051D4E4
:101CE00081E490E0E5DBC15099F780ED92E0E0DB24
:101CF00080E047D450CFEC2FF0E0E759FF4FD08180
:101D000086E93FD4C1110FC0DA3248F4C30101970C
:101D1000F1F780E036D48D2F90E0CADB3CCF81E034
:101D200090E0C6DBF6CF8D2F869590E0FACFB4D247
:101D30008F73082F10E0B0D267E0A3D0E60102C095
:101D4000CC0FDD1F9A95E2F7A7D265E09AD0F60195
:101D500002C0EE0FFF1F9A95E2F7CE0FDF1F9CD255
:101D600090E0BE01AED0C80FD91FC739D10514F01D
:101D7000C6E9D0E08C2F05D4C8019ADB7E0133E0A0
:101D8000F594E7943A95E1F7E11002C0EE24E3946C
:101D9000F12CC8018DDB5E01AE18BF08E501B7FE6E
:101DA00002C0D0E0C0E08C2FECD376D2837031F447
:101DB000C8017EDBCE0195958795E3D3F2E0AF169F
:101DC000B1043CF769D26DE05CD0860102C0000F1F
:101DD000111F9A95E2F760D2E801219790E0C8239D
:101DE000D923C00FD11F80E0CCD3CE0196CF24E001
:101DF0008B39920751F48091FE00BADB80917A0012
:101E000081111CCF88EE93E088CF34E08B3B9307A1
:101E100021F48091FC00ACDBF5CF84579440A9F409
:101E20008091E1008111B7CE80917B00AAD384E636
:101E300090E03EDB80E0A5D380916C0090E068EEFE
:101E400073E00ED08456910968CF85B7877E85BF31
:101E500085B7806285BF889585B78F7D85BF9BCE0E
:101E60000024552704C0080E591F880F991F00979A
:101E700029F076956795B8F37105B9F7802D952F00
:101E80000895991B79E004C0991F961708F0961BD6
:101E9000881F7A95C9F780950895AA1BBB1B51E14D
:101EA00007C0AA1FBB1FA617B70710F0A61BB70BCA
:101EB000881F991F5A95A9F780959095BC01CD016F
:101EC000089597FB072E16F4009406D077FD08D0EE
:101ED000E4DF07FC05D03EF4909581959F4F08956F
:101EE000709561957F4F0895E199FECF9FBB8EBBA2
:101EF000E09A99278DB30895262FE199FECF9FBBD5
:101F00008EBBE09A01970DB2021639F01CBA2DBBB8
:101F10000FB6F894E29AE19A0FBE0895F894FFCFB5
:101F2000060B18010101000441294303020D0107BA
:101F300005787896010A0A78010101412D0702749B
:101F40000071006E000001020100000000000001AD
:061F50000000000000008B
:00000001FF
