:10000000DAC00000F5C00000F3C000000C94840DBD
:10001000EFC00000EDC00000EBC000000C947C0DB0
:10002000E7C00000E5C00000E3C00000E1C0000040
:10003000DFC00000DDC00000DBC00000D9C0000050
:10004000D7C00000D5C00000D3C00000D1C0000060
:100050000C94FE0CCDC00000CBC00000C9C0000055
:10006000C7C00000C5C00000C3C00000C1C0000080
:10007000BFC00000BDC00000BBC000003230323342
:1000800030393238303631340000000000000000D2
:100090000000000000000000000000000000000060
:1000A0000000000000000000000000000000000050
:1000B0000000000000000000000000000000000040
:1000C000000000000000000000000001030405071C
:1000D00008090B0C0E0F1113141618191B1D1F21E4
:1000E000232527292B2D30323437393B3E404346D8
:1000F000484B4E5154575A5D606366696D70737713
:100100007A7E8185898D9094989CA0A5A9ADB1B681
:10011000BABFC3C8CDD1D6DBE0E5EAEFF4FAFF0100
:100120000102020303040405060708090A0C0D0E68
:100130000F11131416181A1D1F2224272A2D3033CD
:10014000373B3E42464B4F54595D63686E73797F2F
:10015000868C939AA1A8B0B8C0C8D1D9E2ECF5FFBB
:10016000FFFFFFFFFFFFFFFFFFFFFFFFFFFFFFFF9F
:10017000FFFFFFFFFFFFFFFFFFFFFFFFFFFFFFFF8F
:10018000FFFFFFFFFFFFFFFFFFFFFFFFFFFFFFFF7F
:10019000FFFFFFFFFFFFFFFFFFFFFFFFFFFFFFFF6F
:1001A000FFFFFFFFFFFFFFFFFFFFFFFFFFFFFFFF5F
:1001B000FFFFFFFF000011241FBECFEFCDBFDFE325
:1001C000DEBF18E3A0E0B8E3E6E3F1E202C0059089
:1001D0000D92AA31B107D9F728E3AAE1B8E301C02B
:1001E0001D92A03CB207E1F70E948B0D0C948E107B
:1001F00007CFF89498ED94BF8093610080916300DD
:1002000080FDFCCF78940895EDE8F8E330E020E03D
:10021000908191110BC0F901EE0FFF1FE20FF31F48
:10022000E357F74C80836183728306C02F5F3F4F93
:1002300033962031310561F70895BC018091BF38B4
:10024000E3CF1092BF381092BD381092BE3881E0D3
:100250008093443808950F931F93CF93C82F02E9DA
:1002600019E0C15020F4CF911F910F91089585E0BE
:10027000C0DFC8010197F1F781E0BBDFF2CFE0E01A
:10028000F6E082858160828780858160808708951D
:10029000CF93DF93C0E0D6E08DE18E8385E58A833E
:1002A00010928A3810928B38EADFE0EAF0E0808121
:1002B0008061808383E08883888581608887DF917F
:1002C000CF91089582B185FB882780F991E0892735
:1002D000809363380895882341F0813061F080E293
:1002E0008093210480932504089580E28093210463
:1002F00080932604089580E28093220488E080930E
:1003000035040895CF93C82F809361388093603867
:100310008091623881110AC091E0C11101C090E062
:1003200081E0C23408F480E0890FD5DFC1110BC031
:1003300010922A0A10922B0A1092280A1092290A67
:1003400085E0CF9156CF8FEF8C0F90E0FC01E15EFE
:10035000FE4FE491F0E0E0932A0AF0932B0AFC01AF
:10036000E757FF4FE491F0E0E093280AF093290A61
:10037000C53030F383E0CE3020F381E0E2CFCF937D
:10038000DF93CDB7DEB72697CDBFDEBF20913E38D5
:1003900040917B3850917C384454544009F422E019
:1003A000843041F460933F382696CDBFDEBFDF91A5
:1003B000CF9108956623C1F3823019F497E9961B13
:1003C000692F96E0E0E2F1EADE01119601900D92CC
:1003D0009A95E1F78150990B880F991FA1E0B0E041
:1003E000AC0FBD1F8A0F9B1FDC01ED91FC91E20F4A
:1003F000F11D6083D9CFCF92DF92EF92FF920F93DE
:100400001F93CF93DF939C0150913E38E091403889
:1004100082E0E11101C0852F90E0DC01A15FB74CC3
:100420004C9140931338845F974CDC018C918093FE
:100430001238F0E0E75FF74CC181642F70E055237C
:1004400081F0C13071F4860F972F911D9595879596
:10045000DF91CF911F910F91FF90EF90DF90CF90A0
:100460000895261737079CF1821713068CF3511154
:1004700002C0822FEDCF841B6C2F6150770B8B0154
:10048000E82EF12CC7010E94471060933C38669516
:10049000E62FF0E0842FD12CC12CD0E0DC17C1F284
:1004A000C601B8010E943310842F860FA82FB0E038
:1004B000B9016A1B7B0B77FF03C0BD01621B730B85
:1004C000CE0CDF1CE617F7071CF6DF5FE7CF842FA3
:1004D000BFCF8093433816CFCF93C091613889E165
:1004E0008C0F873908F080E00DDF82E0B4DE8C2FBE
:1004F000CF9108CFCF93C091613880E003DF83E0D4
:10050000AADE8C2FCF91FECE81E008956111609319
:1005100017380895662369F0813099F480917D3809
:1005200090917E38891B680F60937D3882E08093BC
:10053000183880911638873418F086E4809316387E
:100540000895635E60931638F4CF6093373808954A
:10055000E82FF0E0ED5FF74C608308950F931F9351
:10056000CF93DF9380913E388093453880910F3848
:100570008093463880910C388093473880910938B1
:1005800080934838809110388093493880910D3895
:1005900080934A3880910A3880934B388091113883
:1005A00080934C3880910E3880934D3880910B3871
:1005B00080934E388091403880934F3880913F38F7
:1005C0008093503880913D38809351388091143811
:1005D00080935238809142388093533880914138CB
:1005E000809354388091033880935638809107382F
:1005F00080935738809116388093583880917D3891
:10060000809359388091173880935A3880910838F0
:1006100080935B388091373880935C3880910438C0
:1006200080935D388091053880935E3880910638DC
:1006300080935F38F89405E418E3C1E4D0E0F80152
:1006400061918F01CE010E9471102196CC35D105A8
:10065000B1F765EA80E490E00E9471107894DF9130
:10066000CF911F910F910895813019F41092423863
:100670000895823019F4609341380895833019F455
:1006800060933D380895843011F4609314380895D0
:10069000E62F909180389D3130F480E280932104E0
:1006A000809326040895913228F4E695E170E35092
:1006B0008E2311CE982F9F709330D8F3EF70F0E017
:1006C000EA5DFE458081F5CFFF920F931F93CF9394
:1006D000DF938C01D62FC72FF42E80917B38909119
:1006E0007C38892B31F0E0917B38F0917C3889E0BF
:1006F000099500937B3810937C38012B41F0E091F1
:100700007B38F0917C386D2F7C2F8F2D099581E0FF
:1007100080934438DF91CF911F910F91FF900895FE
:1007200020916A38283080F4E22FF0E0EE0FFF1FAE
:10073000E559F74C808391832F5F20936A3848E016
:10074000C3DF80916A3808958FEF0895EF92FF928A
:100750001F93CF93DF9310918D38111106C0DF9155
:10076000CF911F91FF90EF900895E0908E38F09018
:100770008F38C0916A38C1500C2E000CDD0BC7FDBC
:100780000EC0FE01EE0FFF1FE559F74C0190F081FE
:10079000E02DB701812F099521978111F0CFEDE868
:1007A000F8E383818083848195818183928333966A
:1007B00088E3EA3BF807A9F71092BA381092BB38E1
:1007C0001092BC38C8CF80916A38882319F08150C4
:1007D00080936A38E0916A3890E080E0EE2341F03F
:1007E000E150FF0BEE0FFF1FE559F74C808191811F
:1007F0004AE070E060E068CF582FCB01F901583033
:1008000089F410921B3880E07DDD8091633881117E
:100810001DC081E080931B3870E060E08CE594E0BF
:100820007FDF14C0252F207F203BB9F420911B3897
:10083000421788F06DE570E00E943310029741F492
:100840002F5F20931B3888E3421718F480E0089547
:1008500082E158DDFBCF80E0FCCF203E41F4809167
:100860001B38882311F04817B8F6ADDFEFCF5A30A8
:1008700069F76091333880911B3809956FDEF5CFA9
:100880002FEB31E043E0B8CF2FEB31E044E0B4CFC1
:1008900024E333E044E0B0CF26E832E041E0ACCFDF
:1008A0002AE832E042E0A8CF25EA32E041E0A4CFD6
:1008B00028EA32E043E0A0CF883039F41092333890
:1008C00010921A3880E01EDD0CC08130F9F490914E
:1008D0001A38911108C06032710518F080931A38E7
:1008E000B0DC80E00895913079F46B3B710520F025
:1008F00082E080931A38E6CF6115710591F3862F57
:10090000880F84708E5EDFCF5EDFEBCF813811F011
:10091000813E39F791E090931A38813E41F48091FD
:100920003338865F809333388CDC8BE4CCCF809176
:1009300033388F5FF7CF0F931F93CF93DF93D82F69
:10094000C92F8B0140DFB8018D2F9C2FDF91CF91F4
:100950001F910F91E5CECF93C0914038C11119C0BE
:10096000813C41F470E060E08DE195E0E4DF8C2FA4
:10097000CF910895823C29F470E060E08BEC94E024
:10098000F5CF873B31F470E060E08CE494E0C8DEA2
:10099000EECFC1E0ECCF813C39F470E060E08DE156
:1009A00095E0C9DF80E00895823C29F470E060E0C2
:1009B00088E798E0F6CF873B31F470E060E080E5AF
:1009C00094E0AEDEEFCF81E00895813C39F470E031
:1009D00060E08DE195E0AFDF80E00895823C29F48E
:1009E00070E060E08BEA94E0F6CF81E00895843017
:1009F00011F580917B3890917C3829E08531920700
:100A000031F469E170E089EF95E095DF0DC0895F11
:100A1000954061F490916138923040F0892F86952D
:100A200096959695890F55DD80E0089570E060E019
:100A30008DE195E0EACF81E008950F931F93CF9366
:100A40008B01883081F480E05DDC10923B38012B13
:100A500031F0C0E08C2FCF911F910F91089581E06C
:100A600080936238F6CF813021F46133710588F3C9
:100A7000F7CF833051F580914238882371F09091FF
:100A8000413842EC51E0949F9001959F300D112424
:100A90006217730710F08093153880910838602F23
:100AA0008370F6DD80913738882399F242EC51E06B
:100AB000849F9001859F300D11242017310748F63F
:100AC00070E060E08FE998E016C0813BB1F481E00E
:100AD00090E091DC17DC80913D388111BACF809194
:100AE0003E38811104C00033110508F4B2CF61E033
:100AF00070E089EF95E01FDFACCF813EC1F3813814
:100B000031F48091153890E076DCFCDBA2CF813C9B
:100B100021F46091613870E0ECCF823B71F48091F8
:100B2000143890914038911180913F38811103C061
:100B300086E990E0E9CF86E9E8CF823E11F480E0D3
:100B4000E4CF8339E1F3843C11F4C6DCB9CF8F3CA8
:100B500029F470E060E084E892E0CDCFC0914038A5
:100B60008A3B81F4672B09F042C0CC2329F0B4DC26
:100B700010924038F3DC6DCF70E060E084E494E0E4
:100B8000CFDD68CFC11133C08A3C31F4A5DC81E0F0
:100B900080934038E3DC5ECF823C31F470E060E06B
:100BA00085E199E0C8DE56CF833C29F470E060E02F
:100BB00087E799E0F7CF853C31F48EDC70E060E0A8
:100BC0008BED99E0EFCF863C31F486DC70E060E09D
:100BD0008EE19AE0E7CF873C51F49091083881E0AC
:100BE000890F83709C7F892B80930838D3CFC1E015
:100BF00031CF9F92AF92BF92CF92DF92EF92FF924E
:100C00000F931F93CF93DF93C82F8B01A0901338BE
:100C1000C0901238B0903E3890903C38B11002C06D
:100C200099249394D0901438D0914038D111D09019
:100C30003F38DD2009F44AC031E0D31629F0809115
:100C400015388C1508F442C0F6E9EF2EF0903B38C9
:100C5000D11108C0C830E1F510923B3810923838F5
:100C60001092393820913B38222309F438C2F11010
:100C700004C08091613880931E388C2F8D7F88301E
:100C800009F06AC010923638CA3019F4009115384C
:100C900010E0A016110630F4C016110619F010F07D
:100CA00000931538C801A7DB14DC81E0809302387B
:100CB000D0E08D2FDF91CF911F910F91FF90EF909A
:100CC000DF90CF90BF90AF909F900895EC2CBECF57
:100CD000C13B51F48FEF8F0D833020F683E080937A
:100CE0003B3880933A38BECFC53BC1F4C8016EE3B0
:100CF00070E00E943310892B09F0B4CF49EF4F15F3
:100D000008F4B0CF85E08F0D80933B3880933A385C
:100D10001092383810923938DFDBA4CFC13009F097
:100D2000A1CF20913838309139382F5F3F4F283884
:100D30005EE0350728F4209338383093393892CF65
:100D40001092383810923938FF2009F48BCF8FEF8A
:100D50008F0D80933B3886CFC13C09F4C3C1C23CA0
:100D600071F4809161388E1538F48E2DB2DB80914C
:100D7000613880931E389CCF80911538F7CFC43CE2
:100D800039F480E0BFDA70E060E08FE998E0AEC14E
:100D90008FE48C0F823008F050C06091093870E009
:100DA000C801BB2011F060E370E00E943310892B72
:100DB00009F07ECF9091613801151105C9F4C23B4D
:100DC00089F48FEF8093023820910238392D230364
:100DD000C001112420916138820F911D0CDB80939A
:100DE0001538C4CF9C1568F7A91670F381E0EACFD7
:100DF00080910938682F70E046E351E0849F9001AC
:100E0000859F300D11242017310710F49C15C8F66A
:100E10004CE652E0649F9001659F300D749F300D49
:100E200011242017310780F6A91670F255DB70E007
:100E300060E08FE998E07FDDC7CF8FE18C0F8230D3
:100E400020F480910238819531CFC13009F0C6C0BD
:100E50000932110511F4C09302382223A9F0409100
:100E60001E382150330B429FC001439F900D112427
:100E700060913A3870E00E944710611101C061E052
:100E80006093603860934338C09160382091613836
:100E90004C2F421B550BCA0160911C3870911D38B4
:100EA0006F5F7F4F60931C3870931D38009709F473
:100EB000FFCE40E052E097FF06C040E450E0233808
:100EC00010F440E051E05695479597FD01969595B1
:100ED00087950097C1F74617570708F0E9CE8FEFBF
:100EE000C21720F08C2F2C1710F481E0820F3FEFF7
:100EF000380F432F50E0BA01615E7E4FFB019491A1
:100F0000321750F420912A0A30912B0A232B21F416
:100F10002FEF30E09F3F81F0E0912A0AF0912B0AF9
:100F2000292F30E0E217F30708F03BC020912A0A8E
:100F300030912B0A2F5F3F4F20932A0A30932B0AC0
:100F40009A0127573F4FF9014491E091280AF09107
:100F5000290A50E0E417F50798F54091280A5091C6
:100F6000290A4F5F5F4F4093280A5093290A409106
:100F70002A0A50912B0AFB0164916417150661F44B
:100F80004091280A5091290AF90124912417150645
:100F900019F4B8D9C093603810921C3810921D38DB
:100FA00087CEE0912A0AF0912B0A2E173F0708F00E
:100FB000C7CF20912A0A30912B0A21503109BCCF8A
:100FC000E091280AF091290A4E175F0780F64091B8
:100FD000280A5091290A41505109C5CFC530A9F4BA
:100FE00080916138823408F463CE90E0801B910BCD
:100FF000282F813491053CF08739910508F026E9C6
:101000002093603855CE21E4FBCFC630B1F49091E7
:10101000613880914338981708F04ACE090F111DA6
:1010200090E08017910734F0C8010134110514F4E1
:1010300081E490E0809360383BCEC73069F49091B2
:10104000603880916138891710F48F5FF3CF98175B
:1010500008F02ECE8150EECFC33C59F481E0B110A0
:1010600080E080933E387ADA45DA8091613890E00A
:10107000B5CED11132C0C33B51F4012B09F018CECB
:10108000DD2011F086E9E82E8E2D23DA12CEC33E44
:1010900019F480911538F9CFC53C41F480E032D97C
:1010A00070E060E08BED99E046DC03CE70E060E03C
:1010B00080E494E0C73B79F0CA3C39F48091613810
:1010C000809342384BDA08DAF4CDCA3B31F470E051
:1010D00060E088E494E024DBECCDD1E0EACDFF20B1
:1010E00009F4CBCD70E060E08DE195E024DCE0CD4B
:1010F000282FCB01213C39F470E060E08DE195E0D0
:101100001ADC80E00895223C29F470E060E085EE6E
:1011100094E0F6CF213B39F46EE370E0A4D7892B3D
:1011200081F7DAD9EECF213E41F46EE370E09BD730
:101130006F5F6093073812DAE4CF81E00895CF93B0
:10114000DF93D82F80798039F1F490910F38209176
:1011500010388D2F8F70823049F480914238811180
:1011600008C0822F291728F4892F03C0822F9217D5
:10117000D8F3C8D8D33CE1F4AFD970E060E08DE19A
:1011800095E0D9DB0BC0803811F480E0F2CFD1308C
:1011900039F46133710510F0D0936238C0E016C0A5
:1011A000D33041F7809108388695869571DAF6CF6D
:1011B000D43C81F4C09142386C2F70E0C11111C051
:1011C0006091153870E089EF95E0B5DB8C2FDF91E9
:1011D000CF910895D43B41F48DD91092BF3861E08E
:1011E00070E089EF95E0CDCFD53C19F466E970E069
:1011F000F8CFC0914038C11116C0DA3B31F470E02D
:1012000060E084E594E08CDAE1CFD73C61F4909122
:101210000838892F8C7F8C5F8C709370892B80931A
:1012200008389CD9D3CFC1E0D1CFCF93C091343807
:1012300091E090933638883021F490930138C0E0E3
:1012400048C0813C31F470E060E08DE195E073DBF3
:10125000F6CF823C49F48C2F90E001968370992759
:10126000809334387BD9EBCF833C39F470E060E075
:1012700087E799E060DB80E00EC0813B91F48091CC
:10128000033890910138890F823038F482E08093DE
:1012900003388091033836D8D2CF8937C0F388E736
:1012A000F6CF813E31F480910138819580930138E9
:1012B000D9CF823B89F490930138C111C0CF80917E
:1012C0000338833018F081508093033880910338BD
:1012D00019D88C2FCF910895823E09F4C3CFC1E075
:1012E000853CB9F770E060E08BED99E0C3CFCF9318
:1012F000C091343891E090933638883021F490933F
:101300000038C0E04AC0813C31F470E060E08DE11B
:1013100095E011DBF6CF833C49F48C2F90E00196E9
:10132000837099278093343819D9EBCF823C39F4F4
:1013300070E060E085E199E0FEDA80E00EC0813B7C
:1013400099F48091033890910038890F823040F4ED
:1013500082E080930338809103380E948201D1CFCC
:101360008937B8F388E7F5CF813E31F480910038B2
:10137000819580930038D8CF823B91F490930038C8
:10138000C111BFCF80910338833018F08150809312
:101390000338809103380E9482018C2FCF910895E9
:1013A000823E09F4C1CFC1E0853CB9F770E060E04E
:1013B0008BED99E0C1CFCF939B01883049F4909198
:1013C0003638992329F091E090933638909301387C
:1013D000982F9079903981F481E080933538C091CD
:1013E0003638CC2311F0C0E004C0809115380E943B
:1013F00082018C2FCF910895903831F410923538B6
:1014000080E00E948201EFCFC1E0813091F7C0916E
:101410003538CC2341F080913638882321F3B90147
:1014200081E0CF9102CF27333140E8F280936238D8
:1014300080E28093210480932604DBCFFF920F93F8
:101440001F93CF93DF93C82F8B01F09015388079CD
:10145000803909F03EC0DC2FDC7001F11092353884
:10146000D0E080913538882319F0B8018C2FA3DFA4
:10147000F0921538C83059F0C130A1F5D091353807
:10148000D11143C00133110510F0C09362388D2F84
:10149000DF91CF911F910F91FF90089591E090936C
:1014A0003538EC2FEF70F0E0ED5FF74C80812FEFD7
:1014B000280F263928F48093153810923638D1CF6A
:1014C00090933638873960F2875983708093343827
:1014D000C8CF803829F41092353880E00E9482010C
:1014E000D1E0BFCFC33041F4B80183E0DF91CF91A9
:1014F0001F910F91FF9023CEC63C49F40E946C02CD
:1015000070E060E08DE195E016DAD0E0C0CFC73B37
:1015100009F0BDCF70E060E088E594E001D9F5CF37
:101520000F931F93CF93109265388091BD3890919F
:10153000BE389C012F5F3F4F88279078822B932BDA
:101540008093BD389093BE38C09163380E94620189
:10155000C817B9F010926238809363389091BF3801
:101560008823B9F1892F80699F709F3081F580931E
:10157000BF3890E080E00E941D011092BD381092AB
:10158000BE380091BD381091BE38809162388823F2
:1015900071F1B80183E00E940401D8D80F731127BC
:1015A000012B89F410921F380E944801C0911F3806
:1015B000C11105C00E943F0181E080938138CF5F57
:1015C000CF71C0931F38CF911F910F9108958F5FF6
:1015D000CECF892F8F7E95FD08C080688093BF385D
:1015E0008091BD389091BE38C6CF806CF7CFC09146
:1015F000BF388C2F807F803B49F470E060E081E051
:101600000E940401C8010E941D01D0CFB80181E0F1
:101610000E940401C4FF0FC0C5FDF4CF00331105C3
:1016200028F21092BD381092BE38C062C093BF3805
:1016300090E080E0E8CFCC2309F4B8CFC5FF03C029
:101640000E942101B3CF0432110508F4AFCFC0646A
:10165000C093BF3890E080E00E941D01F1CF10924E
:101660008C3880918138882309F456C010928138D3
:1016700090918A3880916238882339F080910006F1
:101680008E7F8093000610928A3891114FC080910E
:1016900018386091823870918338882341F06091C6
:1016A0008638709187386093823870938338605F92
:1016B0007F4F86E0769567958A95E1F780E098E51B
:1016C000D2D4809117388250990B680F791F769584
:1016D000679560938038809132388823F1F081508B
:1016E000809332388091623881110DC08EE18093F1
:1016F000060685E48093020681E080938A38109282
:101700008B380E943F0180911838882329F08091FE
:10171000183881508093183808956D3118F770E0AB
:1017200060E084E00E94040185E0DACF913059F74F
:1017300080911838811164C08091843890918538E7
:1017400040969C0145E0369527954A95E1F7E09152
:101750007D3856E0969587955A95E1F70E2E000C48
:10176000FF0BAF0143515140840F951F80937E388A
:1017700090937F3880912138A82FB0E0AA0FBB1F2B
:10178000AE5DB74C4D915C911197B901641B750B1F
:10179000AB012D933C938F5F877080932138660F48
:1017A000771F660F771F8091163890E08D5E9E4FF1
:1017B0008E1B9F0B880F991F681B790B620F731F7D
:1017C00083E0161617060CF04AC06150710981506B
:1017D000C1F7161617060CF05DC057FD7AC0809150
:1017E000203818160CF042C0861B809320388DE1FB
:1017F0008093060685E58093020610928A387FCF93
:101800008091883890918938809384389093853876
:10181000409635E0969587953A95E1F78093223882
:1018200090932338809324389093253880932638DA
:1018300090932738809328389093293880932A38BA
:1018400090932B3880932C3890932D3880932E389A
:1018500090932F3880933038909331386DCF611545
:10186000710509F4B4CF6F5F7F4FB1CF660F771F5B
:101870006530710564F0635071097595679588E16D
:10188000861B8093203885E00E940401B0CF61E080
:1018900070E0F5CF6C3F8FEF7807DCF457FF19C08D
:1018A0008091203887FF02C084509ECF84EE861B33
:1018B00080932038809180388F3108F498CF8CEF56
:1018C0009FEF9C01261B370BB9017595679586E044
:1018D000DBCF809180388E3108F489CF70E060E0F2
:1018E00087E0D2CF80918C388111B9DE8091653844
:1018F000811116CE0895EF92FF920F931F93CF930D
:10190000DF93EC010AEC18E082E3E82E82E0F82E87
:10191000209739F4DF91CF911F910F91FF90EF90B5
:101920000895809144388111F5CF809161388530D8
:1019300070F485E00E94F900C7010197F1F781E09A
:101940000E94F900CFDF0E94A6032197E1CF81E03A
:101950000E94F900C801F1CF0F931F93CF93C82FB6
:1019600006EA811102C008E0C1E010E089E10E94AE
:101970008201C801C0DF80E00E9482018AEF90E00E
:10198000BADFC15099F78AE992E0CF911F910F9188
:10199000B2CFCF93DF93282F64E659D3382FC92FC6
:1019A000892F6AE054D3D92F243650F0832FD4DF07
:1019B0008C2F6AE04CD3D0DF8D2FDF91CF91CCCF2D
:1019C000CA30B0F7F9CFCF93DF93D82FC3E080911F
:1019D00015380E94820188EC90E08DDFDD2319F03C
:1019E00080E991E088DF80E00E94820188EC90E04D
:1019F00082DFC15061F7DF91CF9108950F920FB64A
:101A00000F921F9211242F933F934F935F936F93E5
:101A10007F938F939F93AF93BF93EF93FF93CF9356
:101A2000DF9300D000D0CDB7DEB781E080930B0606
:101A300080918B38882309F441C0E0918A38E130E5
:101A400009F055C080912111A0912011209110061C
:101A500030911106281B310987FD3395B0E02AD358
:101A600069837A838B839C83DC01CB0180589F4FF1
:101A7000AF4FBF4F892F9A2FAB2FBB2726E0880F80
:101A8000991F2A95E1F7F0E0EE0FFF1FDF01AA573B
:101A9000B74C8D939C93EE57F74C208131812817DA
:101AA000390710F42F5F3F4F8217930710F421502E
:101AB00031092083318381E080938C3881E08093E9
:101AC0008B382496CDBFDEBFDF91CF91FF91EF9190
:101AD000BF91AF919F918F917F916F915F914F9146
:101AE0003F912F911F900F900FBE0F9018958091EE
:101AF000100690911106C2CF8F9381E0809353011D
:101B0000809365388F9118958F931D9A81E080930B
:101B100064388F911895F89480914000877F809366
:101B2000400088EDA89584BF90910001907F90932C
:101B3000000121E030E084BF2093610083E284B99A
:101B400088E08093100480931104809312048093A2
:101B500013048093140499E0909315048093160461
:101B60008093170480933204809333048093340469
:101B700080935004809351048093520480935304C3
:101B800087E38093010A8FEF90E08093260A909379
:101B9000270A91E09093000A80911204816080935B
:101BA000120490935201C0915101C111FCCF81E404
:101BB000809350010E944801789481E00E942B019B
:101BC00070E060E087EF94E00E9490031092443848
:101BD0000E946C020E94620181117EC0F89480E430
:101BE00090E077D2853A09F0A9C005E418E3C1E492
:101BF000D0E0CE016ED2F80181938F012196CC35D1
:101C0000D105B9F778948091453880933E3880911A
:101C1000463880930F388091473880930C388091F4
:101C200048388093093880914938809310388091E2
:101C30004A3880930D3880914B3880930A388091D0
:101C40004C388093113880914D3880930E388091B4
:101C50004E3880930B3880914F3880934038809174
:101C6000503880933F388091513880933D3880912F
:101C70005238809314388091533880934238809141
:101C8000543880934138809156388093033880913E
:101C90005738809307388091583880931638809150
:101CA000593880937D3880915A38809317388091C5
:101CB0005B388093083880915C3880933738809106
:101CC0005D388093043880915E3880930538809128
:101CD0005F388093063833C08C2F0E94820183E1E5
:101CE00090E009DE8C2F86950E94820183E190E0CE
:101CF00002DE0E9462018823F1F0CF5FC03461F7F9
:101D000060917E3880917D38681B81E00E948A0254
:101D10000E94AE02C6E98C2F0E94820184E090E00E
:101D2000EADDC150C1F75ACF8C2F0E9482018DE0AD
:101D300090E0E1DDC150C111F7CF50CF7894809190
:101D4000423881118093153861E070E08DE195E0B3
:101D50000E949003DD24D39499E5B92E22E0A22EAF
:101D600031E4932ECC24C39408EE13E0CDE1D5E00A
:101D70000E94A6038091683890916938009751F0CD
:101D800060916638709167380E949B0410926838A1
:101D900010926938809162388823B1F180E00E9406
:101DA0008201D0925201809151018111FCCFB092F9
:101DB0005001809100068E7F809300060E94620190
:101DC0008111FCCF0E9421018091120481608093D7
:101DD000120410928C3810926538109264388091F9
:101DE0006238811139C0A092183880911204887F1E
:101DF000809312040E944801D092520180915101B7
:101E00008111FCCF909250016DDD10924438809189
:101E10007B3890917C38F2E084389F0709F042C00B
:101E20008CE7E82E80E0F82EF7018491805394DD52
:101E30008CE291E060DDFFEFEF1AFF0A28E8E2167E
:101E400020E0F20689F7C0936838D0936938109281
:101E50006638109267388CCF80915000897F8460FB
:101E6000809350008091500081608093500088954D
:101E7000809150008E7F8093500080916438811152
:101E80001092623880918C38882329F0C0921838DB
:101E9000C0928138E4DB80916538882309F49FCFB4
:101EA0003FDB9DCFE9E085319E0781F0F9E08B3D76
:101EB0009F0721F02AE08E31920779F5209136387C
:101EC000213059F520913538222339F18091343869
:101ED000823009F43BC080F4811118C0809103382E
:101EE0000E94820184E690E006DD80E00E9482018B
:101EF00084E690E000DD3CCF833009F039CF80915B
:101F000003380E94820180E991E0EECF809103388E
:101F10000E94820188EC90E0E7CFE9E087379E07D6
:101F200009F046C080913438823039F1B0F4811123
:101F300031C0809103380E94820184E690E0DBDCAE
:101F400080E00E94820184E690E0D5DC8091033835
:101F50000E9482018CE291E0C7CF833009F008CF64
:101F6000809103380E94820184E690E0C4DC80E026
:101F70000E94820184E690E0BEDC809103380E94DA
:101F8000820184E690E0B7DC80E00E94820184E672
:101F900090E0B1DC809103380E94820184E690E0F9
:101FA000AADC80E00E94820184E690E0A4DCC1CF3C
:101FB000F4E08B3A9F0751F480918038EADC8091FD
:101FC0004038811140CF88EE93E094CF24E08B3CE1
:101FD000920721F480917E38DCDCF5CFE8E0883789
:101FE0009E07C1F4809163388111C2CE809115386B
:101FF0000E94820184E690E07EDC80E00E94820103
:1020000020910738209FC001219F900D11248456F4
:10201000910970CF855E944049F480E0D4DC81E082
:10202000D2DC80E0D0DC80ED97E064CF809150007E
:10203000897F809350008091500081608093500090
:102040008895809150008E7F8093500091CE991B8F
:1020500079E004C0991F961708F0961B881F7A959F
:10206000C9F780950895AA1BBB1B51E107C0AA1FA1
:10207000BB1FA617B70710F0A61BB70B881F991F29
:102080005A95A9F780959095BC01CD01089597FBCD
:10209000072E16F4009406D077FD08D0E4DF07FC85
:1020A00005D03EF4909581959F4F08957095619568
:1020B0007F4F0895A29FB001B39FC001A39F700DF1
:1020C000811D1124911DB29F700D811D1124911D40
:1020D000089503D0808199270895FC01E050FC4EBB
:1020E0000895262FFADF0080021611F004D0019720
:1020F00001970895262FAF93BF93E0E0F0E132817E
:1021000031FDFDCFDC01A050BC4E2C932DE924BF46
:1021100023E020830196BF91AF910895F894FFCFFB
:102120000F380C38093800010201000000000000DF
:06213000010000000000A8
:1021360001010141781E98020D0107057878960184
:0A2146000A0A780101412D0702008A
:00000001FF
