:10000000DAC00000F5C00000F3C000000C942C0D15
:10001000EFC00000EDC00000EBC000000C94240D08
:10002000E7C00000E5C00000E3C00000E1C0000040
:10003000DFC00000DDC00000DBC00000D9C0000050
:10004000D7C00000D5C00000D3C00000D1C0000060
:100050000C94A60CCDC00000CBC00000C9C00000AD
:10006000C7C00000C5C00000C3C00000C1C0000080
:10007000BFC00000BDC00000BBC000003230323342
:1000800030393232303631340000000000000000D8
:100090000000000000000000000000000000000060
:1000A0000000000000000000000000000000000050
:1000B0000000000000000000000000000000000040
:1000C000000000000000000000000001030405071C
:1000D00008090B0C0E0F1113141618191B1D1F21E4
:1000E000232527292B2D30323437393B3E404346D8
:1000F000484B4E5154575A5D606366696D70737713
:100100007A7E8185898D9094989CA0A5A9ADB1B681
:10011000BABFC3C8CDD1D6DBE0E5EAEFF4FAFF0100
:100120000102020303040405060708090A0C0D0E68
:100130000F11131416181A1D1F2224272A2D3033CD
:10014000373B3E42464B4F54595D63686E73797F2F
:10015000868C939AA1A8B0B8C0C8D1D9E2ECF5FFBB
:10016000FFFFFFFFFFFFFFFFFFFFFFFFFFFFFFFF9F
:10017000FFFFFFFFFFFFFFFFFFFFFFFFFFFFFFFF8F
:10018000FFFFFFFFFFFFFFFFFFFFFFFFFFFFFFFF7F
:10019000FFFFFFFFFFFFFFFFFFFFFFFFFFFFFFFF6F
:1001A000FFFFFFFFFFFFFFFFFFFFFFFFFFFFFFFF5F
:1001B000FFFFFFFF000011241FBECFEFCDBFDFE325
:1001C000DEBF18E3A0E0B8E3E4EFF0E202C0059080
:1001D0000D92A831B107D9F728E3A8E1B8E301C02F
:1001E0001D92AE3BB207E1F70E94330D0C946110F3
:1001F00007CFF89498ED94BF8093610080916300DD
:1002000080FDFCCF78940895EBE8F8E330E020E03F
:10021000908191110BC0F901EE0FFF1FE20FF31F48
:10022000E557F74C80836183728306C02F5F3F4F91
:1002300033962031310561F70895BC018091BD38B6
:10024000E3CF1092BD381092BB381092BC3881E0D9
:100250008093423808950F931F93CF93C82F02E9DC
:1002600019E0C15020F4CF911F910F91089585E0BE
:10027000C0DFC8010197F1F781E0BBDFF2CFE0E01A
:10028000F6E082858160828780858160808708951D
:10029000CF93DF93C0E0D6E08DE18E8385E58A833E
:1002A0001092883810928938EADFE0EAF0E0808125
:1002B0008061808383E08883888581608887DF917F
:1002C000CF91089582B185FB882780F991E0892735
:1002D000809361380895882341F0813061F080E295
:1002E0008093210480932504089580E28093210463
:1002F00080932604089580E28093220488E080930E
:1003000035040895CF93C82F80935F3880935E386B
:100310008091603881110AC091E0C11101C090E064
:1003200081E0C23408F480E0890FD5DFC1110BC031
:1003300010922A0A10922B0A1092280A1092290A67
:1003400085E0CF9156CF8FEF8C0F90E0FC01E15EFE
:10035000FE4FE491F0E0E0932A0AF0932B0AFC01AF
:10036000E757FF4FE491F0E0E093280AF093290A61
:10037000C53030F383E0CE3020F381E0E2CFCF937D
:10038000DF93CDB7DEB72697CDBFDEBF20913C38D7
:100390004091793850917A384454544009F422E01D
:1003A000843041F460933D382696CDBFDEBFDF91A7
:1003B000CF9108956623C1F3823019F497E9961B13
:1003C000692F96E0EEEDF0EADE01119601900D92B4
:1003D0009A95E1F78150990B880F991FA1E0B0E041
:1003E000AC0FBD1F8A0F9B1FDC01ED91FC91E20F4A
:1003F000F11D6083D9CFCF92DF92EF92FF920F93DE
:100400001F93CF93DF939C0150913C38E0913E388D
:1004100082E0E11101C0852F90E0DC01A25FB74CC2
:100420004C9140931238855F974CDC018C918093FE
:100430001138F0E0E85FF74CC181642F70E055237C
:1004400081F0C13071F4860F972F911D9595879596
:10045000DF91CF911F910F91FF90EF90DF90CF90A0
:100460000895261737079CF1821713068CF3511154
:1004700002C0822FEDCF841B6C2F6150770B8B0154
:10048000E82EF12CC7010E94141060933A3866954B
:10049000E62FF0E0842FD12CC12CD0E0DC17C1F284
:1004A000C601B8010E940010842F860FA82FB0E06B
:1004B000B9016A1B7B0B77FF03C0BD01621B730B85
:1004C000CE0CDF1CE617F7071CF6DF5FE7CF842FA3
:1004D000BFCF8093413816CFCF93C0915F3889E169
:1004E0008C0F873908F080E00DDF82E0B4DE8C2FBE
:1004F000CF9108CFCF93C0915F3880E003DF83E0D6
:10050000AADE8C2FCF91FECE81E008956111609319
:1005100016380895662369F0813099F480917B380C
:1005200090917C38891B680F60937B3882E08093C0
:10053000173880911538873418F086E48093153881
:100540000895635E60931538F4CF6093353808954D
:10055000E82FF0E0EE5FF74C608308950F931F9350
:10056000CF93DF9380913C388093433880910E384D
:100570008093443880910B388093453880910838B7
:100580008093463880910F388093473880910C389B
:100590008093483880910938809349388091103889
:1005A00080934A3880910D3880934B3880910A3877
:1005B00080934C3880913E3880934D3880913D38FF
:1005C00080934E3880913B3880934F388091133818
:1005D00080935038809140388093513880913F38D3
:1005E0008093523880910238809354388091063835
:1005F00080935538809115388093563880917B3898
:1006000080935738809116388093583880910738F6
:10061000809359388091353880935A3880910338C7
:1006200080935B388091043880935C3880910538E2
:1006300080935D38F89403E418E3C1E4D0E0F80156
:1006400061918F01CE010E9444102196CC35D105D5
:10065000B1F765EA80E490E00E9444107894DF915D
:10066000CF911F910F910895813019F41092403865
:100670000895823019F460933F380895833019F457
:1006800060933B380895843011F4609313380895D3
:10069000E62F90917E389D3130F480E280932104E2
:1006A000809326040895913228F4E695E170E35092
:1006B0008E2311CE982F9F709330D8F3EF70F0E017
:1006C000EC51FF458081F5CFFF920F931F93CF939D
:1006D000DF938C01D62FC72FF42E8091793890911B
:1006E0007A38892B31F0E0917938F0917A3889E0C5
:1006F00009950093793810937A38012B41F0E091F5
:100700007938F0917A386D2F7C2F8F2D099581E003
:1007100080934238DF91CF911F910F91FF90089500
:1007200020916838283080F4E22FF0E0EE0FFF1FB0
:10073000E759F74C808391832F5F2093683848E016
:10074000C3DF8091683808958FEF0895EF92FF928C
:100750001F93CF93DF9310918B38111106C0DF9157
:10076000CF911F91FF90EF900895E0908C38F0901A
:100770008D38C0916838C1500C2E000CDD0BC7FDC0
:100780000EC0FE01EE0FFF1FE759F74C0190F081FC
:10079000E02DB701812F099521978111F0CFEBE86A
:1007A000F8E383818083848195818183928333966A
:1007B00088E3E83BF807A9F71092B8381092B938E7
:1007C0001092BA38C8CF80916838882319F08150C8
:1007D00080936838E091683890E080E0EE2341F043
:1007E000E150FF0BEE0FFF1FE759F74C808191811D
:1007F0004AE070E060E068CF582FCB01F901583033
:1008000089F41092193880E07DDD80916138811182
:100810001DC081E08093193870E060E08CE594E0C1
:100820007FDF14C0252F207F203BB9F42091193899
:10083000421788F06DE570E00E940010029741F4C5
:100840002F5F2093193888E3421718F480E0089549
:1008500082E158DDFBCF80E0FCCF203E41F4809167
:100860001938882311F04817B8F6ADDFEFCF5A30AA
:1008700069F7609131388091193809956FDEF5CFAD
:100880002FEB31E043E0B8CF2FEB31E044E0B4CFC1
:1008900024E333E044E0B0CF26E832E041E0ACCFDF
:1008A0002AE832E042E0A8CF25EA32E041E0A4CFD6
:1008B00028EA32E043E0A0CF883039F41092313892
:1008C0001092183880E01EDD0CC08130F9F4909150
:1008D0001838911108C06032710518F080931838EB
:1008E000B0DC80E00895913079F46B3B710520F025
:1008F00082E080931838E6CF6115710591F3862F59
:10090000880F84708E5EDFCF5EDFEBCF813811F011
:10091000813E39F791E090931838813E41F48091FF
:100920003138865F809331388CDC8BE4CCCF80917A
:1009300031388F5FF7CF0F931F93CF93DF93D82F6B
:10094000C92F8B0140DFB8018D2F9C2FDF91CF91F4
:100950001F910F91E5CECF93C0913E38C11119C0C0
:10096000813C41F470E060E08DE195E0E4DF8C2FA4
:10097000CF910895823C29F470E060E08BEC94E024
:10098000F5CF873B31F470E060E08CE494E0C8DEA2
:10099000EECFC1E0ECCF813C39F470E060E08DE156
:1009A00095E0C9DF80E00895823C29F470E060E0C2
:1009B00085E798E0F6CF873B31F470E060E080E5B2
:1009C00094E0AEDEEFCF81E00895813C39F470E031
:1009D00060E08DE195E0AFDF80E00895823C29F48E
:1009E00070E060E08BEA94E0F6CF81E00895843017
:1009F00011F58091793890917A3829E08231920707
:100A000031F469E170E086EF95E095DF0DC0865F17
:100A1000954061F490915F38923040F0892F86952F
:100A200096959695890F55DD80E0089570E060E019
:100A30008DE195E0EACF81E008950F931F93CF9366
:100A40008B01883081F480E05DDC10923938012B15
:100A500031F0C0E08C2FCF911F910F91089581E06C
:100A600080936038F6CF813021F46931710588F3C5
:100A7000F7CF833059F580914038882371F09091F9
:100A80003F3842EC51E0949F9001959F300D112426
:100A90006217730710F08093143880910738602F25
:100AA0008370F6DD80913538882399F242EC51E06D
:100AB000849F9001859F300D112470E060E08CE9E7
:100AC00098E02017310728F636DFC3CF813BA9F421
:100AD00081E090E090DC16DC80913B388111B9CF49
:100AE00080913C38811104C00831110508F4B1CF60
:100AF00061E070E086EF95E0E7CF813EC9F3813891
:100B000031F48091143890E076DCFCDBA2CF813C9C
:100B100021F460915F3870E0EDCF823B71F48091F9
:100B2000133890913E38911180913D38811103C066
:100B300086E990E0E9CF86E9E8CF823E11F480E0D3
:100B4000E4CF8339E1F38F3C29F470E060E084E87E
:100B500092E0BACFC0913E388A3B81F4672B09F00E
:100B600043C0CC2329F0B8DC10923E38F7DC71CFBB
:100B700070E060E084E494E0D3DD6CCFC11134C058
:100B80008A3C31F4A9DC81E080933E38E7DC62CF17
:100B900070E060E0823C41F064E070E0833C21F072
:100BA000843C31F467E070E082E199E0C4DE52CF2A
:100BB000853C31F491DC70E060E081E899E0F6CFAB
:100BC000863C31F489DC70E060E084EC99E0EECFA3
:100BD000873C51F49091073881E0890F83709C7FA6
:100BE000892B80930738D2CFC1E034CF9F92AF9248
:100BF000BF92CF92DF92EF92FF920F931F93CF930A
:100C0000DF93C82F8B01A0901238C0901138B0909C
:100C10003C3890903A38B11002C099249394D09007
:100C20001338D0913E38D111D0903D38DD2009F4F1
:100C30004AC031E0D31629F0809114388C1508F49D
:100C400042C0F6E9EF2EF0903938D11108C0C83013
:100C5000E1F51092393810923638109237382091D9
:100C60003938222309F438C2F11004C080915F386A
:100C700080931C388C2F8D7F883009F06AC01092C9
:100C80003438CA3019F40091143810E0A016110657
:100C900030F4C016110619F010F000931438C80192
:100CA000AADB17DC81E080930138D0E08D2FDF9143
:100CB000CF911F910F91FF90EF90DF90CF90BF9059
:100CC000AF909F900895EC2CBECFC13B51F48FEFB5
:100CD0008F0D833020F683E0809339388093383845
:100CE000BECFC53BC1F4C8016EE370E00E940010A6
:100CF000892B09F0B4CF49EF4F1508F4B0CF85E048
:100D00008F0D80933938809338381092363810928E
:100D10003738E2DBA4CFC13009F0A1CF20913638BB
:100D2000309137382F5F3F4F28385EE0350728F481
:100D3000209336383093373892CF1092363810924D
:100D40003738FF2009F48BCF8FEF8F0D8093393820
:100D500086CFC13C09F4C3C1C23C71F480915F38B5
:100D60008E1538F48E2DB5DB80915F3880931C385A
:100D70009CCF80911438F7CFC43C39F480E0C2DABC
:100D800070E060E08CE998E0AEC18FE48C0F8230B7
:100D900008F050C06091083870E0C801BB2011F025
:100DA00068E170E00E940010892B09F07ECF9091DD
:100DB0005F3801151105C9F4C23B89F48FEF8093A8
:100DC000013820910138392D2303C00111242091CD
:100DD0005F38820F911D0FDB80931438C4CF9C15B0
:100DE00068F7A91670F381E0EACF80910838682F80
:100DF00070E046E351E0849F9001859F300D1124FF
:100E00002017310710F49C15C8F64CE652E0649F99
:100E10009001659F300D749F300D1124201731070C
:100E200080F6A91670F258DB70E060E08CE998E07B
:100E300082DDC7CF8FE18C0F823020F480910138A2
:100E4000819531CFC13009F0C6C00932110511F4C6
:100E5000C09301382223A9F040911C382150330B54
:100E6000429FC001439F900D11246091383870E07B
:100E70000E941410611101C061E060935E386093BC
:100E80004138C0915E3820915F384C2F421B550B82
:100E9000CA0160911A3870911B386F5F7F4F609361
:100EA0001A3870931B38009709F4FFCE40E052E0E7
:100EB00097FF06C040E450E0233810F440E051E0D2
:100EC0005695479597FD0196959587950097C1F79B
:100ED0004617570708F0E9CE8FEFC21720F08C2F86
:100EE0002C1710F481E0820F3FEF380F432F50E0B2
:100EF000BA01615E7E4FFB019491321750F420914C
:100F00002A0A30912B0A232B21F42FEF30E09F3F48
:100F100081F0E0912A0AF0912B0A292F30E0E217A4
:100F2000F30708F03BC020912A0A30912B0A2F5F6B
:100F30003F4F20932A0A30932B0A9A0127573F4F9D
:100F4000F9014491E091280AF091290A50E0E41750
:100F5000F50798F54091280A5091290A4F5F5F4F95
:100F60004093280A5093290A40912A0A50912B0A4B
:100F7000FB0164916417150661F44091280A5091B1
:100F8000290AF90124912417150619F4BBD9C09335
:100F90005E3810921A3810921B3887CEE0912A0AD8
:100FA000F0912B0A2E173F0708F0C7CF20912A0A8D
:100FB00030912B0A21503109BCCFE091280AF091E1
:100FC000290A4E175F0780F64091280A5091290A96
:100FD00041505109C5CFC530A9F480915F388234A2
:100FE00008F463CE90E0801B910B282F813491058B
:100FF0003CF08739910508F026E920935E3855CEFC
:1010000021E4FBCFC630B1F490915F388091413834
:10101000981708F04ACE090F111D90E0801791072C
:1010200034F0C8010134110514F481E490E0809398
:101030005E383BCEC73069F490915E3880915F385E
:10104000891710F48F5FF3CF981708F02ECE8150D8
:10105000EECFC33C59F481E0B11080E080933C387E
:101060007DDA48DA80915F3890E0B5CED11132C098
:10107000C33B51F4012B09F018CEDD2011F086E9B5
:10108000E82E8E2D26DA12CEC33E19F48091143844
:10109000F9CFC53C41F480E035D970E060E081E8EB
:1010A00099E049DC03CE70E060E080E494E0C73B67
:1010B00079F0CA3C39F480915F38809340384EDA39
:1010C0000BDAF4CDCA3B31F470E060E088E494E0E0
:1010D00027DBECCDD1E0EACDFF2009F4CBCD70E0E9
:1010E00060E08DE195E027DCE0CD282FCB01213CAD
:1010F00039F470E060E08DE195E01DDC80E008955A
:10110000223C29F470E060E085EE94E0F6CF213BCC
:1011100039F46EE370E074D7892B81F7DDD9EECF17
:10112000213E41F46EE370E06BD76F5F6093063849
:1011300015DAE4CF81E00895CF93DF93D82F80793B
:101140008039F1F490910E3820910F388D2F8F70E7
:10115000823049F480914038811108C0822F2917CC
:1011600028F4892F03C0822F9217D8F3CBD8D33C11
:10117000E1F4B2D970E060E08DE195E0DCDB0BC01A
:10118000803811F480E0F2CFD13039F46931710543
:1011900010F0D0936038C0E016C0D33041F7809192
:1011A00007388695869574DAF6CFD43C81F4C091E1
:1011B00040386C2F70E0C11111C06091143870E09C
:1011C00086EF95E0B8DB8C2FDF91CF910895D43B6B
:1011D00041F490D91092BD3861E070E086EF95E05F
:1011E000CDCFD53C19F466E970E0F8CFC0913E3818
:1011F000C11116C0DA3B31F470E060E084E594E0A0
:101200008FDAE1CFD73C61F490910738892F8C7F3A
:101210008C5F8C709370892B809307389FD9D3CFC4
:10122000C1E0D1CFCF93C091323891E09093343860
:10123000883021F490930038C0E053C0813C31F4F1
:1012400070E060E08DE195E076DBF6CF823C49F41A
:101250008C2F90E0019683709927809332387ED945
:10126000EBCF833C41F48C2F90E0019663E070E07B
:10127000DBD68C5FF2CF843C41F48C2F90E001965A
:1012800065E070E0D1D6895FE8CF813B91F4809131
:10129000023890910038890F823038F482E08093D0
:1012A0000238809102382ED8C7CF8937C0F388E73B
:1012B000F6CF813E31F480910038819580930038DB
:1012C000CECF823B89F490930038C111B5CF809185
:1012D0000238833018F081508093023880910238B0
:1012E00011D88C2FCF910895823E09F4B8CFC1E078
:1012F000853CB9F770E060E081E899E01CDB80E0B4
:10130000D2CFCF939B01883049F490913438992300
:1013100029F091E09093343890930038982F907989
:10132000903981F481E080933338C0913438CC23F4
:1013300011F0C0E004C0809114380E9482018C2F0B
:10134000CF910895903831F41092333880E00E94A4
:101350008201EFCFC1E0813091F7C0913338CC23C7
:1013600041F080913438882321F3B90181E0CF9195
:1013700059CF27333140E8F28093603880E2809380
:10138000210480932604DBCFFF920F931F93CF930A
:10139000DF93C82F8B01F09014388079803909F0E1
:1013A00041C0DC2FDC7001F110923338D0E0809125
:1013B0003338882319F0B8018C2FA3DFF09214384A
:1013C000C83059F0C130B9F5D0913338D11145C08A
:1013D0000931110510F0C09360388D2FDF91CF9146
:1013E0001F910F91FF90089591E090933338EC2F67
:1013F000EF70F0E0EE5FF74C80812FEF280F263979
:1014000028F48093143810923438D1CF9093343824
:10141000873960F28759990B6CE070E0F1D58093C1
:101420003238C5CF803829F41092333880E00E94DA
:101430008201D1E0BCCFC33041F4B80183E0DF9139
:10144000CF911F910F91FF9077CEC63C41F444D8C5
:1014500070E060E08DE195E06EDAD0E0BECFC73B92
:1014600009F0BBCF70E060E088E594E059D9F5CF92
:101470000F931F93CF93109263388091BB38909154
:10148000BC389C012F5F3F4F88279078822B932B8D
:101490008093BB389093BC38C09161380E94620140
:1014A000C817B9F010926038809361389091BD38B8
:1014B0008823B9F1892F80699F709F3081F58093CF
:1014C000BD3890E080E00E941D011092BB38109260
:1014D000BC380091BB381091BC38809160388823AB
:1014E00071F1B80183E00E94040130D90F73112714
:1014F000012B89F410921D380E944801C0911D38BB
:10150000C11105C00E943F0181E080937F38CF5F09
:10151000CF71C0931D38CF911F910F9108958F5FA8
:10152000CECF892F8F7E95FD08C080688093BD380F
:101530008091BB389091BC38C6CF806CF7CFC091FA
:10154000BD388C2F807F803B49F470E060E081E003
:101550000E940401C8010E941D01D0CFB80181E0A2
:101560000E940401C4FF0FC0C5FDF4CF083111056E
:1015700028F21092BB381092BC38C062C093BD38BC
:1015800090E080E0E8CFCC2309F4B8CFC5FF03C0DA
:101590000E942101B3CF0231110508F4AFCFC0641E
:1015A000C093BD3890E080E00E941D01F1CF109201
:1015B0008A3880917F38882309F456C010927F388A
:1015C0009091883880916038882339F080910006A6
:1015D0008E7F809300061092883891114FC08091C1
:1015E00017386091803870918138882341F060917C
:1015F0008438709185386093803870938138605F4B
:101600007F4F86E0769567958A95E1F780E098E5CB
:10161000F7D4809116388250990B680F791F769510
:10162000679560937E38809130388823F1F081503F
:10163000809330388091603881110DC08EE18093A5
:10164000060685E48093020681E080938838109234
:1016500089380E943F0180911738882329F08091B2
:10166000173881508093173808956D3118F770E05E
:1016700060E084E00E94040185E0DACF913059F700
:1016800080911738811164C080918238909183389D
:1016900040969C0145E0369527954A95E1F7E09103
:1016A0007B3856E0969587955A95E1F70E2E000CFB
:1016B000FF0BAF0143515140840F951F80937C383D
:1016C00090937D3880911F38A82FB0E0AA0FBB1FE0
:1016D000A05EB74C4D915C911197B901641B750BDD
:1016E000AB012D933C938F5F877080931F38660FFB
:1016F000771F660F771F8091153890E08D5E9E4FA3
:101700008E1B9F0B880F991F681B790B620F731F2D
:1017100083E0161617060CF04AC06150710981501B
:10172000C1F7161617060CF05DC057FD7AC0809100
:101730001E3818160CF042C0861B80931E388DE1AF
:101740008093060685E580930206109288387FCF45
:10175000809186389091873880938238909383382F
:10176000409635E0969587953A95E1F78093203835
:101770009093213880932238909323388093243893
:101780009093253880932638909327388093283873
:101790009093293880932A3890932B3880932C3853
:1017A00090932D3880932E3890932F386DCF6115FC
:1017B000710509F4B4CF6F5F7F4FB1CF660F771F0C
:1017C0006530710564F0635071097595679588E11E
:1017D000861B80931E3885E00E940401B0CF61E033
:1017E00070E0F5CF6C3F8FEF7807DCF457FF19C03E
:1017F00080911E3887FF02C084509ECF84EE861BE6
:1018000080931E3880917E388F3108F498CF8CEF0A
:101810009FEF9C01261B370BB9017595679586E0F4
:10182000DBCF80917E388E3108F489CF70E060E0A4
:1018300087E0D2CF80918A388111B9DE80916338F8
:10184000811116CE0895EF92FF920F931F93CF93BD
:10185000DF93EC010AEC18E082E3E82E82E0F82E38
:10186000209739F4DF91CF911F910F91FF90EF9066
:101870000895809142388111F5CF80915F3885308D
:1018800070F485E00E94F900C7010197F1F781E04B
:101890000E94F900CFDF0E94A6032197E1CF81E0EB
:1018A0000E94F900C801F1CF0F931F93CF93C82F67
:1018B00006EA811102C008E0C1E010E089E10E945F
:1018C0008201C801C0DF80E00E9482018AEF90E0BF
:1018D000BADFC15099F78AE992E0CF911F910F9139
:1018E000B2CFCF93DF93282F64E67ED3382FC92F52
:1018F000892F6AE079D3D92F243650F0832FD4DF93
:101900008C2F6AE071D3D0DF8D2FDF91CF91CCCFB8
:10191000CA30B0F7F9CFCF93DF93D82FC3E08091CF
:1019200014380E94820188EC90E08DDFDD2319F0ED
:1019300080E991E088DF80E00E94820188EC90E0FD
:1019400082DFC15061F7DF91CF9108950F920FB6FA
:101950000F921F9211242F933F934F935F936F9396
:101960007F938F939F93AF93BF93EF93FF93CF9307
:10197000DF9300D000D0CDB7DEB781E080930B06B7
:1019800080918938882309F441C0E0918838E1309A
:1019900009F055C080912111A091201120911006CD
:1019A00030911106281B310987FD3395B0E055D3DE
:1019B00069837A838B839C83DC01CB0180589F4FA2
:1019C000AF4FBF4F892F9A2FAB2FBB2726E0880F31
:1019D000991F2A95E1F7F0E0EE0FFF1FDF01AC57EA
:1019E000B74C8D939C93E058F74C20813181281798
:1019F000390710F42F5F3F4F8217930710F42150DF
:101A000031092083318381E080938A3881E080939B
:101A100089382496CDBFDEBFDF91CF91FF91EF9142
:101A2000BF91AF919F918F917F916F915F914F91F6
:101A30003F912F911F900F900FBE0F90189580919E
:101A4000100690911106C2CF8F9381E080935301CD
:101A5000809363388F9118958F931D9A81E08093BE
:101A600062388F911895F89480914000877F809319
:101A7000400088EDA89584BF90910001907F9093DD
:101A8000000121E030E084BF2093610083E284B94B
:101A900088E0809310048093110480931204809353
:101AA00013048093140499E0909315048093160412
:101AB000809317048093320480933304809334041A
:101AC0008093500480935104809352048093530474
:101AD00087E38093010A8FEF90E08093260A90932A
:101AE000270A91E09093000A80911204816080930C
:101AF000120490935201C0915101C111FCCF81E4B5
:101B0000809350010E944801789481E00E942B014B
:101B100070E060E087EF94E00E94900310924238FA
:101B20000E946C020E94620181117EC0F89480E4E0
:101B300090E0A2D2853A09F0A9C003E418E3C1E419
:101B4000D0E0CE0199D2F80181938F012196CC3556
:101B5000D105B9F778948091433880933C388091CF
:101B6000443880930E388091453880930B388091AB
:101B70004638809308388091473880930F38809199
:101B8000483880930C388091493880930938809187
:101B90004A388093103880914B3880930D3880916B
:101BA0004C3880930A3880914D3880933E3880912C
:101BB0004E3880933D3880914F3880933B388091E8
:101BC00050388093133880915138809340388091F9
:101BD000523880933F3880915438809302388091F6
:101BE0005538809306388091563880931538809107
:101BF000573880937B38809158388093163880917D
:101C000059388093073880915A38809335388091BD
:101C10005B388093033880915C38809304388091DE
:101C20005D388093053833C08C2F0E94820183E198
:101C300090E009DE8C2F86950E94820183E190E07E
:101C400002DE0E9462018823F1F0CF5FC03461F7A9
:101C500060917C3880917B38681B81E00E948A0209
:101C60000E94AE02C6E98C2F0E94820184E090E0BF
:101C7000EADDC150C1F75ACF8C2F0E9482018DE05E
:101C800090E0E1DDC150C111F7CF50CF7894809141
:101C9000403881118093143861E070E08DE195E067
:101CA0000E949003FF24F39429E5D22E32E0C32E44
:101CB00041E4B42EEE24E39408EE13E0CDE1D5E048
:101CC0000E94A6038091663890916738009751F082
:101CD00060916438709165380E949B041092663858
:101CE00010926738809160388823B1F180E00E94BB
:101CF0008201F0925201809151018111FCCFD0926A
:101D00005001809100068E7F809300060E94620140
:101D10008111FCCF0E942101809112048160809387
:101D2000120410928A3810926338109262388091AF
:101D30006038811139C0C092173880911204887FB1
:101D4000809312040E944801F09252018091510147
:101D50008111FCCFB09250016DDD1092423880911C
:101D6000793890917A38F2E084389F0709F042C0C0
:101D70009CE7892E90E0992EF4018491805394DDA4
:101D80008CE291E060DDFFEF8F1A9F0A28E882164F
:101D900020E0920689F7C0936638D0936738109296
:101DA0006438109265388CCF80915000897F8460B0
:101DB00080935000809150008160809350008895FE
:101DC000809150008E7F8093500080916238811105
:101DD0001092603880918A38882329F0E092173871
:101DE000E0927F38E4DB80916338882309F49FCF49
:101DF0003FDB9DCFE9E082319E0799F0F9E0813821
:101E00009F0729F029E0843C920709F09EC02091A9
:101E10003438213009F099C020913338222309F455
:101E200094C0E0913238EC3008F04ACFF0E0ED5940
:101E3000FF4E0DC1809102380E94820182E390E042
:101E400002DD80E00E94820182E390E0FCDC809170
:101E500002380E94820182E390E0F5DC80E00E947B
:101E6000820182E390E0EFDC809102380E948201DF
:101E700086E990E04EC0809102380E94820180E2A3
:101E800093E0E1DC80E00E94820188EC90E0DBDC02
:101E900017CF809102380E94820180EB94E0D3DC5E
:101EA00080E00E94820180E293E0F1CF80910238CD
:101EB0000E9482018AEF90E0C6DC80E00E948201ED
:101EC0008AEF90E0E4CF809102380E94820184E69C
:101ED00090E0B9DC80E00E94820184E690E0D7CFF8
:101EE00083E0982E809102380E94820182E390E084
:101EF000AADC80E00E94820182E390E0A4DC9A9454
:101F00009110F0CFB1CF809102380E94820182E31C
:101F100090E099DC80E00E94820182E390E0B7CFFC
:101F2000809102380E94820184E690E0F2CF809195
:101F300002380E94820188EC90E0EBCF8091023859
:101F40000E9482018AEF90E0E4CFE4E08B3A9E07A2
:101F500051F480917E38C5DC80913E3881111BCFD1
:101F600088EE93E094CFF4E08B3C9F0721F48091BE
:101F70007C38B7DCF5CF28E085379207C1F4809133
:101F8000613881119DCE809114380E94820184E6CF
:101F900090E059DC80E00E94820120910638209F69
:101FA000C001219F900D11248456910970CF855E48
:101FB000944049F480E0AFDC81E0ADDC80E0ABDC54
:101FC00080ED97E064CF80915000897F809350002E
:101FD00080915000816080935000889580915000DE
:101FE0008E7F809350006CCE991B79E004C0991FBE
:101FF000961708F0961B881F7A95C9F78095089563
:10200000AA1BBB1B51E107C0AA1FBB1FA617B7071E
:1020100010F0A61BB70B881F991F5A95A9F780953A
:102020009095BC01CD01089597FB072E16F40094FE
:1020300006D077FD08D0E4DF07FC05D03EF490958C
:1020400081959F4F0895709561957F4F0895EE0F8C
:10205000FF1F0590F491E02D0994A29FB001B39F5A
:10206000C001A39F700D811D1124911DB29F700DA1
:10207000811D1124911D089503D080819927089511
:10208000FC01E050FC4E0895262FFADF0080021676
:1020900011F004D0019701970895262FAF93BF93B5
:1020A000E0E0F0E1328131FDFDCFDC01A050BC4E1B
:1020B0002C932DE924BF23E020830196BF91AF919B
:1020C0000895F894FFCF3B0F490F560F630F270F6A
:0E20D0001A0F700F830F900F340F970F9E0F93
:1020DE000E380B3808380001020100000000000025
:0620EE00010000000000EB
:1020F400010141781E98020D010705787896010ABE
:082104000A780101412D0702D8
:00000001FF
