:10000000DAC00000F5C00000F3C000000C942B0F14
:10001000EFC00000EDC00000EBC000000C94230F07
:10002000E7C00000E5C00000E3C00000E1C0000040
:10003000DFC00000DDC00000DBC00000D9C0000050
:10004000D7C00000D5C00000D3C00000D1C0000060
:100050000C94A50ECDC00000CBC00000C9C00000AC
:10006000C7C00000C5C00000C3C00000C1C0000080
:10007000BFC00000BDC00000BBC000003230323342
:1000800031303036303631340000000000000000DE
:100090000000000000000000000000000000000060
:1000A0000000000000000000000000000000000050
:1000B0000000000000000000000000000000000040
:1000C000000000000000000000000001030405071C
:1000D00008090B0C0E0F1113141618191B1D1F21E4
:1000E000232527292B2D30323437393B3E404346D8
:1000F000484B4E5154575A5D606366696D70737713
:100100007A7E8185898D9094989CA0A5A9ADB1B681
:10011000BABFC3C8CDD1D6DBE0E5EAEFF4FAFF0100
:100120000102020303040405060708090A0C0D0E68
:100130000F11131416181A1D1F2224272A2D3033CD
:10014000373B3E42464B4F54595D63686E73797F2F
:10015000868C939AA1A8B0B8C0C8D1D9E2ECF5FFBB
:10016000FFFFFFFFFFFFFFFFFFFFFFFFFFFFFFFF9F
:10017000FFFFFFFFFFFFFFFFFFFFFFFFFFFFFFFF8F
:10018000FFFFFFFFFFFFFFFFFFFFFFFFFFFFFFFF7F
:10019000FFFFFFFFFFFFFFFFFFFFFFFFFFFFFFFF6F
:1001A000FFFFFFFFFFFFFFFFFFFFFFFFFFFFFFFF5F
:1001B000FFFFFFFF000011241FBECFEFCDBFDFE325
:1001C000DEBF18E3A0E0B8E3ECE2F6E202C005907F
:1001D0000D92A232B107D9F728E3A2E2B8E301C039
:1001E0001D92A03DB207E1F70E94320F0C94091353
:1001F00007CFF89498ED94BF8093610080916300DD
:1002000080FDFCCF78940895EDE9F8E330E020E03C
:10021000908191110BC0F901EE0FFF1FE20FF31F48
:10022000E356F74C80836183728306C02F5F3F4F94
:1002300033962031310561F70895BC018091CF38A4
:10024000E3CF1092CF381092CD381092CE3881E0A3
:100250008093513808950F931F93CF93C82F02E9CD
:1002600019E0C15020F4CF911F910F91089585E0BE
:10027000C0DFC8010197F1F781E0BBDFF2CFE0E01A
:10028000F6E082858160828780858160808708951D
:10029000CF93DF93C0E0D6E08DE18E8385E58A833E
:1002A00010929A3810929B38EADFE0EAF0E0808101
:1002B0008061808383E08883888581608887DF917F
:1002C000CF91089582B185FB882780F991E0892735
:1002D000809373380895E0910838F0910938319689
:1002E000FB70F460E0930838F093093880916F3820
:1002F0008B5A80936F38E49180916F388E0F0895F8
:10030000882341F0813061F080E280932104809362
:100310002504089580E280932104809326040895A3
:1003200080E28093220488E0809335040895CF937F
:10033000C82F809371388093703880917238811102
:100340000AC091E0C11101C090E081E0C23408F41C
:1003500080E0890FD5DFC1110BC010922A0A1092DC
:100360002B0A1092280A1092290A85E0CF9141CFDA
:100370008FEF8C0F90E0FC01E15EFE4FE491F0E026
:10038000E0932A0AF0932B0AFC01E757FF4FE49110
:10039000F0E0E093280AF093290AC53030F383E0B7
:1003A000CE3020F381E0E2CFCF93DF93CDB7DEB73D
:1003B0002697CDBFDEBF20914B3840918B385091AE
:1003C0008C38435B544009F422E0843041F460935C
:1003D0004C382696CDBFDEBFDF91CF9108956623BE
:1003E000C1F3823019F497E9961B692F96E0E6E194
:1003F000F6EADE01119601900D929A95E1F781508F
:10040000990B880F991FA1E0B0E0AC0FBD1F8A0FB8
:100410009B1FDC01ED91FC91E20FF11D6083D9CFB0
:10042000CF92DF92EF92FF920F931F93CF93DF93C0
:100430009C0150914B38E0914D3882E0E11101C0B0
:10044000852F90E0DC01A85EB74C4C9140931C389E
:100450008B5E974CDC018C9180931B38F0E0EE5E54
:10046000F74CC181642F70E0552381F0C13071F4E5
:10047000860F972F911D95958795DF91CF911F91AD
:100480000F91FF90EF90DF90CF90089526173707D8
:100490009CF1821713068CF3511102C0822FEDCF0D
:1004A000841B6C2F6150770B8B01E82EF12CC70158
:1004B0000E94C212609349386695E62FF0E0842FBF
:1004C000D12CC12CD0E0DC17C1F2C601B8010E94CA
:1004D000AE12842F860FA82FB0E0B9016A1B7B0BE8
:1004E00077FF03C0BD01621B730BCE0CDF1CE61748
:1004F000F7071CF6DF5FE7CF842FBFCF809350381C
:1005000016CFCF93C091713889E18C0F873908F0ED
:1005100080E00DDF82E09FDE8C2FCF9108CFCF935C
:10052000C091713880E003DF83E095DE8C2FCF919E
:10053000FECE81E00895611160932038089566230E
:1005400069F0813099F480918D3890918E38891BB3
:10055000680F60938D3882E08093213880911F3836
:10056000873418F086E480931F380895635E6093A3
:100570001F38F4CF609344380895E82FF0E0E45F2B
:10058000F74C608308950F931F93CF93DF9380916F
:100590004B3880935238809118388093533880912B
:1005A0001538809354388091123880935538809153
:1005B0001938809356388091163880935738809137
:1005C00013388093583880911A3880935938809125
:1005D000173880935A388091143880935B38809113
:1005E0004D3880935C3880914C3880935D38809191
:1005F0004A3880935E3880911D3880935F388091AF
:100600004F388093603880914E3880936138809164
:1006100041388093623880910B38809363388091A1
:100620000C388093643880910A38809365388091C3
:1006300010388093663880911F3880936738809196
:100640008D38809368388091203880936938809104
:10065000113880936A388091443880936B38809148
:100660000D3880936C3880910E3880936D3880916E
:100670000F3880936E38F89402E518E3C1E4D0E0B7
:10068000F80161918F01CE010E94EC122196CE35C6
:10069000D105B1F765EA80E490E00E94EC1278940D
:1006A000DF91CF911F910F910895813019F410922D
:1006B0004F380895823019F460934E38089583308E
:1006C00019F460934A380895843011F460931D380A
:1006D0000895E62F909190389D3130F480E2809318
:1006E0002104809326040895913228F4E695E17060
:1006F000E3508E2305CE982F9F709330D8F3EF7080
:10070000F0E0E45EF9458081F5CFFF920F931F93EF
:10071000CF93DF938C01D62FC72FF42E80918B3887
:1007200090918C38892B31F0E0918B38F0918C3896
:1007300089E0099500938B3810938C38012B41F098
:10074000E0918B38F0918C386D2F7C2F8F2D09958F
:1007500081E080935138DF91CF911F910F91FF90ED
:10076000089520917A38283080F4E22FF0E0EE0FDF
:10077000FF1FE558F74C808391832F5F20937A38D1
:1007800048E0C3DF80917A3808958FEF0895282FCD
:10079000CB0130914D38311147C0283039F41092D7
:1007A000483810924538109246380895213B59F444
:1007B0008091483881508330B8F583E08093483881
:1007C000809347380895253BA1F46EE370E00E94C2
:1007D000AE12892B49F5809148388A3F28F58B5F06
:1007E00080934838809347381092453810924638A5
:1007F00088CE2130C9F480914538909146380196D1
:1008000088382EE0920728F4809345389093463834
:1008100008951092453810924638809148388823C0
:1008200019F08150809348380895EF92FF921F93FA
:10083000CF93DF9310919D38111106C0DF91CF91B6
:100840001F91FF90EF900895E0909E38F0909F38B0
:10085000C0917A38C1500C2E000CDD0BC7FD0EC0C4
:10086000FE01EE0FFF1FE558F74C0190F081E02DDF
:10087000B701812F099521978111F0CFEDE9F8E3B8
:10088000838180838481958181839283339688E3F9
:10089000EA3CF807A9F71092CA381092CB381092A8
:1008A000CC38C8CF80917A38882319F08150809352
:1008B0007A38E0917A3890E080E0EE2341F0E15020
:1008C000FF0BEE0FFF1FE558F74C808191814AE046
:1008D00070E060E01ACF582FCB01F901583089F44D
:1008E0001092273880E023DD8091733881111DC07C
:1008F00081E08093273870E060E08BEC94E031DF9A
:1009000014C0252F207F203BB9F4209127384217AF
:1009100088F06DE570E00E94AE12029741F42F5FFF
:100920002093273888E3421718F480E0089582E185
:10093000FEDCFBCF80E0FCCF203E41F480912738E5
:10094000882311F04817B8F6ADDFEFCF5A3069F7BA
:1009500060913F3880912738099515DEF5CF24ED59
:1009600031E043E0B8CF24ED31E044E0B4CF25E5F9
:1009700033E044E0B0CF2BE932E041E0ACCF2FE9E7
:1009800032E042E0A8CF2AEB32E041E0A4CF2DEBE9
:1009900032E043E0A0CF883039F410923F38109213
:1009A000263880E0C4DC0CC08130F9F49091263800
:1009B000911108C06032710518F08093263841DC2F
:1009C00080E00895913079F46B3B710520F082E06E
:1009D00080932638E6CF6115710591F3862F880F35
:1009E00084708E5EDFCF5EDFEBCF813811F0813E09
:1009F00039F791E090932638813E41F480913F3859
:100A0000865F80933F381DDC8BE4CCCF80913F38EC
:100A10008F5FF7CF0F931F93CF93DF93D82FC92FFB
:100A20008B0140DFB8018D2F9C2FDF91CF911F915B
:100A30000F9197CECF93C0914D38C11119C0813C11
:100A400041F470E060E084E995E0E4DF8C2FCF9121
:100A50000895823C29F470E060E08AE395E0F5CFE8
:100A6000873B31F470E060E08BEB94E07ADEEECF10
:100A7000C1E0ECCF813C39F470E060E084E995E0BE
:100A8000C9DF80E00895823C29F470E060E084EAE8
:100A900098E0F6CF873B31F470E060E08FEB94E0B4
:100AA00060DEEFCF81E00895813C39F470E060E0D2
:100AB00084E995E0AFDF80E00895823C29F470E09E
:100AC00060E08AE195E0F6CF81E00895843051F549
:100AD00080918B3890918C3829E08334920731F4DF
:100AE00069E170E083E796E095DF15C029E0883979
:100AF0009207B1F32BE08C34920791F38357964021
:100B000061F490917138923040F0892F86959695D6
:100B10009695890FF3DC80E0089570E060E084E949
:100B200095E0E2CF81E008950F931F93CF938B015F
:100B3000883081F480E0FBDB10924838012B31F0E3
:100B4000C0E08C2FCF911F910F91089581E0809389
:100B50007238F6CF813021F46133710588F3F7CF15
:100B6000833059F580914F38882371F090914E3839
:100B700042EC51E0949F9001959F300D1124621733
:100B8000730710F080931E3880911138602F8370A6
:100B9000A0DD80914438882399F242EC51E0849F93
:100BA0009001859F300D112470E060E08DEC98E09D
:100BB0002017310728F62EDFC3CF813BA9F481E04F
:100BC00090E02EDCB4DB80914A388111B9CF80915E
:100BD0004B38811104C00033110508F4B1CF61E036
:100BE00070E083E796E0E7CF813EC9F3813831F4C6
:100BF00080911E3890E014DC9ADBA2CF813C21F476
:100C00006091713870E0EDCF823B71F480911D38B6
:100C100090914D38911180914C38811103C086E933
:100C200090E0E9CF86E9E8CF823E11F480E0E4CF9E
:100C30008339E1F38F3C29F470E060E089E992E0C8
:100C4000BACFC0914D388A3B81F4672B09F049C077
:100C5000CC2329F056DC10924D3895DC71CF70E032
:100C600060E083EB94E07DDD6CCFC1113AC08A3C3B
:100C700031F447DC81E080934D3885DC62CF823CE3
:100C800031F470E060E083E499E0C4DE5ACF833C45
:100C900029F470E060E088E999E0F7CF843C29F41A
:100CA00070E060E08CE49BE0F0CF853C31F429DC1F
:100CB00070E060E08CEF99E0E8CF863C31F421DC15
:100CC00070E060E08BE39AE0E0CF873C51F49091D4
:100CD000113881E0890F83709C7F892B80931138B4
:100CE000CCCFC1E02ECF9F92AF92BF92CF92DF9236
:100CF000EF92FF920F931F93CF93DF93C82F8B0137
:100D0000B0901C38E0901B38C0904B389090493818
:100D1000C11002C099249394D0901D38D0914D38C1
:100D2000D111D0904C38DD2009F441C031E0D31608
:100D300021F080911E388E15D0F1F6E9FF2EA0909B
:100D40004838B8018C2F23DD20914838222309F43C
:100D5000F2C1A11004C08091713880932A388C2F81
:100D60008D7F883031F510924338CA3019F40091E4
:100D70001E3810E0B016110630F4E016110619F016
:100D800010F000931E38C8014BDBB8DB81E0809384
:100D90000738D0E08D2FDF91CF911F910F91FF90F9
:100DA000EF90DF90CF90BF90AF909F900895FE2C72
:100DB000C6CFC13C09F4C2C1C23C71F48091713804
:100DC0008F1538F48F2D9ADB8091713880932A38F3
:100DD000E0CF80911E38F7CFC43C39F480E0A7DA29
:100DE00070E060E08DEC98E0ADC18FE48C0F823054
:100DF00008F04FC06091123870E0C801CC2011F0AB
:100E000060E370E00E94AE12892B19F69091713860
:100E100001151105C9F4C23B89F48FEF809307389F
:100E200020910738492D2403C001112420917138E5
:100E3000820F911DF5DA80931E38C5CF9E1568F795
:100E4000B91670F381E0EACF80911238682F70E014
:100E500046E351E0849F9001859F300D11242017B7
:100E6000310710F49E15C8F64CE652E0649F9001DD
:100E7000659F300D749F300D11242017310780F6C7
:100E8000B91670F23EDB70E060E08DEC98E0C2DDF8
:100E9000C7CF8FE18C0F823020F480910738819585
:100EA00076CFC13009F0C6C00932110511F4C093E4
:100EB00007382223A9F040912A382150330B429F52
:100EC000C001439F900D11246091473870E00E944B
:100ED000C212611101C061E06093703860935038B4
:100EE000C091703820917138EC2FE21BFF0BCF01BD
:100EF00060912838709129386F5F7F4F6093283850
:100F000070932938309709F444CF40E052E0F7FF5E
:100F100006C040E450E0233810F440E051E056951C
:100F2000479597FD0196959587950097C1F74617C8
:100F3000570708F02ECF8FEFC21720F08C2F2C17F9
:100F400010F481E0820F3FEF380F432F50E0BA01D9
:100F5000615E7E4FFB019491321750F420912A0A72
:100F600030912B0A232B21F42FEF30E09F3F81F0AB
:100F7000E0912A0AF0912B0A292F30E0E217F307BB
:100F800008F03BC020912A0A30912B0A2F5F3F4F77
:100F900020932A0A30932B0A9A0127573F4FF901D1
:100FA0004491E091280AF091290A50E0E417F507EE
:100FB00098F54091280A5091290A4F5F5F4F40935E
:100FC000280A5093290A40912A0A50912B0AFB01C2
:100FD00064916417150661F44091280A5091290A1A
:100FE000F90124912417150619F4A1D9C09370387A
:100FF0001092283810922938CCCEE0912A0AF0912C
:101000002B0A2E173F0708F0C7CF20912A0A3091EC
:101010002B0A21503109BCCFE091280AF091290A0E
:101020004E175F0780F64091280A5091290A4150D7
:101030005109C5CFC530A9F480917138823408F4C4
:10104000A8CE90E0801B910B282F813491053CF0B5
:101050008739910508F026E9209370389ACE21E46B
:10106000FBCFC630B1F49091713880915038981709
:1010700008F08FCE090F111D90E08017910734F012
:10108000C8010134110514F481E490E080937038B4
:1010900080CEC73069F4909170388091713889178B
:1010A00010F48F5FF3CF981708F073CE8150EECF16
:1010B000C33C59F481E0C11080E080934B3863DA7F
:1010C0002EDA8091713890E0B5CED11132C0C33B99
:1010D00051F4012B09F05DCEDD2011F086E9F82EE8
:1010E0008F2D0CDA57CEC33E19F480911E38F9CFFC
:1010F000C53C41F480E01BD970E060E08CEF99E0E2
:1011000089DC48CE70E060E08FEA94E0C73B79F07C
:10111000CA3C39F48091713880934F3834DAF1D970
:1011200039CECA3B31F470E060E087EB94E019DB24
:1011300031CED1E02FCEAA2009F411CE70E060E0CC
:1011400084E995E067DC25CE282FCB01213C39F4DA
:1011500070E060E084E995E05DDC80E00895223C89
:1011600029F470E060E084E595E0F6CF213B41F49E
:101170006EE370E00E94AE12892B79F7C2D9EDCFF1
:10118000213E49F46EE370E00E94AE126F5F6093FF
:101190001038F9D9E2CF81E00895CF93DF93D82FAB
:1011A00080798039F1F490911838209119388D2F79
:1011B0008F70823049F480914F38811108C0822F9E
:1011C000291728F4892F03C0822F9217D8F3AFD89C
:1011D000D33CE1F496D970E060E084E995E01ADC54
:1011E0000BC0803811F480E0F2CFD13039F4613394
:1011F000710510F0D0937238C0E016C0D33041F7BB
:10120000809111388695869564DAF6CFD43C81F4C6
:10121000C0914F386C2F70E0C11111C060911E3821
:1012200070E083E796E0F6DB8C2FDF91CF91089595
:10123000D43B41F474D91092CF3861E070E083E779
:1012400096E0CDCFD53C19F466E970E0F8CFC091B7
:101250004D38C11116C0DA3B31F470E060E083EC28
:1012600094E07FDAE1CFD73C61F490911138892F77
:101270008C7F8C5F8C709370892B8093113883D90D
:10128000D3CFC1E0D1CF883029F481E080930638F4
:1012900080E00895813C31F470E060E084E995E0FD
:1012A000B9DBF6CF823C51F48091413890E0019651
:1012B000837099278093413866D9EACF833C39F40B
:1012C00070E060E088E999E0A5DB80E015C0843C2F
:1012D00029F470E060E08CE49BE0F6CF813B91F470
:1012E00080910A3890910638890F823038F482E074
:1012F00080930A3880910A381AD8CACF8937C0F348
:1013000088E7F6CF813E31F480910638819580934D
:101310000638D2CF823B09F4B8CF823E69F2853CD1
:1013200029F470E060E08CEF99E0CECF81E0089581
:101330009B01883029F481E08093053880E008958E
:10134000813C31F470E060E084E995E063DBF6CF46
:10135000823C39F470E060E083E499E05BDB80E09C
:1013600021C090914038833C49F4892F90E0019648
:10137000837099278093403806D9E0CF843C21F4CC
:10138000892F90E00396F4CF813B99F480910A383D
:1013900090910538890F823040F482E080930A38BA
:1013A00080910A380E949701C9CF8937B8F388E73E
:1013B000F5CF813E31F480910538819580930538D1
:1013C000DBCF823B09F4B7CF823EB1F2853C29F4F2
:1013D00070E060E08CEF99E0C1CF813059F4693260
:1013E000710511F48093053880916F38280F209390
:1013F0006F38A4CF81E00895CF939B01883039F4F2
:1014000090914338992319F091E090930638982FE2
:101410009079903981F481E080934238C0914338CB
:10142000CC2311F0C0E004C080911E380E949701C7
:101430008C2FCF910895903831F41092423880E08B
:101440000E949701EFCFC1E0813091F7C0914238FF
:10145000CC2331F0C1E0809143388111E9CFE2CF54
:1014600027333140F8F28093723880E28093210470
:1014700080932604DDCFFF920F931F93CF93DF93CA
:10148000C82F8B01F0901E388079803909F03EC05A
:10149000DC2FDC7001F110924238D0E080914238AC
:1014A000882319F0B8018C2FA7DFF0921E38C830BE
:1014B00059F0C130A1F5D0914238D11143C0013368
:1014C000110510F0C09372388D2FDF91CF911F91CD
:1014D0000F91FF90089591E090934238EC2FEF70B8
:1014E000F0E0E45FF74C80812FEF280F263928F4D5
:1014F00080931E3810924338D1CF90934338873968
:1015000060F28759837080934138C8CF803829F4BE
:101510001092423880E00E949701D1E0BFCFC330E3
:1015200041F4B80183E0DF91CF911F910F91FF90BB
:1015300034CEC63C49F40E94810270E060E084E948
:1015400095E068DAD0E0C0CFC73B09F0BDCF70E0CE
:1015500060E087EC94E005D9F5CF0F931F93CF930C
:10156000109275388091CD389091CE389C012F5FC4
:101570003F4F88279078822B932B8093CD38909380
:10158000CE38C09173380E946201C817B9F010922A
:101590007238809373389091CF388823B9F1892FAE
:1015A00080699F709F3081F58093CF3890E080E014
:1015B0000E941D011092CD381092CE380091CD3886
:1015C0001091CE3880917238882371F1B80183E090
:1015D0000E9404012AD90F731127012B89F410925C
:1015E0002B380E944801C0912B38C11105C00E94C0
:1015F0003F0181E080939138CF5FCF71C0932B384A
:10160000CF911F910F9108958F5FCECF892F8F7E3D
:1016100095FD08C080688093CF388091CD38909137
:10162000CE38C6CF806CF7CFC091CF388C2F807F5B
:10163000803B49F470E060E081E00E940401C80151
:101640000E941D01D0CFB80181E00E940401C4FFB7
:101650000FC0C5FDF4CF0033110528F21092CD382C
:101660001092CE38C062C093CF3890E080E0E8CFCF
:10167000CC2309F4B8CFC5FF03C00E942101B3CF2A
:101680000432110508F4AFCFC064C093CF3890E0A6
:1016900080E00E941D01F1CFDF92EF92FF920F9345
:1016A0001F93CF93DF93C82F8B01D091413881E0F6
:1016B00080934338D33079F4F09048388C2F67D832
:1016C000FF20A1F080914838811110C070E060E0E7
:1016D00084E995E09FD9C83071F0C13C09F001C19F
:1016E00070E060E084E995E095D908C0C83041F425
:1016F00081E08093033881E08093043880E043C127
:10170000C23C49F41092483870E060E083E499E00C
:1017100081D980E01EC1C13BC1F480910238012B08
:1017200041F49FEF8E3618F4823018F491E09093D4
:10173000033890910338890F21F481E080930238B7
:10174000FCC08F36D8F38EE6F9CFC13E59F48091B4
:101750000338819580930338809104388195809374
:101760000438D3C0C23BE9F481E080930338809110
:101770000238823018F081508093023881E08093E3
:101780000438D23008F0BACF00FDB8CFED2FF0E02A
:10179000E55FF74C80818F3F09F4B0CF8F5F808386
:1017A000ADCFC13009F0F7C00932110511F4C09373
:1017B0000338E09025388E2D880FE7FC809527E0D0
:1017C000829FC0011124F09024382F2D220FF7FCA6
:1017D0002095D09101382D9F90011124232F290F9E
:1017E000D09023388D2D880FD7FC8095C09100387C
:1017F0008C9FC0011124290F80910238280F3327B4
:10180000331F809148388130B9F4809145389091E8
:10181000463845E0969587954A95E1F764E770E08C
:10182000AB01481B590B429FC001439F900D529F33
:10183000900D112493D69B01822F0E94970100FDE9
:1018400006C00E946B0181708E0D809325388091B7
:101850002238F80EF09224380E946B0165E272D6AD
:101860009D0D909323380E946B018F7331F40E9479
:101870006B016DE067D690932238DD2339F00E942A
:101880006B018F7319F4D150D09301380E946B0112
:10189000811108C00E946B016BE054D6909301380F
:1018A00010922438C33038F00E946B018F7119F404
:1018B000C150C09300380E946B018F7731F40E94B1
:1018C0006B0166E03FD6909300380932110519F498
:1018D00081E08093043880916F38080F00936F384F
:1018E0000DCFC23C09F410CF70E060E088E999E0C8
:1018F000C33C09F40DCFC43C59F48D2F90E0019600
:1019000065E070E03FD6809341380E94C302F6CE76
:10191000C13B31F5D23088F400FD0FC0ED2FF0E06F
:10192000E55FF74C808190910438891B8F3F08F068
:101930008EEF883008F488E0808380910A38909197
:101940000438890F823040F482E080930A38809115
:101950000A380E949701D2CE8937B8F388E7F5CFCD
:10196000C13E09F4F9CEC23B09F408CFC23E69F288
:10197000C53C29F470E060E08CEF99E0C9CE81E0CD
:10198000C13009F4A2CFDF91CF911F910F91FF9049
:10199000EF90DF900895C13C09F0A6CFA1CE109240
:1019A0009C389091100680916F38890F80936F3822
:1019B00080919138882309F456C010929138909103
:1019C0009A3880917238882339F0809100068E7F92
:1019D0008093000610929A3891114FC0809121385F
:1019E0006091923870919338882341F060919638D5
:1019F000709197386093923870939338605F7F4FFF
:101A000086E0769567958A95E1F780E098E5A6D51A
:101A1000809120388250990B680F791F76956795D1
:101A20006093903880913E388823F1F08150809304
:101A30003E388091723881110DC08EE18093060688
:101A400085E48093020681E080939A3810929B3857
:101A50000E943F0180912138882329F0809121380C
:101A600081508093213808956D3118F770E060E05F
:101A700084E00E94040185E0DACF913059F780912B
:101A80002138811164C080919438909195384096A6
:101A90009C0145E0369527954A95E1F7E0918D3810
:101AA00056E0969587955A95E1F70E2E000CFF0BA0
:101AB000AF0143515140840F951F80938E3890930E
:101AC0008F3880912D38A82FB0E0AA0FBB1FA25DE0
:101AD000B74C4D915C911197B901641B750BAB012B
:101AE0002D933C938F5F877080932D38660F771FFF
:101AF000660F771F80911F3890E08D5E9E4F8E1B82
:101B00009F0B880F991F681B790B620F731F83E06F
:101B1000161617060CF04AC0615071098150C1F7C2
:101B2000161617060CF05DC057FD7AC080912C3850
:101B300018160CF042C0861B80932C388DE18093E0
:101B4000060685E58093020610929A387FCF809131
:101B5000983890919938809394389093953840961E
:101B600035E0969587953A95E1F780932E389093D6
:101B70002F38809330389093313880933238909357
:101B80003338809334389093353880933638909337
:101B90003738809338389093393880933A38909317
:101BA0003B3880933C3890933D386DCF611571057B
:101BB00009F4B4CF6F5F7F4FB1CF660F771F6530E9
:101BC000710564F0635071097595679588E1861B0E
:101BD00080932C3885E00E940401B0CF61E070E072
:101BE000F5CF6C3F8FEF7807DCF457FF19C0809179
:101BF0002C3887FF02C084509ECF84EE861B8093D2
:101C00002C38809190388F3108F498CF8CEF9FEF6B
:101C10009C01261B370BB9017595679586E0DBCFD4
:101C2000809190388E3108F489CF70E060E087E0D1
:101C3000D2CF80919C388111B2DE809175388111AC
:101C40008CCC0895EF92FF920F931F93CF93DF9365
:101C5000EC010AEC18E082E3E82E82E0F82E2097EF
:101C600039F4DF91CF911F910F91FF90EF9008957C
:101C7000809151388111F5CF80917138853070F4A1
:101C800085E00E94F900C7010197F1F781E00E9409
:101C9000F900CFDF0E9415042197E1CF81E00E9477
:101CA000F900C801F1CF0F931F93CF93C82F06EA15
:101CB000811102C008E0C1E010E089E10E949701B3
:101CC000C801C0DF80E00E9497018AEF90E0BADF90
:101CD000C15099F78AE992E0CF911F910F91B2CF4D
:101CE000CF93DF93282F64E62DD4382FC92F892F67
:101CF0006AE028D4D92F243650F0832FD4DF8C2FDC
:101D00006AE020D4D0DF8D2FDF91CF91CCCFCA30C5
:101D1000B0F7F9CFCF93DF93D82FC3E080911E386F
:101D20000E94970188EC90E08DDFDD2319F080E9B7
:101D300091E088DF80E00E94970188EC90E082DFEC
:101D4000C15061F7DF91CF9108950F920FB60F92B6
:101D50001F9211242F933F934F935F936F937F9321
:101D60008F939F93AF93BF93EF93FF93CF93DF93A3
:101D700000D000D0CDB7DEB781E080930B06809114
:101D80009B38882309F441C0E0919A38E13009F08A
:101D900055C080912111A091201120911006309101
:101DA0001106281B310987FD3395B0E0FED3698306
:101DB0007A838B839C83DC01CB0180589F4FAF4F8C
:101DC000BF4F892F9A2FAB2FBB2726E0880F991F73
:101DD0002A95E1F7F0E0EE0FFF1FDF01AA56B74C9E
:101DE0008D939C93EE56F74C20813181281739074B
:101DF00010F42F5F3F4F8217930710F421503109E1
:101E00002083318381E080939C3881E080939B38EC
:101E10002496CDBFDEBFDF91CF91FF91EF91BF91AF
:101E2000AF919F918F917F916F915F914F913F9172
:101E30002F911F900F900FBE0F9018958091100654
:101E400090911106C2CF8F9381E0809353018093CC
:101E500075388F9118958F931D9A81E0809374380F
:101E60008F911895F89480914000877F809340006F
:101E700088EDA89584BF90910001907F9093000118
:101E800021E030E084BF2093610083E284B988E0E0
:101E900080931004809311048093120480931304A0
:101EA0008093140499E09093150480931604809312
:101EB0001704809332048093330480933404809316
:101EC000500480935104809352048093530487E319
:101ED0008093010A8FEF90E08093260A9093270A5F
:101EE00091E09093000A8091120481608093120423
:101EF00090935201C0915101C111FCCF81E48093B4
:101F000050010E944801789481E00E942B0170E00A
:101F100060E086E695E00E94B103109251380E947D
:101F200081020E94620181118AC0F89480E490E0ED
:101F30004BD3853A09F0B5C002E518E3C1E4D0E01F
:101F4000CE0142D3F80181938F012196CE35D10580
:101F5000B9F778948091523880934B3880915338F8
:101F60008093183880915438809315388091553873
:101F70008093123880915638809319388091573861
:101F8000809316388091583880931338809159384F
:101F900080931A3880915A388093173880915B3833
:101FA0008093143880915C3880934D3880915D38EF
:101FB00080934C3880915E3880934A3880915F38A6
:101FC00080931D388091603880934F3880916138BC
:101FD00080934E3880916238809341388091633885
:101FE00080930B388091643880930C3880916538E9
:101FF00080930A38809166388093103880916738D2
:1020000080931F388091683880938D38809169382B
:102010008093203880916A388093113880916B3892
:102020008093443880916C3880930D3880916D385E
:1020300080930E3880916E3880930F3833C08C2F88
:102040000E94970183E190E0FDDD8C2F86950E9430
:10205000970183E190E0F6DD0E9462018823F1F0B0
:10206000CF5FC03461F760918E3880918D38681BE6
:1020700081E00E949F020E94C302C6E98C2F0E9449
:10208000970184E090E0DEDDC150C1F74ECF8C2F88
:102090000E9497018DE090E0D5DDC150C111F7CFCE
:1020A00044CF789480914F38811180931E3861E03D
:1020B00070E084E995E00E94B10322242394332444
:1020C000339448EE442E43E0542E54E9852E55E0D7
:1020D000952ECC24C394D12C7CEF672E73E0772E01
:1020E0000E9415048091783890917938009751F0CA
:1020F00060917638709177380E940A05109278388E
:1021000010927938809172388823C9F180E00E945A
:10211000970120925201809151018111FCCFF9E584
:10212000F0935001809100068E7F809300060E94FC
:1021300062018111FCCF0E94210180911204816013
:102140008093120410929C38109275381092743853
:1021500080917238811136C022E02093213880911D
:102160001204887F809312040E9448012092520139
:10217000809151018111FCCF81E48093500159DDA0
:102180001092513880918B3890918C38E2E08939E7
:102190009E0709F03DC0CCE7D0E0FE01849180535A
:1021A00082DD8CE291E04EDD2196F0E0C838DF0759
:1021B000A1F7809278389092793810927638109200
:1021C00077388ECF80915000897F84608093500053
:1021D00080915000816080935000889580915000DC
:1021E0008E7F8093500080917438811110927238E4
:1021F00080919C38882329F0309221383092913890
:10220000CEDB80917538882309F4A2CFA6D9A0CF60
:1022100029E08334920781F0E9E08C3F9E0721F0AA
:10222000FAE08B339F0779F520914338213059F537
:1022300020914238222339F180914138823009F4CB
:102240003BC080F4811118C080910A380E94970128
:1022500088E290E0F7DC80E00E94970188E290E05D
:10226000F1DC3ECF833009F03BCF80910A380E94E9
:10227000970180EA90E0EECF80910A380E949701A2
:1022800080E590E0E7CF29E08839920709F055C052
:10229000809140388230B1F1B0F4811140C080911A
:1022A0000A380E94970188E290E0CCDC80E00E942E
:1022B000970188E290E0C6DC80910A380E9497017D
:1022C00088E790E0C7CF833081F0843009F008CFF1
:1022D00080910A380E94970188E290E0B3DC80E0A8
:1022E0000E94970188E290E0ADDC80910A380E945C
:1022F000970188E290E0A6DC80E00E94970188E2E6
:1023000090E0A0DC80910A380E94970188E290E07A
:1023100099DC80E00E94970188E290E093DC809154
:102320000A380E94970188E290E08CDC80E00E94ED
:10233000970188E290E086DCB2CFEBE08C349E0718
:1023400009F0B1C0C0914138C23009F43DC0F8F085
:10235000C43009F0C5CED0910A38DD0FD73908F066
:10236000D6E98D2F0E94970185E090E06BDC80918B
:102370000A380E94970181E490E064DCC15089F73B
:1023800080ED92E05FDC80E00E949701A9CEEC2F07
:10239000F0E0E55FF74CD08186E90E949701C1111A
:1023A0000FC0DA3248F4C3010197F1F780E00E94D0
:1023B00097018D2F90E054CF81E090E043DCF6CF81
:1023C0008D2F869590E0FACF0E946B018F73082FB6
:1023D00010E00E946B0167E0B5D0760102C0EE0C00
:1023E000FF1C9A95E2F70E946B0165E0ABD0E60115
:1023F00002C0CC0FDD1F9A95E2F7CE0DDF1D0E94C3
:102400006B0190E0BE01BED0C80FD91FC739D105FE
:1024100024F0F6E9CF2F20E0D22F8C2F0E949701D5
:10242000C80110DC7E0133E0F594E7943A95E1F7BA
:10243000E11002C0EE24E394F12CC80103DC5E013C
:10244000AE18BF08E501B7FE04C080E0C82FE0E089
:10245000DE2F8C2F0E9497010E946B01837039F44C
:10246000C801F0DBCE01959587950E949701F2E0B7
:10247000AF16B10414F70E946B016DE063D08601C2
:1024800002C0000F111F9A95E2F70E946B01E8014C
:10249000219790E0C823D923C00FD11F80E00E946C
:1024A0009701CE01DDCE25E08A31920751F480916B
:1024B000903816DC80914D3881117BCE88EE93E008
:1024C000CFCEE5E08A339E0721F480918E3808DC78
:1024D000F5CFF8E0843A9F07C1F4809173388111F9
:1024E000FFCD80911E380E94970184E690E0AADB20
:1024F00080E00E94970120911038249DC001259D05
:10250000900D112484569109ABCE8455954049F421
:1025100080E000DC81E0FEDB80E0FCDB80ED97E02A
:102520009FCE80915000897F809350008091500011
:102530008160809350008895809150008E7F8093B9
:102540005000CECD991B79E004C0991F961708F072
:10255000961B881F7A95C9F780950895AA1BBB1B07
:1025600051E107C0AA1FBB1FA617B70710F0A61B93
:10257000B70B881F991F5A95A9F780959095BC01B4
:10258000CD01089597FB072E16F4009406D077FD31
:1025900008D0E4DF07FC05D03EF4909581959F4F6D
:1025A0000895709561957F4F0895A29FB001B39FE4
:1025B000C001A39F700D811D1124911DB29F700D4C
:1025C000811D1124911D089503D0808199270895BC
:1025D000FC01E050FC4E0895262FFADF0080021621
:1025E00011F004D0019701970895262FAF93BF9360
:1025F000E0E0F0E1328131FDFDCFDC01A050BC4EC6
:102600002C932DE924BF23E020830196BF91AF9145
:062610000895F894FFCFCD
:1026160018381538123800010201000000000000C9
:06262600010000000000AD
:10262C00060B1801010101010004412943781E9891
:10263C00020D010705787896010A0A780101412DEF
:02264C00070283
:00000001FF
