:10000000DAC00000F5C00000F3C000000C945A0EE6
:10001000EFC00000EDC00000EBC000000C94520ED9
:10002000E7C00000E5C00000E3C00000E1C0000040
:10003000DFC00000DDC00000DBC00000D9C0000050
:10004000D7C00000D5C00000D3C00000D1C0000060
:100050000C94D40DCDC00000CBC00000C9C000007E
:10006000C7C00000C5C00000C3C00000C1C0000080
:10007000BFC00000BDC00000BBC000003230323342
:1000800030393235303631340000000000000000D5
:100090000000000000000000000000000000000060
:1000A0000000000000000000000000000000000050
:1000B0000000000000000000000000000000000040
:1000C000000000000000000000000001030405071C
:1000D00008090B0C0E0F1113141618191B1D1F21E4
:1000E000232527292B2D30323437393B3E404346D8
:1000F000484B4E5154575A5D606366696D70737713
:100100007A7E8185898D9094989CA0A5A9ADB1B681
:10011000BABFC3C8CDD1D6DBE0E5EAEFF4FAFF0100
:100120000102020303040405060708090A0C0D0E68
:100130000F11131416181A1D1F2224272A2D3033CD
:10014000373B3E42464B4F54595D63686E73797F2F
:10015000868C939AA1A8B0B8C0C8D1D9E2ECF5FFBB
:10016000FFFFFFFFFFFFFFFFFFFFFFFFFFFFFFFF9F
:10017000FFFFFFFFFFFFFFFFFFFFFFFFFFFFFFFF8F
:10018000FFFFFFFFFFFFFFFFFFFFFFFFFFFFFFFF7F
:10019000FFFFFFFFFFFFFFFFFFFFFFFFFFFFFFFF6F
:1001A000FFFFFFFFFFFFFFFFFFFFFFFFFFFFFFFF5F
:1001B000FFFFFFFF000011241FBECFEFCDBFDFE325
:1001C000DEBF18E3A0E0B8E3EEECF2E202C0059077
:1001D0000D92AE31B107D9F728E3AEE1B8E301C023
:1001E0001D92A93CB207E1F70E94610E0C945211D6
:1001F00007CFF89498ED94BF8093610080916300DD
:1002000080FDFCCF78940895E6E9F8E330E020E043
:10021000908191110BC0F901EE0FFF1FE20FF31F48
:10022000EA56F74C80836183728306C02F5F3F4F8D
:1002300033962031310561F70895BC018091C838AB
:10024000E3CF1092C8381092C6381092C73881E0B8
:1002500080934C3808950F931F93CF93C82F02E9D2
:1002600019E0C15020F4CF911F910F91089585E0BE
:10027000C0DFC8010197F1F781E0BBDFF2CFE0E01A
:10028000F6E082858160828780858160808708951D
:10029000CF93DF93C0E0D6E08DE18E8385E58A833E
:1002A0001092933810929438EADFE0EAF0E080810F
:1002B0008061808383E08883888581608887DF917F
:1002C000CF91089582B185FB882780F991E0892735
:1002D00080936C380895E0910638F0910738319694
:1002E000FB70F460E0930638F0930738809168382B
:1002F0008B5A80936838E491809168388E0F089506
:10030000882341F0813061F080E280932104809362
:100310002504089580E280932104809326040895A3
:1003200080E28093220488E0809335040895CF937F
:10033000C82F80936A388093693880916B38811117
:100340000AC091E0C11101C090E081E0C23408F41C
:1003500080E0890FD5DFC1110BC010922A0A1092DC
:100360002B0A1092280A1092290A85E0CF9141CFDA
:100370008FEF8C0F90E0FC01E15EFE4FE491F0E026
:10038000E0932A0AF0932B0AFC01E757FF4FE49110
:10039000F0E0E093280AF093290AC53030F383E0B7
:1003A000CE3020F381E0E2CFCF93DF93CDB7DEB73D
:1003B0002697CDBFDEBF20914638409184385091BA
:1003C0008538475A544009F422E0843041F4609360
:1003D00047382696CDBFDEBFDF91CF9108956623C3
:1003E000C1F3823019F497E9961B692F96E0E8EB88
:1003F000F2EADE01119601900D929A95E1F7815093
:10040000990B880F991FA1E0B0E0AC0FBD1F8A0FB8
:100410009B1FDC01ED91FC91E20FF11D6083D9CFB0
:10042000CF92DF92EF92FF920F931F93CF93DF93C0
:100430009C0150914638E091483882E0E11101C0BA
:10044000852F90E0DC01AC5EB74C4C91409318389E
:100450008F5E974CDC018C9180931738F0E0E25F5F
:10046000F74CC181642F70E0552381F0C13071F4E5
:10047000860F972F911D95958795DF91CF911F91AD
:100480000F91FF90EF90DF90CF90089526173707D8
:100490009CF1821713068CF3511102C0822FEDCF0D
:1004A000841B6C2F6150770B8B01E82EF12CC70158
:1004B0000E940511609344386695E62FF0E0842F82
:1004C000D12CC12CD0E0DC17C1F2C601B8010E94CA
:1004D000F110842F860FA82FB0E0B9016A1B7B0BA7
:1004E00077FF03C0BD01621B730BCE0CDF1CE61748
:1004F000F7071CF6DF5FE7CF842FBFCF80934B3821
:1005000016CFCF93C0916A3889E18C0F873908F0F4
:1005100080E00DDF82E09FDE8C2FCF9108CFCF935C
:10052000C0916A3880E003DF83E095DE8C2FCF91A5
:10053000FECE81E00895611160931C380895662312
:1005400069F0813099F48091863890918738891BC1
:10055000680F6093863882E080931D3880911B3845
:10056000873418F086E480931B380895635E6093A7
:100570001B38F4CF60933F380895E82FF0E0E85F30
:10058000F74C608308950F931F93CF93DF9380916F
:10059000463880934D388091143880934E3880913E
:1005A000113880934F3880910E3880935038809165
:1005B0001538809351388091123880935238809149
:1005C0000F38809353388091163880935438809137
:1005D0001338809355388091103880935638809125
:1005E00048388093573880914738809358388091A5
:1005F0004538809359388091193880935A388091C2
:100600004A3880935B388091493880935C38809178
:10061000083880935E3880910C3880935F388091E1
:100620001B38809360388091863880936138809140
:100630001C388093623880910D38809363388091A4
:100640003F38809364388091093880936538809171
:100650000A388093663880910B3880936738F89415
:100660000DE418E3C1E4D0E0F80161918F01CE01FF
:100670000E9435112196CC35D105B1F765EA80E4A9
:1006800090E00E9435117894DF91CF911F910F91E6
:100690000895813019F410924A380895823019F47F
:1006A000609349380895833019F46093453808956C
:1006B000843011F4609319380895E62F90918938A9
:1006C0009D3130F480E280932104809326040895C4
:1006D000913228F4E695E170E3508E2311CE982FE5
:1006E0009F709330D8F3EF70F0E0E254FD458081C5
:1006F000F5CFFF920F931F93CF93DF938C01D62FEB
:10070000C72FF42E8091843890918538892B31F051
:10071000E0918438F091853889E009950093843818
:1007200010938538012B41F0E0918438F0918538A1
:100730006D2F7C2F8F2D099581E080934C38DF91B0
:10074000CF911F910F91FF90089520917338283019
:1007500080F4E22FF0E0EE0FFF1FEC58F74C80839F
:1007600091832F5F2093733848E0C3DF8091733803
:1007700008958FEF0895282FCB013091483831111B
:1007800047C0283039F41092433810924038109204
:1007900041380895213B59F480914338815083308A
:1007A000B8F583E080934338809342380895253B21
:1007B000A1F46EE370E00E94F110892B49F580915D
:1007C00043388A3F28F58B5F8093433880934238C3
:1007D000109240381092413894CE2130C9F4809163
:1007E000403890914138019688382EE0920728F4DD
:1007F0008093403890934138089510924038109279
:10080000413880914338882319F0815080934338D0
:100810000895EF92FF921F93CF93DF931091963834
:10082000111106C0DF91CF911F91FF90EF900895B5
:10083000E0909738F0909838C0917338C1500C2EE2
:10084000000CDD0BC7FD0EC0FE01EE0FFF1FEC58C4
:10085000F74C0190F081E02DB701812F0995219788
:100860008111F0CFE6E9F8E383818083848195816B
:1008700081839283339688E3E33CF807A9F71092CB
:10088000C3381092C4381092C538C8CF80917338DD
:10089000882319F0815080937338E091733890E089
:1008A00080E0EE2341F0E150FF0BEE0FFF1FEC580C
:1008B000F74C808191814AE070E060E01ACF582FB8
:1008C000CB01F901583089F41092233880E02FDDF4
:1008D00080916C3881111DC081E08093233870E0D5
:1008E00060E08FEB94E031DF14C0252F207F203BA8
:1008F000B9F420912338421788F06DE570E00E942A
:10090000F110029741F42F5F2093233888E34217B8
:1009100018F480E0089582E10ADDFBCF80E0FCCF8F
:10092000203E41F480912338882311F04817B8F60F
:10093000ADDFEFCF5A3069F760913B3880912338B3
:10094000099521DEF5CF24ED31E043E0B8CF24ED69
:1009500031E044E0B4CF29E433E044E0B0CF2BE908
:1009600032E041E0ACCF2FE932E042E0A8CF2AEB01
:1009700032E041E0A4CF2DEB32E043E0A0CF88305D
:1009800039F410923B381092223880E0D0DC0CC051
:100990008130F9F490912238911108C060327105CC
:1009A00018F0809322384DDC80E00895913079F47E
:1009B0006B3B710520F082E080932238E6CF611511
:1009C000710591F3862F880F84708E5EDFCF5EDF16
:1009D000EBCF813811F0813E39F791E090932238C6
:1009E000813E41F480913B38865F80933B3829DC1F
:1009F0008BE4CCCF80913B388F5FF7CF0F931F9361
:100A0000CF93DF93D82FC92F8B0140DFB8018D2FF3
:100A10009C2FDF91CF911F910F9197CECF93C091D3
:100A20004838C11119C0813C41F470E060E080E8B1
:100A300095E0E4DF8C2FCF910895823C29F470E09B
:100A400060E08EE295E0F5CF873B31F470E060E046
:100A50008FEA94E07ADEEECFC1E0ECCF813C39F44E
:100A600070E060E080E895E0C9DF80E00895823CB6
:100A700029F470E060E08DE898E0F6CF873B31F430
:100A800070E060E083EB94E060DEEFCF81E00895FA
:100A9000813C39F470E060E080E895E0AFDF80E011
:100AA0000895823C29F470E060E08EE095E0F6CF96
:100AB00081E00895843011F58091843890918538D3
:100AC00029E08A3C920731F469E170E08CE596E018
:100AD00095DF0DC08C55964061F490916A38923044
:100AE00040F0892F869596959695890F07DD80E0D1
:100AF000089570E060E080E895E0EACF81E0089535
:100B00000F931F93CF938B01883081F480E00FDC2B
:100B100010924338012B31F0C0E08C2FCF911F9100
:100B20000F91089581E080936B38F6CF813021F4E6
:100B30006931710588F3F7CF833051F580914A38D8
:100B4000882371F09091493842EC51E0949F9001D4
:100B5000959F300D11246217730710F080931A3897
:100B600080910D38602F8370A8DD80913F388823F5
:100B700099F242EC51E0849F9001859F300D112441
:100B80002017310748F670E060E086EB98E016C069
:100B9000813BB1F481E090E043DCC9DB80914538D2
:100BA0008111BACF80914638811104C008311105F6
:100BB00008F4B2CF61E070E08CE596E01FDFACCFC7
:100BC000813EC1F3813831F480911A3890E028DCFD
:100BD000AEDBA2CF813C21F460916A3870E0ECCFAB
:100BE000823B71F48091193890914838911180912D
:100BF0004738811103C086E990E0E9CF86E9E8CF64
:100C0000823E11F480E0E4CF8339E1F3833C29F4A0
:100C100070E060E08EE095E0D1CF843C11F471DCAF
:100C2000B2CF8F3C29F470E060E089E992E0C6CF52
:100C3000C09148388A3B81F4672B09F03BC0CC2334
:100C400029F05FDC109248389EDC66CF70E060E0EF
:100C500087EA94E07ADD61CFC1112CC08A3C31F47F
:100C600050DC81E0809348388EDC57CF823C31F4F1
:100C700070E060E08AEC99E0C1DE4FCF853C31F452
:100C800040DC70E060E081E39BE0F6CF863C31F42D
:100C900038DC70E060E08BE79BE0EECF873C51F4FE
:100CA00090910D3881E0890F83709C7F892B809310
:100CB0000D38DACFC1E031CF9F92AF92BF92CF9281
:100CC000DF92EF92FF920F931F93CF93DF93C82F82
:100CD0008B01B0901838E0901738C090463890904B
:100CE0004438C11002C099249394D0901938D091FF
:100CF0004838D111D0904738DD2009F441C031E0A7
:100D0000D31621F080911A388E15D0F1F6E9FF2E16
:100D1000A0904338B8018C2F2EDD20914338222338
:100D200009F4F2C1A11004C080916A38809326387A
:100D30008C2F8D7F883031F510923E38CA3019F4EF
:100D400000911A3810E0B016110630F4E0161106C2
:100D500019F010F000931A38C80162DBCFDB81E094
:100D600080930538D0E08D2FDF91CF911F910F91A7
:100D7000FF90EF90DF90CF90BF90AF909F9008953D
:100D8000FE2CC6CFC13C09F4C2C1C23C71F48091B3
:100D90006A388F1538F48F2DB1DB80916A388093D3
:100DA0002638E0CF80911A38F7CFC43C39F480E080
:100DB000BEDA70E060E086EB98E0ADC18FE48C0FA6
:100DC000823008F04FC060910E3870E0C801CC202E
:100DD00011F068E170E00E94F110892B19F69091F2
:100DE0006A3801151105C9F4C23B89F48FEF80936D
:100DF000053820910538492D2403C0011124209184
:100E00006A38820F911D0CDB80931A38C5CF9E156E
:100E100068F7B91670F381E0EACF80910E38682F39
:100E200070E046E351E0849F9001859F300D1124CE
:100E30002017310710F49E15C8F64CE652E0649F67
:100E40009001659F300D749F300D112420173107DC
:100E500080F6B91670F255DB70E060E086EB98E042
:100E6000CDDDC7CF8FE18C0F823020F48091053823
:100E7000819576CFC13009F0C6C00932110511F451
:100E8000C09305382223A9F0409126382150330B16
:100E9000429FC001439F900D11246091423870E041
:100EA0000E940511611101C061E06093693860938F
:100EB0004B38C091693820916A38EC2FE21BFF0B48
:100EC000CF0160912438709125386F5F7F4F609318
:100ED000243870932538309709F444CF40E052E02D
:100EE000F7FF06C040E450E0233810F440E051E042
:100EF0005695479597FD0196959587950097C1F76B
:100F00004617570708F02ECF8FEFC21720F08C2F0F
:100F10002C1710F481E0820F3FEF380F432F50E081
:100F2000BA01615E7E4FFB019491321750F420911B
:100F30002A0A30912B0A232B21F42FEF30E09F3F18
:100F400081F0E0912A0AF0912B0A292F30E0E21774
:100F5000F30708F03BC020912A0A30912B0A2F5F3B
:100F60003F4F20932A0A30932B0A9A0127573F4F6D
:100F7000F9014491E091280AF091290A50E0E41720
:100F8000F50798F54091280A5091290A4F5F5F4F65
:100F90004093280A5093290A40912A0A50912B0A1B
:100FA000FB0164916417150661F44091280A509181
:100FB000290AF90124912417150619F4B8D9C09308
:100FC00069381092243810922538CCCEE0912A0A44
:100FD000F0912B0A2E173F0708F0C7CF20912A0A5D
:100FE00030912B0A21503109BCCFE091280AF091B1
:100FF000290A4E175F0780F64091280A5091290A66
:1010000041505109C5CFC530A9F480916A38823466
:1010100008F4A8CE90E0801B910B282F8134910515
:101020003CF08739910508F026E9209369389ACE7B
:1010300021E4FBCFC630B1F490916A3880914B38EF
:10104000981708F08FCE090F111D90E080179107B7
:1010500034F0C8010134110514F481E490E0809368
:10106000693880CEC73069F49091693880916A38C8
:10107000891710F48F5FF3CF981708F073CE815063
:10108000EECFC33C59F481E0C11080E08093463834
:101090007ADA45DA80916A3890E0B5CED11132C063
:1010A000C33B51F4012B09F05DCEDD2011F086E940
:1010B000F82E8F2D23DA57CEC33E19F480911A38BB
:1010C000F9CFC53C41F480E032D970E060E081E3C3
:1010D0009BE094DC48CE70E060E083EA94E0C73B9C
:1010E00079F0CA3C39F480916A3880934A384BDAF7
:1010F00008DA39CECA3B31F470E060E08BEA94E064
:1011000024DB31CED1E02FCEAA2009F411CE70E03D
:1011100060E080E895E072DC25CE282FCB01213CF1
:1011200039F470E060E080E895E068DC80E00895E4
:10113000223C29F470E060E088E495E0F6CF213BA2
:1011400041F46EE370E00E94F110892B79F7D9D950
:10115000EDCF213E49F46EE370E00E94F1106F5F25
:1011600060930C3810DAE2CF81E00895CF93DF93DB
:10117000D82F80798039F1F4909114382091153866
:101180008D2F8F70823049F480914A38811108C0C8
:10119000822F291728F4892F03C0822F9217D8F3A2
:1011A000C6D8D33CE1F4ADD970E060E080E895E0CA
:1011B00025DC0BC0803811F480E0F2CFD13039F457
:1011C0006931710510F0D0936B38C0E016C0D33090
:1011D00041F780910D38869586956FDAF6CFD43C2D
:1011E00081F4C0914A386C2F70E0C11111C0609138
:1011F0001A3870E08CE596E001DC8C2FDF91CF91FE
:101200000895D43B41F48BD91092C83861E070E066
:101210008CE596E0CDCFD53C19F466E970E0F8CFC7
:10122000C0914838C11116C0DA3B31F470E060E07B
:1012300087EB94E08ADAE1CFD73C61F490910D38E6
:10124000892F8C7F8C5F8C709370892B80930D38E5
:101250009AD9D3CFC1E0D1CF0F931F93CF931092E0
:101260006E388091C6389091C7389C012F5F3F4FF0
:1012700088279078822B932B8093C6389093C73819
:10128000C0916C381FD8C817B9F010926B38809392
:101290006C389091C8388823B9F1892F80699F7084
:1012A0009F3081F58093C83890E080E00E941D0156
:1012B0001092C6381092C7380091C6381091C738BE
:1012C00080916B38882371F1B80183E00E9404019A
:1012D000A0DA0F731127012B89F4109227380E948E
:1012E0004801C0912738C11105C00E943F0181E02B
:1012F00080938A38CF5FCF71C0932738CF911F91E9
:101300000F9108958F5FCECF892F8F7E95FD08C0F6
:1013100080688093C8388091C6389091C738C6CF0E
:10132000806CF7CFC091C8388C2F807F803B49F408
:1013300070E060E081E00E940401C8010E941D018C
:10134000D0CFB80181E00E940401C4FF0FC0C5FDE9
:10135000F4CF0831110528F21092C6381092C73820
:10136000C062C093C83890E080E0E8CFCC2309F495
:10137000B8CFC5FF03C00E942101B3CF02311105D0
:1013800008F4AFCFC064C093C83890E080E00E94FA
:101390001D01F1CFDF92EF92FF920F931F93CF9336
:1013A000DF93C82F8B01D0913C3881E080933E3889
:1013B000D1110FC0F09043388C2FDDD9FF20A1F060
:1013C00080914338811110C070E060E080E895E0C2
:1013D00015DBC83071F0C13C09F0FEC070E060E080
:1013E00080E895E00BDB08C0C83041F481E08093D1
:1013F000033881E08093043880E025C1C23C61F469
:10140000109243388D2F90E00196837099278F5F5B
:1014100080933C38B8D8F0CFC13BC1F480910238FA
:10142000012B41F49FEF8E3618F4823018F491E0CE
:101430009093033890910338890F21F481E08093D1
:101440000238D8C08F36D8F38EE6F9CFC13E59F4B2
:101450008091033881958093033880910438819579
:1014600080930438D7CFC23BB9F481E0809303382E
:1014700080910238823018F081508093023881E0E8
:1014800080930438D13009F0B7CF80910838833089
:1014900008F4BAC08150B6C0C13009F0DCC00932CE
:1014A000110511F4C0930338E09021388E2D880F78
:1014B000E7FC809527E0829FC0011124F09020383E
:1014C0002F2D220FF7FC2095D09101382D9F9001F0
:1014D0001124232F290FD0901F388D2D880FD7FC72
:1014E0008095C09100388C9FC0011124290F8091F4
:1014F0000238280F3327331F809143388130B9F4E5
:10150000809140389091413845E0969587954A956D
:10151000E1F764E770E0AB01481B590B429FC00143
:10152000439F900D529F900D11245BD69B01822FFB
:101530000E94970100FD06C00E946B0181708E0D14
:101540008093213880911E38F80EF09220380E9446
:101550006B0165E23AD69D0D90931F380E946B0196
:101560008F7331F40E946B016DE02FD690931E387B
:10157000DD2339F00E946B018F7319F4D150D093A1
:1015800001380E946B01811108C00E946B016BE061
:101590001CD69093013810922038C33038F00E9446
:1015A0006B018F7119F4C150C09300380E946B0118
:1015B0008F7731F40E946B0166E007D69093003874
:1015C0000932110519F481E080930438809168385C
:1015D000080F0093683810CFC23C09F413CFC33C06
:1015E00039F48D2F90E00196837099278C5F10CF8E
:1015F000C13B99F48091083890910438890F82306A
:1016000040F482E080930838809108380E94970166
:10161000F3CE8937B8F388E7F5CFC13E09F41DCF83
:10162000C23B09F42CCFC23E09F4F4CEC53C39F4D8
:1016300070E060E081E39BE0E1D980E0E7CF81E00A
:10164000C13009F4BDCFDF91CF911F910F91FF9071
:10165000EF90DF900895C13C09F4C0CEC33C19F768
:10166000C0CF0F931F93CF93DF93D82F8B01883078
:1016700031F480913E38882311F088E08BDE8D2F85
:101680008079803999F481E080933D38C0913E386B
:10169000CC2311F0C0E004C080911A380E94970159
:1016A0008C2FDF91CF911F910F910895803831F4E5
:1016B00010923D3880E00E949701ECCFC1E0D1301C
:1016C00079F7C0913D38CC2359F080913E3888237A
:1016D00009F3B80181E0DF91CF911F910F915ACEAC
:1016E00007331140B8F2D0936B3880E28093210425
:1016F00080932604D5CFFF920F931F93CF93DF9350
:10170000C82F8B01F0901A388079803909F041C0D8
:10171000DC2FDC7001F110923D38D0E080913D3833
:10172000882319F0B8018C2F9CDFF0921A38C8304A
:1017300059F0C130B9F5D0913D38D11146C00931C9
:10174000110510F0C0936B388D2FDF91CF911F9151
:101750000F91FF90089591E090933D38EC2FEF703A
:10176000F0E0E85FF74C80812FEF280F263928F44E
:1017700080931A3810923E38D1CF90933E388739F3
:1017800060F28759990B69E070E02BD580933C3863
:10179000C5CF803829F410923D3880E00E9497012F
:1017A000D1E0BCCFC33041F4B80183E0DF91CF91E9
:1017B0001F910F91FF90DACCC63C49F40E94810240
:1017C00070E060E080E895E019D9D0E0BDCFC73B7C
:1017D00009F0BACF70E060E08BEB94E00E94A503C3
:1017E000F4CF109295389091100680916838890F47
:1017F0008093683880918A38882309F456C0109203
:101800008A389091933880916B38882339F0809191
:1018100000068E7F809300061092933891114FC07E
:1018200080911D3860918B3870918C38882341F0FD
:1018300060918F387091903860938B3870938C38AA
:10184000605F7F4F86E0769567958A95E1F780E047
:1018500098E5C7D480911C388250990B680F791F86
:10186000769567956093893880913A388823F1F0AE
:10187000815080933A3880916B3881110DC08EE190
:101880008093060685E48093020681E08093933876
:10189000109294380E943F0180911D38882329F0CE
:1018A00080911D38815080931D3808956D3118F74F
:1018B00070E060E084E00E94040185E0DACF9130BE
:1018C00059F780911D38811164C080918D389091B5
:1018D0008E3840969C0145E0369527954A95E1F76C
:1018E000E091863856E0969587955A95E1F70E2E49
:1018F000000CFF0BAF0143515140840F951F8093A3
:1019000087389093883880912938A82FB0E0AA0FA3
:10191000BB1FA65DB74C4D915C911197B901641B3B
:10192000750BAB012D933C938F5F877080932938A3
:10193000660F771F660F771F80911B3890E08D5ED2
:101940009E4F8E1B9F0B880F991F681B790B620F90
:10195000731F83E0161617060CF04AC06150710918
:101960008150C1F7161617060CF05DC057FD7AC0FE
:101970008091283818160CF042C0861B80932838B6
:101980008DE18093060685E58093020610929338D8
:101990007FCF809191389091923880938D38909339
:1019A0008E38409635E0969587953A95E1F7809385
:1019B0002A3890932B3880932C3890932D3880932D
:1019C0002E3890932F38809330389093313880930D
:1019D00032389093333880933438909335388093ED
:1019E00036389093373880933838909339386DCFA4
:1019F0006115710509F4B4CF6F5F7F4FB1CF660FEA
:101A0000771F6530710564F06350710975956795AE
:101A100088E1861B8093283885E00E940401B0CFBE
:101A200061E070E0F5CF6C3F8FEF7807DCF457FF93
:101A300019C08091283887FF02C084509ECF84EE61
:101A4000861B80932838809189388F3108F498CF8D
:101A50008CEF9FEF9C01261B370BB901759567959D
:101A600086E0DBCF809189388E3108F489CF70E031
:101A700060E087E0D2CF809195388111B2DE80910D
:101A80006E388111E9CB0895EF92FF920F931F9367
:101A9000CF93DF93EC010AEC18E082E3E82E82E0BA
:101AA000F82E209739F4DF91CF911F910F91FF907D
:101AB000EF90089580914C388111F5CF80916A386C
:101AC000853070F485E00E94F900C7010197F1F7B5
:101AD00081E00E94F900CFDF0E9409042197E1CF45
:101AE00081E00E94F900C801F1CF0F931F93CF93BB
:101AF000C82F06EA811102C008E0C1E010E089E1C8
:101B00000E949701C801C0DF80E00E9497018AEF20
:101B100090E0BADFC15099F78AE992E0CF911F9126
:101B20000F91B2CFCF93DF93282F64E64ED3382F97
:101B3000C92F892F6AE049D3D92F243650F0832F3B
:101B4000D4DF8C2F6AE041D3D0DF8D2FDF91CF918E
:101B5000CCCFCA30B0F7F9CFCF93DF93D82FC3E003
:101B600080911A380E94970188EC90E08DDFDD2388
:101B700019F080E991E088DF80E00E94970188EC0D
:101B800090E082DFC15061F7DF91CF91089580919D
:101B900008380E94970188EC90E076DF80E00E9490
:101BA000970184E690E070CF0F920FB60F921F92CC
:101BB00011242F933F934F935F936F937F938F9352
:101BC0009F93AF93BF93EF93FF93CF93DF9300D097
:101BD00000D0CDB7DEB781E080930B0680919438BA
:101BE000882309F441C0E0919338E13009F055C0F1
:101BF00080912111A09120112091100630911106A1
:101C0000281B310987FD3395B0E018D369837A83A7
:101C10008B839C83DC01CB0180589F4FAF4FBF4F1C
:101C2000892F9A2FAB2FBB2726E0880F991F2A9563
:101C3000E1F7F0E0EE0FFF1FDF01A157B74C8D93E6
:101C40009C93E557F74C208131812817390710F410
:101C50002F5F3F4F8217930710F4215031092083E3
:101C6000318381E08093953881E080939438249685
:101C7000CDBFDEBFDF91CF91FF91EF91BF91AF91CB
:101C80009F918F917F916F915F914F913F912F9194
:101C90001F900F900FBE0F90189580911006909195
:101CA0001106C2CF8F9381E08093530180936E38E9
:101CB0008F9118958F931D9A81E080936D388F9145
:101CC0001895F89480914000877F8093400088EDBC
:101CD000A89584BF90910001907F9093000121E02E
:101CE00030E084BF2093610083E284B988E0809370
:101CF0001004809311048093120480931304809342
:101D0000140499E0909315048093160480931704AB
:101D1000809332048093330480933404809350047E
:101D200080935104809352048093530487E38093FB
:101D3000010A8FEF90E08093260A9093270A91E0A2
:101D40009093000A80911204816080931204909312
:101D50005201C0915101C111FCCF81E48093500127
:101D60000E944801789481E00E942B0170E060E0BD
:101D70008AE595E00E94A50310924C380E948102EA
:101D80000E94620181117EC0F89480E490E065D2E7
:101D9000853A09F0A9C00DE418E3C1E4D0E0CE0112
:101DA0005CD2F80181938F012196CC35D105B9F72A
:101DB000789480914D388093463880914E38809346
:101DC000143880914F388093113880915038809327
:101DD0000E38809151388093153880915238809315
:101DE00012388091533880930F3880915438809303
:101DF00016388091553880931338809156388093E7
:101E000010388091573880934838809158388093A3
:101E10004738809159388093453880915A3880935B
:101E2000193880915B3880934A3880915C38809370
:101E3000493880915E388093083880915F3880936C
:101E40000C388091603880931B3880916138809382
:101E500086388091623880931C38809163388093F3
:101E60000D388091643880933F3880916538809335
:101E700009388091663880930A388091673880935A
:101E80000B3833C08C2F0E94970183E190E0FCDD7A
:101E90008C2F86950E94970183E190E0F5DD0E94EA
:101EA00062018823F1F0CF5FC03461F76091873819
:101EB00080918638681B81E00E949F020E94C302C5
:101EC000C6E98C2F0E94970184E090E0DDDDC150CF
:101ED000C1F75ACF8C2F0E9497018DE090E0D4DD9E
:101EE000C150C111F7CF50CF789480914A388111F9
:101EF00080931A3861E070E080E895E00E94A503C5
:101F0000FF24F39499E5D92E22E0C22E31E4B32EBA
:101F1000EE24E39408EE13E0C0E8D5E00E94090443
:101F20008091713890917238009751F060916F38BC
:101F3000709170380E94FE041092713810927238BD
:101F400080916B388823B1F180E00E949701F09274
:101F50005201809151018111FCCFD09250018091AA
:101F600000068E7F809300060E9462018111FCCFE3
:101F70000E942101809112048160809312041092CA
:101F8000953810926E3810926D3880916B388111AF
:101F900039C0C0921D3880911204887F809312044A
:101FA0000E944801F0925201809151018111FCCFB1
:101FB000B092500160DD10924C388091843890913D
:101FC0008538F2E089399F0709F042C08CE7882EF6
:101FD00080E0982EF4018491805387DD8CE291E0BB
:101FE00053DDFFEF8F1A9F0A28E8821620E0920641
:101FF00089F7C0937138D093723810926F3810926D
:1020000070388CCF80915000897F8460809350001D
:10201000809150008160809350008895809150009D
:102020008E7F8093500080916D38811110926B38B3
:1020300080919538882329F0E0921D38E0928A3803
:10204000D0DB80916E38882309F49FCF05D99DCFCE
:10205000E9E08A3C9E0799F0FBE081339F0729F075
:102060002BE08B37920709F061C020913E38213078
:1020700009F05CC020913D38222309F457C0E0915B
:102080003C38E150E83008F049CFF0E0EC5AFE4E21
:10209000CFC07DDD43CF7BDD41CF809108380E94EA
:1020A000970180E991E0F0DC80E00E94970184E6EE
:1020B00090E0EADC33CF809108380E94970184E6F3
:1020C00090E0E2DC80E00E94970184E690E0DCDCB6
:1020D000809108380E94970184E690E0D5DC80E08A
:1020E0000E94970184E690E0CFDC809108380E943E
:1020F000970184E690E0C8DC80E00E94970184E6C6
:1021000090E0C2DC809108380E94970184E690E05C
:10211000BBDC80E00E94970184E690E0B5DC809112
:1021200008380E9497018CE291E0BDCFE5E08E3047
:102130009E0751F480918938F5DC809148388111EF
:1021400058CF88EE93E0B5CFF5E08E329F0721F4AB
:1021500080918738E7DCF5CF28E08D389207C1F40D
:1021600080916C388111DACE80911A380E949701E3
:1021700084E690E089DC80E00E94970120910C3891
:10218000209FC001219F900D11248456910991CF69
:102190008854954049F480E0DFDC81E0DDDC80E0BC
:1021A000DBDC80ED97E085CF80915000897F8093C4
:1021B00050008091500081608093500088958091FC
:1021C00050008E7F80935000A9CE991B79E004C007
:1021D000991F961708F0961B881F7A95C9F7809566
:1021E0000895AA1BBB1B51E107C0AA1FBB1FA6175E
:1021F000B70710F0A61BB70B881F991F5A95A9F7B0
:1022000080959095BC01CD01089597FB072E16F49B
:10221000009406D077FD08D0E4DF07FC05D03EF43B
:10222000909581959F4F0895709561957F4F089582
:10223000EE0FFF1F0590F491E02D0994A29FB001CD
:10224000B39FC001A39F700D811D1124911DB29FEA
:10225000700D811D1124911D089503D0808199274F
:102260000895FC01E050FC4E0895262FFADF00800F
:10227000021611F004D0019701970895262FAF930D
:10228000BF93E0E0F0E1328131FDFDCFDC01A050F1
:10229000BC4E2C932DE924BF23E020830196BF91EF
:1022A000AF910895F894FFCF49104B108F104D1047
:0822B0008210751068105B102C
:1022B800143811380E380001020100000000000037
:0622C8000100000000000F
:1022CE00060B18010101000441781E98020D01074A
:0E22DE0005787896010A0A780101412D070261
:00000001FF
