:10000000DAC00000F5C00000F3C000000C947F0EC1
:10001000EFC00000EDC00000EBC000000C94770EB4
:10002000E7C00000E5C00000E3C00000E1C0000040
:10003000DFC00000DDC00000DBC00000D9C0000050
:10004000D7C00000D5C00000D3C00000D1C0000060
:100050000C94F90DCDC00000CBC00000C9C0000059
:10006000C7C00000C5C00000C3C00000C1C0000080
:10007000BFC00000BDC00000BBC000003230323342
:1000800030383233303631340000000000000000D8
:100090000000000000000000000000000000000060
:1000A0000000000000000000000000000000000050
:1000B0000000000000000000000000000000000040
:1000C000000000000000000000000001030405071C
:1000D00008090B0C0E0F1113141618191B1D1F21E4
:1000E000232527292B2D30323437393B3E404346D8
:1000F000484B4E5154575A5D606366696D70737713
:100100007A7E8185898D9094989CA0A5A9ADB1B681
:10011000BABFC3C8CDD1D6DBE0E5EAEFF4FAFF0100
:100120000102020303040405060708090A0C0D0E68
:100130000F11131416181A1D1F2224272A2D3033CD
:10014000373B3E42464B4F54595D63686E73797F2F
:10015000868C939AA1A8B0B8C0C8D1D9E2ECF5FFBB
:10016000FFFFFFFFFFFFFFFFFFFFFFFFFFFFFFFF9F
:10017000FFFFFFFFFFFFFFFFFFFFFFFFFFFFFFFF8F
:10018000FFFFFFFFFFFFFFFFFFFFFFFFFFFFFFFF7F
:10019000FFFFFFFFFFFFFFFFFFFFFFFFFFFFFFFF6F
:1001A000FFFFFFFFFFFFFFFFFFFFFFFFFFFFFFFF5F
:1001B000FFFFFFFF000011241FBECFEFCDBFDFE325
:1001C000DEBF18E3A0E0B8E3E0EDF3E202C0059083
:1001D0000D92A232B107D9F728E3A2E2B8E301C039
:1001E0001D92AD3CB207E1F70E94860E0C94DB1124
:1001F00007CFF89498ED94BF8093610080916300DD
:1002000080FDFCCF78940895EAE9F8E330E020E03F
:10021000908191110BC0F901EE0FFF1FE20FF31F48
:10022000E656F74C80836183728306C02F5F3F4F91
:1002300033962031310561F70895BC018091CC38A7
:10024000E3CF1092CC381092CA381092CB3881E0AC
:1002500080934E3808950F931F93CF93C82F02E9D0
:1002600019E0C15020F4CF911F910F91089585E0BE
:10027000C0DFC8010197F1F781E0BBDFF2CFE0E01A
:10028000F6E082858160828780858160808708951D
:10029000CF93DF93C0E0D6E08DE18E8385E58A833E
:1002A0001092973810929838EADFE0EAF0E0808107
:1002B0008061808383E08883888581608887DF917F
:1002C000CF91089582B185FB882780F991E0892735
:1002D000809370380895E0910638F0910738319690
:1002E000FB70F460E0930638F093073880916C3827
:1002F0008B5A80936C38E49180916C388E0F0895FE
:10030000882341F0813061F080E280932104809362
:100310002504089580E280932104809326040895A3
:1003200080E28093220488E0809335040895CF937F
:10033000C82F80936E3880936D3880916F3881110B
:100340000AC091E0C11101C090E081E0C23408F41C
:1003500080E0890FD5DFC1110BC010922A0A1092DC
:100360002B0A1092280A1092290A85E0CF9141CFDA
:100370008FEF8C0F90E0FC01E15EFE4FE491F0E026
:10038000E0932A0AF0932B0AFC01E757FF4FE49110
:10039000F0E0E093280AF093290AC53030F383E0B7
:1003A000CE3020F381E0E2CFCF93DF93CDB7DEB73D
:1003B0002697CDBFDEBF20914938409188385091B3
:1003C0008938435B544009F422E0843041F460935F
:1003D0004A382696CDBFDEBFDF91CF9108956623C0
:1003E000C1F3823019F497E9961B692F96E0EAEB86
:1003F000F3EADE01119601900D929A95E1F7815092
:10040000990B880F991FA1E0B0E0AC0FBD1F8A0FB8
:100410009B1FDC01ED91FC91E20FF11D6083D9CFB0
:10042000CF92DF92EF92FF920F931F93CF93DF93C0
:100430009C0150914938E0911D3882E0E11101C0E2
:10044000852F90E0DC01A95EB74C4C9140931B389E
:100450008C5E974CDC018C9180931A38F0E0EF5E53
:10046000F74CC181642F70E0552381F0C13071F4E5
:10047000860F972F911D95958795DF91CF911F91AD
:100480000F91FF90EF90DF90CF90089526173707D8
:100490009CF1821713068CF3511102C0822FEDCF0D
:1004A000841B6C2F6150770B8B01E82EF12CC70158
:1004B0000E949411609347386695E62FF0E0842FF0
:1004C000D12CC12CD0E0DC17C1F2C601B8010E94CA
:1004D0008011842F860FA82FB0E0B9016A1B7B0B17
:1004E00077FF03C0BD01621B730BCE0CDF1CE61748
:1004F000F7071CF6DF5FE7CF842FBFCF80934D381F
:1005000016CFCF93C0916E3889E18C0F873908F0F0
:1005100080E00DDF82E09FDE8C2FCF9108CFCF935C
:10052000C0916E3880E003DF83E095DE8C2FCF91A1
:10053000FECE81E00895611160932038089566230E
:1005400069F0813099F480918A3890918B38891BB9
:10055000680F60938A3882E08093213880911F3839
:10056000873418F086E480931F380895635E6093A3
:100570001F38F4CF609342380895E82FF0E0E55F2C
:10058000F74C608308950F931F93CF93DF9380916F
:10059000493880934F388091173880935038809134
:1005A000143880935138809111388093523880915B
:1005B000183880935338809115388093543880913F
:1005C000123880935538809119388093563880912D
:1005D000163880935738809113388093583880911B
:1005E0001D388093593880914A3880935A388091C9
:1005F000483880935B3880911C3880935C388091B8
:100600004C3880935D3880914B3880935E38809170
:100610000B3880935F3880910938809360388091DF
:100620000A388093613880910838809362388091CD
:100630000F388093633880911F388093643880919D
:100640008A3880936538809120388093663880910D
:100650001038809367388091423880936838809151
:100660000C388093693880910D3880936A38809176
:100670000E3880936B38F8940FE418E3C1E4D0E0AF
:10068000F80161918F01CE010E94BE112196CE35F5
:10069000D105B1F765EA80E490E00E94BE1178943C
:1006A000DF91CF911F910F910895813019F410922D
:1006B0004C380895823019F460934B380895833094
:1006C00019F4609348380895843011F460931C380D
:1006D0000895E62F90918D389D3130F480E280931B
:1006E0002104809326040895913228F4E695E17060
:1006F000E3508E2305CE982F9F709330D8F3EF7080
:10070000F0E0E054FC458081F5CFFF920F931F93FA
:10071000CF93DF938C01D62FC72FF42E809188388A
:1007200090918938892B31F0E0918838F09189389F
:1007300089E009950093883810938938012B41F09E
:10074000E0918838F09189386D2F7C2F8F2D099595
:1007500081E080934E38DF91CF911F910F91FF90F0
:10076000089520917738283080F4E22FF0E0EE0FE2
:10077000FF1FE858F74C808391832F5F20937738D1
:1007800048E0C3DF8091773808958FEF0895282FD0
:10079000CB0130911D38311147C0283039F4109207
:1007A000463810924338109244380895213B59F44A
:1007B0008091463881508330B8F583E08093463885
:1007C000809345380895253BA1F46EE370E00E94C4
:1007D0008011892B49F5809146388A3F28F58B5F37
:1007E00080934638809345381092433810924438AD
:1007F00088CE2130C9F480914338909144380196D5
:1008000088382EE0920728F4809343389093443838
:1008100008951092433810924438809146388823C6
:1008200019F08150809346380895EF92FF921F93FC
:10083000CF93DF9310919A38111106C0DF91CF91B9
:100840001F91FF90EF900895E0909B38F0909C38B6
:10085000C0917738C1500C2E000CDD0BC7FD0EC0C7
:10086000FE01EE0FFF1FE858F74C0190F081E02DDC
:10087000B701812F099521978111F0CFEAE9F8E3BB
:10088000838180838481958181839283339688E3F9
:10089000E73CF807A9F71092C7381092C8381092B1
:1008A000C938C8CF80917738882319F08150809358
:1008B0007738E091773890E080E0EE2341F0E15026
:1008C000FF0BEE0FFF1FE858F74C808191814AE043
:1008D00070E060E01ACF582FCB01F901583089F44D
:1008E0001092273880E023DD8091703881111DC07F
:1008F00081E08093273870E060E08BEC94E031DF9A
:1009000014C0252F207F203BB9F4209127384217AF
:1009100088F06DE570E00E948011029741F42F5F2E
:100920002093273888E3421718F480E0089582E185
:10093000FEDCFBCF80E0FCCF203E41F480912738E5
:10094000882311F04817B8F6ADDFEFCF5A3069F7BA
:1009500060913F3880912738099515DEF5CF24ED59
:1009600031E043E0B8CF24ED31E044E0B4CF25E5F9
:1009700033E044E0B0CF2BE932E041E0ACCF2FE9E7
:1009800032E042E0A8CF2AEB32E041E0A4CF2DEBE9
:1009900032E043E0A0CF883039F410923F38109213
:1009A000263880E0C4DC0CC08130F9F49091263800
:1009B000911108C06032710518F08093263841DC2F
:1009C00080E00895913079F46B3B710520F082E06E
:1009D00080932638E6CF6115710591F3862F880F35
:1009E00084708E5EDFCF5EDFEBCF813811F0813E09
:1009F00039F791E090932638813E41F480913F3859
:100A0000865F80933F381DDC8BE4CCCF80913F38EC
:100A10008F5FF7CF0F931F93CF93DF93D82FC92FFB
:100A20008B0140DFB8018D2F9C2FDF91CF911F915B
:100A30000F9197CECF93C0911D38C11119C0813C41
:100A400041F470E060E08CE895E0E4DF8C2FCF911A
:100A50000895823C29F470E060E08AE395E0F5CFE8
:100A6000873B31F470E060E08BEB94E07ADEEECF10
:100A7000C1E0ECCF813C39F470E060E08CE895E0B7
:100A8000C9DF80E00895823C29F470E060E08DE9E0
:100A900098E0F6CF873B31F470E060E08FEB94E0B4
:100AA00060DEEFCF81E00895813C39F470E060E0D2
:100AB0008CE895E0AFDF80E00895823C29F470E097
:100AC00060E08AE195E0F6CF81E00895843011F589
:100AD000809188389091893829E08A3D920731F4D5
:100AE00069E170E08CE696E095DF0DC08C5696408B
:100AF00061F490916E38923040F0892F86959695EA
:100B00009695890FFBDC80E0089570E060E08CE84A
:100B100095E0EACF81E008950F931F93CF938B0167
:100B2000883081F480E003DC10924638012B31F0EC
:100B3000C0E08C2FCF911F910F91089581E0809399
:100B40006F38F6CF813021F46931710588F3F7CF22
:100B5000833051F580914C38882371F090914B3857
:100B600042EC51E0949F9001959F300D1124621743
:100B7000730710F080931E3880911038602F8370B7
:100B8000A8DD80914238882399F242EC51E0849F9D
:100B90009001859F300D11242017310748F670E031
:100BA00060E086EC98E016C0813BB1F481E090E013
:100BB00037DCBDDB809148388111BACF809149384C
:100BC000811104C00831110508F4B2CF61E070E072
:100BD0008CE696E01FDFACCF813EC1F3813831F463
:100BE00080911E3890E01CDCA2DBA2CF813C21F476
:100BF00060916E3870E0ECCF823B71F480911C38CC
:100C000090911D38911180914A38811103C086E975
:100C100090E0E9CF86E9E8CF823E11F480E0E4CFAE
:100C200066E970E0823CA1F28339C1F3833C29F488
:100C300070E060E08AE195E0CDCF843C11F461DCA6
:100C4000AECF8F3C29F470E060E089E992E0C2CF3A
:100C5000C0911D388A3B81F4012B09F03BC0CC23A5
:100C600029F04FDC10921D388EDC62CF70E060E01E
:100C700083EB94E076DD5DCFC1112CC08A3C31F46A
:100C800040DC81E080931D387EDC53CF833B31F420
:100C900070E060E08AED99E0BDDE4BCF853C31F439
:100CA00030DC70E060E083E69BE0F6CF863C31F418
:100CB00028DC70E060E08DEA9BE0EECF873C51F4E9
:100CC0009091103881E0890F83709C7F892B8093ED
:100CD0001038DACFC1E02DCF9F92AF92BF92CF9262
:100CE000DF92EF92FF920F931F93CF93DF93C82F62
:100CF0008B01B0901B38E0901A38C0904938909022
:100D00004738C11002C099249394D0901C38D091D8
:100D10001D38D111D0904A38DD2009F441C031E0AE
:100D2000D31621F080911E388E15D0F1F6E9FF2EF2
:100D3000A0904638B8018C2F2ADD20914638222316
:100D400009F4F2C1A11004C080916E3880932A3852
:100D50008C2F8D7F883031F510924138CA3019F4CC
:100D600000911E3810E0B016110630F4E01611069E
:100D700019F010F000931E38C80152DBBFDB81E090
:100D800080930538D0E08D2FDF91CF911F910F9187
:100D9000FF90EF90DF90CF90BF90AF909F9008951D
:100DA000FE2CC6CFC13C09F4C2C1C23C71F4809193
:100DB0006E388F1538F48F2DA1DB80916E388093BB
:100DC0002A38E0CF80911E38F7CFC43C39F480E058
:100DD000AEDA70E060E086EC98E0ADC18FE48C0F95
:100DE000823008F04FC06091113870E0C801CC200B
:100DF00011F068E170E00E948011892B19F6909142
:100E00006E3801151105C9F4C23B89F48FEF809348
:100E1000053820910538492D2403C0011124209163
:100E20006E38820F911DFCDA80931E38C5CF9E1557
:100E300068F7B91670F381E0EACF80911138682F16
:100E400070E046E351E0849F9001859F300D1124AE
:100E50002017310710F49E15C8F64CE652E0649F47
:100E60009001659F300D749F300D112420173107BC
:100E700080F6B91670F245DB70E060E086EC98E031
:100E8000C9DDC7CF8FE18C0F823020F48091053807
:100E9000819576CFC13009F0C6C00932110511F431
:100EA000C09305382223A9F040912A382150330BF2
:100EB000429FC001439F900D11246091453870E01E
:100EC0000E949411611101C061E060936D386093DC
:100ED0004D38C0916D3820916E38EC2FE21BFF0B1E
:100EE000CF0160912838709129386F5F7F4F6093F0
:100EF000283870932938309709F444CF40E052E005
:100F0000F7FF06C040E450E0233810F440E051E021
:100F10005695479597FD0196959587950097C1F74A
:100F20004617570708F02ECF8FEFC21720F08C2FEF
:100F30002C1710F481E0820F3FEF380F432F50E061
:100F4000BA01615E7E4FFB019491321750F42091FB
:100F50002A0A30912B0A232B21F42FEF30E09F3FF8
:100F600081F0E0912A0AF0912B0A292F30E0E21754
:100F7000F30708F03BC020912A0A30912B0A2F5F1B
:100F80003F4F20932A0A30932B0A9A0127573F4F4D
:100F9000F9014491E091280AF091290A50E0E41700
:100FA000F50798F54091280A5091290A4F5F5F4F45
:100FB0004093280A5093290A40912A0A50912B0AFB
:100FC000FB0164916417150661F44091280A509161
:100FD000290AF90124912417150619F4A8D9C093F8
:100FE0006D381092283810922938CCCEE0912A0A18
:100FF000F0912B0A2E173F0708F0C7CF20912A0A3D
:1010000030912B0A21503109BCCFE091280AF09190
:10101000290A4E175F0780F64091280A5091290A45
:1010200041505109C5CFC530A9F480916E38823442
:1010300008F4A8CE90E0801B910B282F81349105F5
:101040003CF08739910508F026E920936D389ACE57
:1010500021E4FBCFC630B1F490916E3880914D38C9
:10106000981708F08FCE090F111D90E08017910797
:1010700034F0C8010134110514F481E490E0809348
:101080006D3880CEC73069F490916D3880916E389C
:10109000891710F48F5FF3CF981708F073CE815043
:1010A000EECFC33C59F481E0C11080E08093493811
:1010B0006ADA35DA80916E3890E0B5CED11132C05F
:1010C000C33B51F4012B09F05DCEDD2011F086E920
:1010D000F82E8F2D13DA57CEC33E19F480911E38A7
:1010E000F9CFC53C41F480E022D970E060E083E6AE
:1010F0009BE090DC48CE70E060E08FEA94E0C73B74
:1011000079F0CA3C39F480916E3880934C383BDAE0
:10111000F8D939CECA3B31F470E060E087EB94E057
:1011200020DB31CED1E02FCEAA2009F411CE70E021
:1011300060E08CE895E06EDC25CE282FCB01213CC9
:1011400039F470E060E08CE895E064DC80E00895BC
:10115000223C29F470E060E084E595E0F6CF213B85
:1011600041F46EE370E00E948011892B79F7C9D9B0
:10117000EDCF213E49F46EE370E00E9480116F5F75
:1011800060930F3800DAE2CF81E00895CF93DF93C8
:10119000D82F80798039F1F4909117382091183840
:1011A0008D2F8F70823049F480914C38811108C0A6
:1011B000822F291728F4892F03C0822F9217D8F382
:1011C000B6D8D33CE1F49DD970E060E08CE895E0BE
:1011D00021DC0BC0803811F480E0F2CFD13039F43B
:1011E0006931710510F0D0936F38C0E016C0D3306C
:1011F00041F780911038869586956BDAF6CFD43C0E
:1012000081F4C0914C386C2F70E0C11111C0609115
:101210001E3870E08CE696E0FDDB8C2FDF91CF91DD
:101220000895D43B41F47BD91092CC3861E070E052
:101230008CE696E0CDCFD53C19F466E970E0F8CFA6
:10124000C0911D38C11116C0DA3B31F470E060E086
:1012500083EC94E086DAE1CFD73C61F490911038CA
:10126000892F8C7F8C5F8C709370892B80931038C2
:101270008AD9D3CFC1E0D1CF0F931F93CF931092D0
:1012800072388091CA389091CB389C012F5F3F4FC4
:1012900088279078822B932B8093CA389093CB38F1
:1012A000C09170380FD8C817B9F010926F3880937A
:1012B00070389091CC388823B9F1892F80699F705C
:1012C0009F3081F58093CC3890E080E00E941D0132
:1012D0001092CA381092CB380091CA381091CB388E
:1012E00080916F38882371F1B80183E00E94040176
:1012F0009CDA0F731127012B89F410922B380E946E
:101300004801C0912B38C11105C00E943F0181E006
:1013100080938E38CF5FCF71C0932B38CF911F91C0
:101320000F9108958F5FCECF892F8F7E95FD08C0D6
:1013300080688093CC388091CA389091CB38C6CFE2
:10134000806CF7CFC091CC388C2F807F803B49F4E4
:1013500070E060E081E00E940401C8010E941D016C
:10136000D0CFB80181E00E940401C4FF0FC0C5FDC9
:10137000F4CF0831110528F21092CA381092CB38F8
:10138000C062C093CC3890E080E0E8CFCC2309F471
:10139000B8CFC5FF03C00E942101B3CF02311105B0
:1013A00008F4AFCFC064C093CC3890E080E00E94D6
:1013B0001D01F1CFDF92EF92FF920F931F93CF9316
:1013C000DF93D82F8B01C0910B3881E08093413897
:1013D000C33079F4F09046388D2FD9D9FF20A1F091
:1013E00080914638811110C070E060E08CE895E093
:1013F00011DBD83071F0D13C09F003C170E060E03E
:101400008CE895E007DB08C0D83041F481E0809398
:10141000033881E08093043880E047C1D23C61F416
:10142000109246388C2F90E0019665E070E07CD7F2
:1014300080930B38A8D8F0CFD13BC1F4809102380B
:10144000012B41F49FEF8E3618F4823018F491E0AE
:101450009093033890910338890F21F481E08093B1
:101460000238DACF8F36D8F38EE6F9CFD13E59F471
:101470008091033881958093033880910438819559
:1014800080930438D7CFD23BE1F481E080930338D6
:1014900080910238823018F081508093023881E0C8
:1014A00080930438C23008F0F3C000FDB5CFEC2FB4
:1014B000F0E0E75FF74C80818F3F09F4ADCF8F5F9D
:1014C000BDC0D13009F0F9C00932110511F4D09333
:1014D0000338E09025388E2D880FE7FC809527E0B3
:1014E000829FC0011124F09024382F2D220FF7FC89
:1014F0002095D09101382D9F90011124232F290F81
:10150000D09023388D2D880FD7FC8095C09100385E
:101510008C9FC0011124290F80910238280F332796
:10152000331F809146388130B9F4809143389091CF
:10153000443845E0969587954A95E1F764E770E071
:10154000AB01481B590B429FC001439F900D529F16
:10155000900D1124D5D69B01822F0E94970100FD8A
:1015600006C00E946B0181708E0D8093253880919A
:101570002238F80EF09224380E946B0165E2B4D64E
:101580009D0D909323380E946B018F7331F40E945C
:101590006B016DE0A9D690932238DD2339F00E94CB
:1015A0006B018F7319F4D150D09301380E946B01F5
:1015B000811108C00E946B016BE096D690930138B0
:1015C00010922438C33038F00E946B018F7119F4E7
:1015D000C150C09300380E946B018F7731F40E9494
:1015E0006B0166E081D6909300380932110519F439
:1015F00081E08093043880916C38080F00936C3838
:101600000BCFD23C09F40ECFD43C21F48C2F90E0C8
:1016100004960BCFD13B51F5C23090F400FDFCCEC7
:10162000EC2FF0E0E75FF74C808190910438891B44
:101630008F3F08F08EEF883008F488E08083ECCE8E
:10164000C43009F0E9CE8091083890910438890FB0
:10165000823040F482E080930838809108380E94FC
:101660009701DACE8937B8F388E7F5CFD13E09F490
:1016700004CFD23B09F413CFD23E09F4DBCED53CE4
:1016800081F470E060E083E69BE0C4D980E0E7CFBE
:10169000C43009F0C1CE809108388330F0F2815017
:1016A000DACF81E0D13009F4A0CFDF91CF911F9143
:1016B0000F91FF90EF90DF900895D13C09F49ECEFA
:1016C000D43CD1F6A3CF0F931F93CF93DF93D82FA2
:1016D0008B01883031F480914138882311F088E003
:1016E00069DE8D2F8079803999F481E080934038CC
:1016F000C0914138CC2311F0C0E004C080911E3865
:101700000E9497018C2FDF91CF911F910F91089527
:10171000803831F41092403880E00E949701ECCF7D
:10172000C1E0D13079F7C0914038CC2359F0809195
:101730004138882309F3B80181E0DF91CF911F91EF
:101740000F9138CE07331140B8F2D0936F3880E252
:101750008093210480932604D5CFFF920F931F938B
:10176000CF93DF93C82F8B01F0901E38807980399A
:1017700009F041C0DC2FDC7001F110924038D0E05C
:1017800080914038882319F0B8018C2F9CDFF092AB
:101790001E38C83059F0C130B9F5D0914038D11158
:1017A00046C00931110510F0C0936F388D2FDF91BD
:1017B000CF911F910F91FF90089591E09093403841
:1017C000EC2FEF70F0E0E55FF74C80812FEF280FF2
:1017D000263928F480931E3810924138D1CF909347
:1017E0004138873960F28759990B65E070E088D5F8
:1017F00080930B38C5CF803829F41092403880E0B0
:101800000E949701D1E0BCCFC33041F4B80183E01E
:10181000DF91CF911F910F91FF90B8CCC63C49F456
:101820000E94810270E060E08CE895E0F3D8D0E09F
:10183000BDCFC73B09F0BACF70E060E087EC94E021
:101840000E94B103F4CF10929938909110068091C4
:101850006C38890F80936C3880918E38882309F416
:1018600056C010928E389091973880916F388823A7
:1018700039F0809100068E7F809300061092973891
:1018800091114FC08091213860918F3870919038BC
:10189000882341F0609193387091943860938F3829
:1018A00070939038605F7F4F86E0769567958A9554
:1018B000E1F780E098E524D5809120388250990B9B
:1018C000680F791F7695679560938D3880913E38C3
:1018D0008823F1F0815080933E3880916F388111D8
:1018E0000DC08EE18093060685E48093020681E0B8
:1018F00080939738109298380E943F018091213848
:10190000882329F0809121388150809321380895CF
:101910006D3118F770E060E084E00E94040185E01A
:10192000DACF913059F780912138811164C08091CC
:1019300091389091923840969C0145E036952795D4
:101940004A95E1F7E0918A3856E0969587955A9541
:10195000E1F70E2E000CFF0BAF0143515140840FF5
:10196000951F80938B3890938C3880912D38A82FB9
:10197000B0E0AA0FBB1FA25DB74C4D915C911197CF
:10198000B901641B750BAB012D933C938F5F87707E
:1019900080932D38660F771F660F771F80911F3851
:1019A00090E08D5E9E4F8E1B9F0B880F991F681BCA
:1019B000790B620F731F83E0161617060CF04AC0EE
:1019C000615071098150C1F7161617060CF05DC001
:1019D00057FD7AC080912C3818160CF042C0861B37
:1019E00080932C388DE18093060685E5809302066E
:1019F000109297387FCF8091953890919638809348
:101A0000913890939238409635E0969587953A951F
:101A1000E1F780932E3890932F388093303890934D
:101A200031388093323890933338809334389093A0
:101A30003538809336389093373880933838909380
:101A4000393880933A3890933B3880933C38909360
:101A50003D386DCF6115710509F4B4CF6F5F7F4FCD
:101A6000B1CF660F771F6530710564F0635071095F
:101A70007595679588E1861B80932C3885E00E94D8
:101A80000401B0CF61E070E0F5CF6C3F8FEF7807D5
:101A9000DCF457FF19C080912C3887FF02C08450B6
:101AA0009ECF84EE861B80932C3880918D388F31A9
:101AB00008F498CF8CEF9FEF9C01261B370BB901E0
:101AC0007595679586E0DBCF80918D388E3108F46F
:101AD00089CF70E060E087E0D2CF809199388111A2
:101AE000B2DE809172388111C7CB0895EF92FF92D8
:101AF0000F931F93CF93DF93EC010AEC18E082E37E
:101B0000E82E82E0F82E209739F4DF91CF911F91D3
:101B10000F91FF90EF90089580914E388111F5CF8D
:101B200080916E38853070F485E00E94F900C7011D
:101B30000197F1F781E00E94F900CFDF0E941504C0
:101B40002197E1CF81E00E94F900C801F1CF0F9306
:101B50001F93CF93C82F06EA811102C008E0C1E0AD
:101B600010E089E10E949701C801C0DF80E00E9477
:101B700097018AEF90E0BADFC15099F78AE992E0C5
:101B8000CF911F910F91B2CFCF93DF93282F64E6AF
:101B9000ABD3382FC92F892F6AE0A6D3D92F24368B
:101BA00050F0832FD4DF8C2F6AE09ED3D0DF8D2FAF
:101BB000DF91CF91CCCFCA30B0F7F9CFCF93DF937D
:101BC000D82FC3E080911E380E94970188EC90E0E6
:101BD0008DDFDD2319F080E991E088DF80E00E944D
:101BE000970188EC90E082DFC15061F7DF91CF91DF
:101BF00008950F920FB60F921F9211242F933F93C7
:101C00004F935F936F937F938F939F93AF93BF9304
:101C1000EF93FF93CF93DF9300D000D0CDB7DEB723
:101C200081E080930B0680919838882309F441C0A5
:101C3000E0919738E13009F055C080912111A091D1
:101C400020112091100630911106281B310987FDC3
:101C50003395B0E07CD369837A838B839C83DC01EA
:101C6000CB0180589F4FAF4FBF4F892F9A2FAB2F7B
:101C7000BB2726E0880F991F2A95E1F7F0E0EE0FC9
:101C8000FF1FDF01AD56B74C8D939C93E157F74C86
:101C9000208131812817390710F42F5F3F4F8217B9
:101CA000930710F4215031092083318381E0809320
:101CB000993881E0809398382496CDBFDEBFDF91BC
:101CC000CF91FF91EF91BF91AF919F918F917F91B4
:101CD0006F915F914F913F912F911F900F900FBE89
:101CE0000F9018958091100690911106C2CF8F9396
:101CF00081E080935301809372388F9118958F9370
:101D00001D9A81E0809371388F911895F894809195
:101D10004000877F8093400088EDA89584BF909114
:101D20000001907F9093000121E030E084BF209378
:101D3000610083E284B988E08093100480931104E9
:101D400080931204809313048093140499E0909379
:101D500015048093160480931704809332048093B3
:101D6000330480933404809350048093510480930F
:101D700052048093530487E38093010A8FEF90E02D
:101D80008093260A9093270A91E09093000A80910D
:101D9000120481608093120490935201C09151010A
:101DA000C111FCCF81E4809350010E9448017894D6
:101DB00081E00E942B0170E060E086E695E00E94E1
:101DC000B10310924E380E9481020E94620181117B
:101DD0008AC0F89480E490E0C9D2853A09F0B5C091
:101DE0000FE418E3C1E4D0E0CE01C0D2F801819342
:101DF0008F012196CE35D105B9F7789480914F386F
:101E000080934938809150388093173880915138A9
:101E100080931438809152388093113880915338D0
:101E200080931838809154388093153880915538B4
:101E300080931238809156388093193880915738A2
:101E40008093163880915838809313388091593890
:101E500080931D3880915A3880934A3880915B383E
:101E60008093483880915C3880931C3880915D382D
:101E700080934C3880915E3880934B3880915F38E6
:101E800080930B3880916038809309388091613855
:101E900080930A3880916238809308388091633843
:101EA00080930F388091643880931F388091653813
:101EB00080938A3880916638809320388091673883
:101EC00080931038809168388093423880916938C7
:101ED00080930C3880916A3880930D3880916B38EC
:101EE00080930E3833C08C2F0E94970183E190E0DD
:101EF000FDDD8C2F86950E94970183E190E0F6DD51
:101F00000E9462018823F1F0CF5FC03461F76091D5
:101F10008B3880918A38681B81E00E949F020E9462
:101F2000C302C6E98C2F0E94970184E090E0DEDDB9
:101F3000C150C1F74ECF8C2F0E9497018DE090E0E9
:101F4000D5DDC150C111F7CF44CF789480914C3882
:101F5000811180931E3861E070E08CE895E00E946A
:101F6000B1032224239433243394CC24C394D12C5E
:101F70005CEF452E53E0552E68EE662E63E0762E1C
:101F80007CE8872E75E0972E0E94150480917538A5
:101F900090917638009751F0609173387091743851
:101FA0000E940A05109275381092763880916F3829
:101FB0008823C9F180E00E9497012092520180910C
:101FC00051018111FCCFF9E5F09350018091000699
:101FD0008E7F809300060E9462018111FCCF0E94D7
:101FE000210180911204816080931204109299382B
:101FF000109272381092713880916F38811136C00A
:1020000022E02093213880911204887F809312046B
:102010000E94480120925201809151018111FCCF10
:1020200081E48093500159DD10924E3880918838B8
:1020300090918938E2E089399E0709F03DC0CCE7EC
:10204000D0E0FE018491805382DD8CE291E04EDD90
:102050002196F0E0C838DF07A1F78092753890929A
:10206000763810927338109274388ECF8091500069
:10207000897F8460809350008091500081608093BC
:1020800050008895809150008E7F80935000809101
:102090007138811110926F3880919938882329F016
:1020A0003092213830928E38CEDB8091723888237E
:1020B00009F4A2CFE1D8A0CF29E08A3D920799F098
:1020C000EBE083369E0729F0FBE08D3A9F0709F08D
:1020D000BCC020914138213009F0B7C02091403870
:1020E000222309F4B2C0C0910B38C23009F43EC0BB
:1020F000F8F0C43009F048CFD0910838DD0FD73957
:1021000008F0D6E98D2F0E94970185E090E0EEDC83
:10211000809108380E94970181E490E0E7DCC1508B
:1021200089F780ED92E0E2DC80E00E9497012CCFFD
:10213000EC2FF0E0E75FF74CD08186E90E94970131
:10214000C11110C0DA3250F4C2010197F1F780E0FA
:102150000E9497018D2F90E0C9DC16CF81E090E0BE
:10216000C5DCF5CF8D2F869590E0FACF0E946B01EC
:102170008F73082F10E00E946B0167E0B5D07601E5
:1021800002C0EE0CFF1C9A95E2F70E946B0165E01D
:10219000ABD0E60102C0CC0FDD1F9A95E2F7CE0D61
:1021A000DF1D0E946B0190E0BE01BED0C80FD91F99
:1021B000C739D10524F026E9C22F80E0D82F8C2F13
:1021C0000E949701C80192DC7E0133E0F594E79408
:1021D0003A95E1F7E11002C0EE24E394F12CC80136
:1021E00085DC5E01AE18BF08E501B7FE04C0E0E083
:1021F000CE2FF0E0DF2F8C2F0E9497010E946B0101
:10220000837039F4C80172DCCE01959587950E94E0
:10221000970122E0A216B10414F70E946B016DE051
:1022200063D0860102C0000F111F9A95E2F70E9449
:102230006B01E801219790E0C823D923C00FD11F7B
:1022400080E00E949701CE0187CFE5E08A319E07AA
:1022500051F480918D3898DC80911D388111FDCE2C
:1022600088EE93E079CFF5E08A339F0721F48091DF
:102270008B388ADCF5CF28E08D399207C1F4809144
:102280007038811181CE80911E380E94970184E6BA
:1022900090E02CDC80E00E94970120910F38269D71
:1022A000C001279D900D11248456910955CF845566
:1022B000954049F480E082DC81E080DC80E07EDCD7
:1022C00080ED97E049CF80915000897F8093500046
:1022D00080915000816080935000889580915000DB
:1022E0008E7F8093500050CE991B79E004C0991FD7
:1022F000961708F0961B881F7A95C9F78095089560
:10230000AA1BBB1B51E107C0AA1FBB1FA617B7071B
:1023100010F0A61BB70B881F991F5A95A9F7809537
:102320009095BC01CD01089597FB072E16F40094FB
:1023300006D077FD08D0E4DF07FC05D03EF4909589
:1023400081959F4F0895709561957F4F0895A29F45
:10235000B001B39FC001A39F700D811D1124911D79
:10236000B29F700D811D1124911D089503D08081AD
:1023700099270895FC01E050FC4E0895262FFADFBE
:102380000080021611F004D0019701970895262FBE
:10239000AF93BF93E0E0F0E1328131FDFDCFDC018E
:1023A000A050BC4E2C932DE924BF23E0208301963E
:0A23B000BF91AF910895F894FFCF9C
:1023BA00173814381138000102010000000000002B
:0623CA000100000000000C
:1023D000060B18010101000441294303781E9802ED
:1023E0000D010705787896010A0A78010101412D4F
:0223F0000702E2
:00000001FF
