:1000000009C2000024C2000022C200000C944B1060
:100010001EC200001CC200001AC200000C943A105C
:1000200016C2000014C2000012C2000010C200007C
:100030000EC200000CC200000AC2000008C200008C
:1000400006C2000004C2000002C2000000C200009C
:100050000C94CD0FFCC10000FAC10000F8C10000F3
:10006000F6C10000F4C10000F2C10000F0C10000C0
:10007000EEC10000ECC10000EAC1000032303232B3
:100080003037323530373135000105041410111581
:10009000FF07FF07AE042A0530068C06A5069B065F
:1000A0007E065606EE06A7065F069C064D06670608
:1000B00016061C061706C605B805A4058C057005AE
:1000C0005105310533050D05E804DE04B704A80425
:1000D00080046D04460432040B04F503DF03BA0305
:1000E000A40381036B034A0334031603F802DB0203
:1000F000C002A60286026E02510236021602FE01FC
:10010000DE01C401A70189016C0152013601180109
:10011000FF00FF00FF00FF00FF00FF00FF00FF00E7
:10012000FF00FF00FF00FF00FF00FF00FF00FF00D7
:10013000FF00FF00FF00FF00FF00FF00FF00FF00C7
:10014000FF00FF00FF00FF00FF00FF00FF00FF00B7
:10015000FF00FF00FF00FF00FF00FF00FF00FF00A7
:10016000FF00FF00FF00FF00FF00FF00FF00FF0097
:10017000FF00FF00FF00FF00FF00FF00FF00FF0087
:10018000FF00FF00FF00FF00FF00FF00FF00FF0077
:10019000FF00FF00FF00FF00FF00FF00FF00FF0067
:1001A000FF00FF00FF00FF00FF00FF00FF00FF0057
:1001B000FF00FF00FF00FF00FF00FF000000000045
:1001C000000000000000000000000000000000002F
:1001D000000000000000000000000000000000001F
:1001E000000000000000000000000000000000000F
:1001F00000000000000000000000000000000000FF
:1002000000000000000000000000000000000000EE
:1002100000000000000000000000000000000000DE
:1002200000000000000000000000000000000000CE
:1002300000000000000000000000000000000000BE
:1002400000000000000000000000000000000000AE
:10025000000000000000000000000000000000009E
:10026000000000000000000000000000000000008E
:100270000100030004000600070009000B000C0049
:100280000E00100012001400160018001B001D00C4
:100290001F002200250027002A002D003000330017
:1002A000360039003D004000440048004B004F003C
:1002B000530058005C00610065006A006F00740024
:1002C00079007E0084008A00900096009C00A200C5
:1002D000A900B000B700BE00C500CD00D500DD000C
:1002E000E500ED00F600FF0001000300030004003C
:1002F000050006000700080009000A000C000D00B8
:100300000E00100011001300140016001800190050
:100310001B001D001F0021002300250028002A00CB
:100320002C002F0031003400360039003B003E0025
:1003300040004300460048004B004D005000520072
:100340005500570059005B005D005F0060006200CF
:100350006300640064006500640064006300610081
:100360005F005D005A005600520057005B006000BD
:1003700064006A006F0074007A00800086008D00BF
:1003800093009B00A200A900B100BA00C200CB00FC
:10039000D500DE00E800F300FE00FF00FF00FF00D4
:1003A000FF00FF00FF00FF00FF00FF00FF00FF0055
:1003B000FF00FF00FF00FF00FF00FF00FF00FF0045
:1003C000FF00FF00FF00FF00FF00FF00FF00FF0035
:1003D000FF00FF00FF00FF00FF00FF00FF00FF0025
:1003E000FF00FF00FF00FF00FF00FF00FF00FF0015
:1003F000FF00FF00FF00FF00FF00FF00FF00FF0005
:10040000FF00FF00FF00FF00FF00FF00FF00FF00F4
:10041000FF00000011241FBECFEFCDBFDFE3DEBF22
:1004200018E3A0E0B8E3E6E6F7E202C005900D921B
:10043000A032B107D9F728E3A0E2B8E301C01D92CA
:10044000AC3CB207E1F70E945B100C949B13D8CD33
:10045000F89498ED94BF809361008091630080FDD3
:10046000FCCF78940895E9E9F8E320E030E090814A
:10047000992339F02F5F3F4F339620313105B9F77B
:100480000BC0F901EE0FFF1F2E0F3F1FF901E756BA
:10049000F74C80836183728308950F931F93CF93EA
:1004A000DF93D0919938DD2351F100919A38109162
:1004B0009B38C0917638C150C7FD0DC0EC2FEE0FB0
:1004C000FF0BE958F74C0190F081E02DB8018D2F1A
:1004D00009958111F0CFE9E9F8E383818083848174
:1004E000958181839283339688E3E63CF807A9F7E8
:1004F0001092C6381092C7381092C838D2CFDF9108
:10050000CF911F910F910895BC018091CB38ABCF53
:100510001092CB381092C9381092CA3881E080937B
:100520004F3808950F931F93CF93C82F02E919E016
:10053000CC2349F085E08CDFC8010197F1F781E019
:1005400087DFC150F5CFCF911F910F910895E0E063
:10055000F6E082858160828780858160808708954A
:1005600082B185FB882780F991E0892780936F38D5
:100570000895E0910638F09107383196FB70F460E9
:10058000E0930638F093073880916B388B5A80934C
:100590006B38E49180916B388E0F0895FF920F9322
:1005A0001F93CF93DF9300D01F92CDB7DEB720917A
:1005B0003AA730913BA740913CA729833A834B83CC
:1005C0008E010F5F1F4F20E030E0682F70E0E1E008
:1005D000F0E098E0F92ED8019D918D01A901440F1A
:1005E000551FDB0102C0B595A7954A95E2F7AD010D
:1005F000437081F04130C9F4A92FB0E0AF0102C0CF
:10060000440F551F9A95E2F740934204A05BBB4FFD
:10061000FC9215C0AF0102C0440F551F9A95E2F736
:1006200040934104409346040AC0DF0102C0AA0F70
:10063000BB1F9A95E2F7A0934104A09345042F5F56
:100640003F4F2330310539F62396CDBFDEBFDF9112
:10065000CF911F910F91FF900895CF93C82F809352
:100660006D3880936C3880916E38811101C096DFAF
:10067000C11109C010923A0A10923B0A1092380A2E
:100680001092390A24C08FEF8C0F90E0880F991FC9
:10069000FC01E851FD4F2591349120933A0A3093A3
:1006A0003B0AFC01E454FE4F259134912093380A13
:1006B0003093390AFC01E057FF4F85919491809364
:1006C000360A9093370A80912B38811104C010921A
:1006D000200A1092210AC0932B38C23010F485E012
:1006E00001C081E0CF91B4CECF93DF93CDB7DEB719
:1006F0002697CDBFDEBF90914A3820918738309140
:1007000088382E5E3B4009F492E0843019F46093FF
:100710004B381FC06623E9F0823019F427E9261B05
:10072000622F26E0EDE3F7EADE01119601900D92CB
:100730002A95E1F79E012F5F3F4F280F311D280FAB
:10074000311DF90132970190F081E02DE90FF11D83
:1007500060832696CDBFDEBFDF91CF910895BF9213
:10076000CF92DF92EF92FF920F931F93CF93DF937D
:10077000EC0140914A38E0911B38EE2311F082E001
:1007800001C0842F90E0DC01AB5EB74C2C9120932C
:100790001938DC01AE5EB74C8C9180931838F0E0CC
:1007A000E15FF74C3181622F70E0442349F0313032
:1007B00039F49B01280F311DC9019595879538C0E3
:1007C000C617D707A4F1682F70E06C177D0784F176
:1007D000411102C08C2F2CC0821B032F10E001504E
:1007E0001109E82EF12CC701B8010E94541360933F
:1007F00048386695E62FF0E0822FC12CD12CB12C21
:10080000B316B1F0C601B8010E944013822F860FC3
:10081000CE0CDF1CAE01481B510957FF03C0519598
:1008200041955109E417F5071CF4B394E9CF822FE1
:10083000DF91CF911F910F91FF90EF90DF90CF90BC
:10084000BF90089580934E3808CF0F931F93CF9396
:10085000E82F80918C389FEF980F9C3110F480E046
:1008600077C0CE2FC295CF70EF7090916E389111F6
:1008700003C0C33008F0C2E0E73008F441C0E730FD
:10088000A9F40091253810E00F5F1F4F72DE65E07C
:100890000E9434139801290F311DC90166E070E0F0
:1008A0000E94541380932538FC0135C0E830B1F420
:1008B00080916E38882311F08FE001C083E06823B7
:1008C00051F48091253890E0019666E070E00E9436
:1008D000541380932538E091253812C090916E38DA
:1008E000992381F08D31D8F090E0E92FF0E0EA5AB9
:1008F000F8452081821710F09E5FF7CF3197E08195
:10090000F0E009C0862F869563E00E943413E92F3A
:10091000F0E0EE0FFF1FE757FF4FE49101C0E0E06A
:10092000C33071F48091243890E0019663E170E067
:100930000E94401380932438DC01AD5BB845CC9114
:10094000CC2321F0C13019F0EE0F01C0E0E08E2F72
:10095000CF911F910F9122CECF93C0916D3889E135
:100960008C0F873908F080E078DE82E0DBDD8C2FA9
:10097000CF9173CECF93C0916D3880E06EDE83E06F
:10098000D1DD8C2FCF9169CE81E008956111609304
:100990001E380895662389F0813061F480918A3889
:1009A00090918938891B681B6093893882E0809315
:1009B0001F3803C0635E60931D3880911D388734F3
:1009C00018F086E480931D380895609343380895A5
:1009D0000F931F93CF93DF9380914A3880935038C1
:1009E0008091153880935138809112388093523815
:1009F00080910F3880935338809116388093543803
:100A000080911338809355388091103880935638F0
:100A100080911738809357388091143880935838D4
:100A2000809111388093593880911B3880935A38BF
:100A300080914B3880935B388091493880935C3843
:100A400080911A3880935D3880914D3880935E385C
:100A500080914C3880935F3880910B388093603858
:100A6000809109388093613880910A388093623888
:100A7000809108388093633880910C388093643873
:100A800080911D38809365388091893880936638CD
:100A900080911E388093673880910E388093683833
:100AA00080910D38809369388091433880936A38FB
:100AB000F89400E518E3C1E4D0E0F80161918F01FA
:100AC000CE010E947E132196CC35D105B1F765EA9F
:100AD00080E490E00E947E137894DF91CF911F9183
:100AE0000F910895109298389091100680916B386C
:100AF000890F80936B3880918D38882309F419C150
:100B000010928D389091963880916E38882339F004
:100B1000809100068E7F8093000610929638911186
:100B200043C080911F38882349F0609192387091BA
:100B3000933860938E3870938F3804C060918E38EC
:100B400070918F38605F7F4FA6E076956795AA9584
:100B5000E1F780E098E50E94401380911E3890E014
:100B60000297680F791F7695679560938C3880910E
:100B70003F38882311F0815007C06D3138F460E0B0
:100B800070E084E070DC85E080933F3880916E38BF
:100B90008111C6C08EE18093060685E4809302062B
:100BA00081E080939638B9C0913009F0B9C0809146
:100BB0001F38811143C080919038909191384096B0
:100BC0009C0145E0369527954A95E1F7A091893833
:100BD000A901569547950A2E000CBB0BCD018351F8
:100BE0009140840F951F80938A3890938B38809121
:100BF0002E38E82FF0E0EE0FFF1FE15DF74C40814B
:100C00005181B901641B750B208331838F5F87701D
:100C100080932E38CB01880F991F880F991F409120
:100C20001D3850E04D5E5E4F4A1B5B0B440F551F55
:100C3000841B950B820F931F23E01CC08091943876
:100C4000909195388093903890939138409635E004
:100C5000969587953A95E1F7EFE2F8E381939193C2
:100C600028E3EF33F207D1F7A6CF009709F00196FA
:100C7000215029F018161906C4F70197F9CF181654
:100C80001906E4F477FD39C020912D3812160CF1C5
:100C9000880F991FBC016350710977FF02C06F5F15
:100CA0007F4F759567951616170614F061E070E092
:100CB00088E1861B80932D3885E026C08C3F2FEF7E
:100CC0009207DCF477FF19C020912D3827FF05C06B
:100CD0002450281B20932D3818C024EE281B209365
:100CE0002D3820918C382F3180F06CEF7FEF681B0E
:100CF000790B7595679586E007C080918C388E31A9
:100D000020F060E070E087E0AEDB8DE180930606C6
:100D100085E580930206109296381092973817DC7A
:100D200080911F38882329F080911F38815080934B
:100D30001F380895813019F410924D38089582308B
:100D400019F460934C380895833019F4609349384E
:100D50000895843011F460931A380895CF93C091A8
:100D60001B38C1114AC0883039F4109247381092AC
:100D700044381092453842C0813B59F4809147383D
:100D800081508330D0F583E0809347388093463894
:100D900034C0853BB1F4CB016EE370E00E94401398
:100DA000892B61F5809147388A3F40F58B5F8093AE
:100DB0004738809346381092443810924538CCDD3D
:100DC0001DC08130D1F4809144389091453801960E
:100DD00088382EE0920728F4809344389093453861
:100DE0000DC01092443810924538809147388823BE
:100DF00029F081508093473801C0C1E08C2FCF91FA
:100E00000895FF920F931F93CF93DF938C01EB0113
:100E1000F42E8091873890918838892B31F0E091B9
:100E20008738F091883889E00995009387381093C6
:100E30008838012B39F0E0918738F0918838BE016D
:100E40008F2D099581E080934F38DF91CF911F91CD
:100E50000F91FF900895CF93DF93E0917638EE23C2
:100E600059F0E150E0937638F0E0EE0FFF1FE958BB
:100E7000F74CC081D18102C0C0E0D0E0E09176386B
:100E8000EE2341F0F0E0EE0FFF1FEB58F74C8081AE
:100E9000918102C080E090E04AE060E070E0B1DF64
:100EA000CE01DF91CF910895883029F41092403817
:100EB0001092263815C08130F9F49091263891119E
:100EC00007C06032710568F18093263821DB29C0A4
:100ED000913081F46B3B710528F082E080932638D5
:100EE00080E01EC061157105E1F06270862F880FE9
:100EF0008E5E16C0B0DF15C0813811F0813E89F4D6
:100F000091E090932638813E21F480914038865FAD
:100F100003C0809140388F5F80934038F9DA8BE4CA
:100F20009CDB80E008959C0190917638983088F49D
:100F3000E92FF0E0EE0FFF1FE958F74C20833183D3
:100F40009F5F9093763848E0C9015BDF80917638E7
:100F500008958FEF08950F931F93CF93DF93EC01C4
:100F60008B0179DFB801CE01DF91CF911F910F91F5
:100F7000DACF813C29F460E070E084E598E006C0B7
:100F8000823C39F460E070E08AE198E0E4DF80E0E0
:100F9000089581E00895843011F58091873890910B
:100FA00088382DE08D3F920729F469E170E084E6EE
:100FB00099E013C08456994061F490916D38923055
:100FC00040F0892F869596959695890F3BDC80E0B9
:100FD000089560E070E084E598E0BDDFF8CF81E03F
:100FE0000895813C29F460E070E084E598E006C053
:100FF000823C31F460E070E089EB97E0ACDF16C032
:10100000813B49F4CB016EE370E00E944013892BD1
:1010100069F4A2DC0BC0813E59F4CB016EE370E0B1
:101020000E9440136F5F60930C38D2DC80E008951B
:1010300081E00895CF93C0911B38C11117C0813C46
:1010400029F460E070E084E598E006C0823C31F469
:1010500060E070E08AE398E07EDF09C0873B31F40E
:1010600060E070E086EF9BE05EDF01C0C1E08C2FA6
:10107000CF910895813C29F460E070E084E598E028
:1010800006C0823C31F460E070E081EF97E063DFFE
:1010900007C0873B39F460E070E08AEF9BE043DFF4
:1010A00080E0089581E008950F931F93CF938B0103
:1010B000883079F480E0D1DA60E080910E38C5DBC9
:1010C00010924738012B19F481E080936E38C0E00C
:1010D000F6C0813049F469317105C8F380936E38E8
:1010E00080910E38B2DBF3CF833029F580914D38F3
:1010F000882371F090914C3842EC51E0949F90011C
:10110000959F300D11246217730710F080931C38DF
:10111000602F80910E3899DB809143388823B9F293
:1011200042EC51E0849F9001859F300D11242017DF
:10113000310768F64DC0813B99F481E090E00FDB08
:101140008CDA809149388111C2CF80914A3881115F
:1011500004C00831110508F4BACF61E070E028C07E
:10116000813ED9F3813821F480911C3890E013C07E
:10117000813C21F460916D3870E01AC0823B79F4B3
:1011800080911A3890911B38911180914B388111C0
:1011900004C086E990E0E3DA05C086E903C0823E38
:1011A00019F480E05ADA93CF823C31F466E970E0BA
:1011B00084E699E0D0DE8BCF833999F3833C29F420
:1011C00060E070E08AE198E0F5CF843C31F4C4DB64
:1011D00060E070E082E09CE0EDCF8D3B49F4F89454
:1011E00088ED84BF81E0809300017894A895FFCFBB
:1011F0008F3C29F460E070E084EC94E0DBCFC09198
:101200001B388A3B79F4672B69F4CC2329F0A4DBE3
:1012100010921B38DDDB5BCF60E070E08EEE9BE070
:1012200082DE4DC0C1114AC08A3C29F495DB81E0C1
:1012300080931B3838C0833B29F460E070E08DEF69
:101240009DE03AC0873CA1F480910E38982F92958A
:101250009F709F5F937040E1949F900111248F7065
:10126000822B80930E3860E0F0DAB2DB75DB27C0AA
:10127000873BB9F4C8018F739927892B69F4909142
:101280000E38892F8F708F5F292F207F6BE00E948F
:101290003413922B90930E38602F80910E38D5DA4C
:1012A0000EC0873E11F494DB0AC0853C39F454DB50
:1012B00060E070E085E89FE04EDE01C0C1E08C2F69
:1012C000CF911F910F9108959F92AF92BF92CF92AD
:1012D000DF92EF92FF920F931F93CF93DF93182F1C
:1012E000EB01D0901938F0901838A0904A38AA2015
:1012F00019F0B090483802C0BB24B394C0901A389B
:1013000000911B380111C0904B38CC2051F041E0C6
:10131000C41621F080911C388F1518F0A6E9EA2E2A
:1013200001C0EF2C90904738BE01812F17DD20912E
:101330004738222339F091100CC080916D3880938A
:101340002A3807C0992029F060E070E084E598E031
:1013500039C0812F8D7F8830D9F4109242381A30ED
:1013600019F4C0911C38D0E08D2D90E08C179D07AA
:1013700038F48F2D90E0C817D90710F4C0931C38AB
:10138000CE01EDD95FDA81E08093053800E0D1C16C
:10139000113CD1F2123C71F480916D388E1510F42D
:1013A0008E2D02C080911C384DDA80916D3880936B
:1013B0002A38ECCF143C41F480E04FD960E070E073
:1013C00082E09CE0C8DDE2CF8FE4810F823008F03C
:1013D0004FC0AA2041F0CE0168E170E00E944013A6
:1013E000892B31F0D3CF60910F3870E0CE01F6CF6A
:1013F00080916D38209761F4123B11F48FEF05C096
:101400008F15E0F7D81648F181E08093053825C0A4
:1014100020910F3830E066E371E0269FA001279FFE
:10142000500D369F500D11244C175D0710F48F1589
:1014300028F76CE672E0269FA001279F500D369F8B
:10144000500D11244C175D0740F4D81630F084DAA3
:1014500060E070E082E09CE07EDD30910538209114
:101460006D384B2D3403C0011124820F911D26C10C
:101470008FE1810F823020F480910538819584CFEF
:10148000113009F0CFC0A99711F410930538222329
:10149000B1F040912A3830E021503109429FC0011B
:1014A000439F900D11246091463870E00E945413C0
:1014B000611101C061E060936C3860934E38C09157
:1014C0006C3820916D388C2F90E0821B91096091CF
:1014D0002838709129386F5F7F4F60932838709358
:1014E0002938009709F452CF97FF05C0233830F010
:1014F00040E450E005C040E052E002C040E051E06E
:101500005695479597FD0196959587950097C1F754
:101510004617570708F03ACFC21710F48FEF03C0F1
:101520002C1718F481E0820F01C08C2F9FEF980FC9
:10153000492F50E0440F551FBA0168517D4FFB0100
:10154000A591B491921770F420913A0A30913B0A18
:10155000232B41F4AF3FB10529F4A0933A0AB0938D
:101560003B0A1FC020913A0A30913B0A2A173B07D9
:1015700038F420913A0A30913B0A2F5F3F4F0DC05B
:1015800020913A0A30913B0AA217B30750F42091F8
:101590003A0A30913B0A2150310920933A0A30939C
:1015A0003B0A9A0124543E4FF90145915491E09130
:1015B000380AF091390AE417F50738F44091380AEF
:1015C0005091390A4F5F5F4F0DC0E091380AF0919A
:1015D000390A4E175F0750F44091380A5091390A82
:1015E000415051094093380A5093390AA0913A0A60
:1015F000B0913B0AFB0145915491A417B50769F4DA
:101600004091380A5091390AF901259134914217D5
:10161000530719F422D8C0936C38109228381092CE
:101620002938B4CE1530A9F480916D388B3508F483
:10163000ADCE90E08C1B9D0B282F8A3591052CF0A8
:101640008739910518F026E901C02AE520936C3806
:101650009DCE1630B1F490916D3880914E38981728
:1016600008F094CEC90FD11D90E08C179D0734F07F
:10167000CA35D10524F4CAE5D0E001C0EC018C2FB5
:101680000EC0173079F490916C3880916D388917BD
:1016900010F48F5F04C0981708F078CE81508093C3
:1016A0006C3874CE133C71F481E0A11080E080931B
:1016B0004A388ED95FD980916D3890E050D88093A8
:1016C0001C3872CE011134C0133B49F4CD2B09F004
:1016D0005DCECC2011F086E9E82E8E2D04C0133E9D
:1016E00021F480911C38AED824C0153C49F480E028
:1016F0000E942D0360E070E085E89FE02CDC19C0BB
:10170000173B29F460E070E08AEE9BE00FC01A3CC2
:1017100039F480916D3880934D385AD91DD909C05C
:101720001A3B31F460E070E082EF9BE0FCDB01C02B
:1017300001E0802FDF91CF911F910F91FF90EF90EB
:10174000DF90CF90BF90AF909F900895883069F45C
:101750001092273880E00E942D0380916F3881110C
:1017600037C081E08093273823C0982F907F903B2B
:10177000B9F420912738421778F0CB016DE570E07D
:101780007FD7029739F42F5F20932738421700F153
:1017900088E303C082E101C080E00E942D0318C0ED
:1017A000903E61F480912738882389F0481778F0BB
:1017B00060E070E084E597E0B6DB0AC08A3041F46F
:1017C0006091403880912738F901099501D943DBB0
:1017D00080E0089524E733E043E0B8CF24E733E026
:1017E00044E0B4CF2AE936E044E0B0CF26EC34E060
:1017F00041E0ACCF2AEC34E042E0A8CF25EE34E063
:1018000041E0A4CF0F931F93CF93DF93D82F8B0189
:10181000873B21F480E00E942D0360C080798039ED
:10182000B9F420911538909116388D2F8F70823031
:1018300041F480914D38811108C0822F291728F476
:1018400003C0822F921708F4892F0E942D030DC028
:10185000803819F480E00E942D03D83031F460E024
:1018600080910D380E94250439C0D13039F40931F6
:10187000110508F473C0D0936E3802C0D33031F430
:10188000602F80910D380E94250468C0D33C31F44C
:1018900063D860E070E084E598E01EC0D43C71F449
:1018A000C0914D38CC2319F06C2F70E013C06091BB
:1018B0001C3870E084E699E04EDB53C0D43B31F431
:1018C00059D81092CB3861E070E004C0D53C31F4B7
:1018D00066E970E084E699E03EDB40C0C0911B38C9
:1018E000C1113EC0DA3B31F460E070E08EEF9BE066
:1018F0001ADB37C0D73CA9F480910D38982F929508
:101900009F709F5F937040E1949F900111248F70AE
:10191000822B80930D3860E00E94250459D81CD892
:1019200020C0D73BB9F4C8018F739927892B61F484
:1019300090910D38892F8F708F5F292F207F6BE05A
:1019400093D6922B90930D38602F80910D380E9482
:10195000250407C0D73E21F43BD803C0C0E001C036
:10196000C1E08C2FDF91CF911F910F910895CF93FC
:10197000DF93C0E0D6E08DE18E8385E58A83109207
:101980009638109297380E94A702E0EAF0E0808132
:101990008061808383E08883888581608887DF9188
:1019A000CF9108950F931F93CF9310927138809128
:1019B000C9389091CA389C012F5F3F4F8827907893
:1019C000822B932B8093C9389093CA38C0916F387B
:1019D0000E94B002C81731F110926E3880936F38B0
:1019E0009091CB38882359F0892F80699F709F3060
:1019F00009F08F5F8093CB3880E090E00DC0892F95
:101A00008F7E95FD02C0806801C0806C8093CB38CA
:101A10008091C9389091CA380E9484021092C938C6
:101A20001092CA380091C9381091CA3880916E3826
:101A3000882379F0B80183E00E9433020E944D02AE
:101A40000F731127012B09F043C010922C388FDF40
:101A500032C0C091CB388C2F807F803B19F460E07E
:101A600070E001C0B80181E00E943302C4FF13C0DE
:101A7000C5FF02C0C8010CC008311105E0F010928A
:101A8000C9381092CA38C062C093CB3880E090E069
:101A90000E94840210C0CC2371F0C5FD0AC002313F
:101AA000110548F0C064C093CB3880E090E00E94FC
:101AB00084020E948802C0912C38C11105C00E9486
:101AC000A70281E080938D38CF5FCF71C0932C380F
:101AD000CF911F910F91089580919838811102D86C
:101AE0008091713881115ECF0895EF92FF920F932C
:101AF0001F93CF93DF93EC010AEC18E082E3E82E0A
:101B000082E0F82E2097D9F080914F38811119C0CA
:101B100080916D38823028F485E00E942802C70148
:101B200004C081E00E942802C8010197F1F781E01A
:101B30000E942802D1DF0E944D022197E3CF81E06D
:101B400001C080E0DF91CF911F910F91FF90EF9046
:101B50000895CF93C82F882391F089E10E942D0327
:101B600086EA90E0C2DF80E00E942D038AEF90E0D9
:101B7000BCDFC15091F78AE992E0CF91B6CF89E1FD
:101B80000E942D0388E090E0B0DF80E00E942D03EA
:101B90008AEF90E0AADFEFCFCF93DF9364E664D5BE
:101BA000282F892F6AE060D5EC01222341F0822F93
:101BB000D0DF8C2FCEDF8D2FDF91CF91CACFC11117
:101BC000F8CFF9CFCF93DF93D82FC3E080911C38A3
:101BD0000E942D0388EC90E088DFDD2319F080E976
:101BE00091E083DF80E00E942D0388EC90E07DDFB0
:101BF000C15061F7DF91CF910895DF92EF92FF928C
:101C00000F931F93CF93DF93D82F8B01C0910B3885
:101C100081E080934238C33009F0E2C0F090473849
:101C20008D2F9CD8FF2051F080914738811106C03C
:101C300060E070E084E598E08ED9D2C0D83021F41D
:101C400081E080930338CEC0D23C19F4109247381B
:101C5000D7C0D13BC1F490910238012B49F49E3694
:101C600010F08FEF03C0923018F481E080930338B6
:101C700080910338890F11F481E03CC18F3608F45C
:101C800039C18EE637C1D13E31F480910338819558
:101C900080930338ECC0D23B61F481E08093033839
:101CA00080910238823008F4EAC081508093023873
:101CB000E6C0D13009F0F4C00932110511F4D09317
:101CC0000338D09023388D2D880FD7FC809527E0DE
:101CD000829FC0011124E09022382E2D220FE7FCB4
:101CE0002095D09101382D9F90011124232F290F89
:101CF000F09021388F2D880FF7FC8095C091003827
:101D00008C9FC0011124822F890F6091023870E0EE
:101D1000680F711D809147388130B9F48091443843
:101D20009091453825E0969587952A95E1F724E727
:101D300030E0A901481B590B469FC001479F900DF9
:101D4000569F900D1124B9019BD4862F0E942D031C
:101D500000FD06C00E94B9028170D80ED0922338CF
:101D600080912038E80EE09222380E94B90265E2A4
:101D70007BD4F90EF09221380E94B9028F7331F4AE
:101D80000E94B9026DE070D490932038DD2339F0C1
:101D90000E94B9028F7319F4D150D09301380E9478
:101DA000B902811108C00E94B9026BE05DD4909322
:101DB000013810922238C33038F00E94B9028F7176
:101DC00019F4C150C09300380E94B9028F7709F00E
:101DD0007CC00E94B90266E047D49093003875C079
:101DE000D83021F481E08093043886C0D13C31F4AE
:101DF00060E070E084E598E0AED87EC0D23C49F463
:101E00008C2F90E0019665E070E04ED480930B3803
:101E10004CC0D13B51F5C23090F400FD6DC0EC2FA9
:101E2000F0E0E75FF74C808190910438891B88309F
:101E300020F08F3F99F58EEF31C088E02FC0C4307D
:101E400009F05AC09091083880910438890F823087
:101E500010F482E003C0893708F088E780930838DF
:101E6000809108380E942D0347C0D13E31F4809103
:101E7000043881958093043818C0D23BA1F481E0E6
:101E800080930438C23068F500FD36C0EC2FF0E0D6
:101E9000E75FF74C80818F3F79F18F5F80832CC0A3
:101EA000D13C09F4A5CFD23E19F40E94E80424C025
:101EB000D53C39F460E070E085E89FE04CD880E0E4
:101EC000D1CFD13011F081E018C00932110519F4D9
:101ED00081E08093043880916B38080F00936B3851
:101EE0000BC0C43049F480910838833008F4B8CF6F
:101EF0008150B4CF8093023880E0DF91CF911F9161
:101F00000F91FF90EF90DF9008950F931F93CF9361
:101F1000DF93D82F8B01883031F4809142388130A3
:101F200011F488E06ADE8D2F8079803961F481E0D8
:101F300080934138C0914238C1110CC080911C3847
:101F40000E942D0324C0803839F41092413880E07B
:101F50000E942D03C0E01BC0D130C1F4C0914138B4
:101F6000CC2351F0809142388130A1F7B801DF9144
:101F7000CF911F910F9141CE0733114058F3D09369
:101F80006E3860E080E00E94250401C0C1E08C2F23
:101F9000DF91CF911F910F9108951F920F920FB66D
:101FA0000F9211242F933F934F935F936F937F93DF
:101FB0008F939F93AF93BF93EF93FF9381E08093B1
:101FC0000B0680919738882309F440C0E091963839
:101FD000E130D1F48091211120912011A0911006BF
:101FE000B0911106A81BB10987FDB39530E06FD3FE
:101FF000DC01CB0180589F4FAF4FBF4F892F9A2FE5
:10200000AB2FBB27BC0104C0609110067091110674
:1020100086E0660F771F8A95E1F7F0E0EE0FFF1F6D
:10202000DF01AE56B74C6D937C93E257F74C80813D
:1020300091818617970708F401966817790708F4C5
:1020400001978083918381E08093983881E0809329
:102050009738FF91EF91BF91AF919F918F917F91B1
:102060006F915F914F913F912F910F900FBE0F9005
:102070001F9018951F920F920FB60F9211248F93F5
:1020800081E080935301809371388F910F900FBE40
:102090000F901F9018951F920F920FB60F92112458
:1020A0008F931D9A81E0809370388F910F900FBEAF
:1020B0000F901F901895F89480914000877F80932F
:1020C000400088EDA89584BF90910001907F909387
:1020D000000121E030E084BF2093610083E084B9F7
:1020E0008EE088B988E08093100480931104809377
:1020F0001204809313048093140499E090931504C0
:1021000080931604809317048093320480933304E1
:1021100080933404809335048093500487E3809344
:10212000010A8FEF90E08093360A9093370A91E08E
:102130009093000A8091120481608093120490931E
:102140005201809151018111FCCF81E480935001B3
:102150000EDC789481E00E94920260E070E08BECEB
:1021600097E00E94930710924F380E94AC040E949F
:10217000B002811108C0F89480E490E0B7D2853AAB
:10218000A9F17894ADC0C0E08C2F0E942D0383E1AB
:1021900090E0ABDC8C2F86950E942D0383E190E0CC
:1021A000A4DC0E94B0028823B9F0CF5FC03461F78D
:1021B00060918A3880918938681B81E00E94CA0446
:1021C0000E94E804C6E98C2F0E942D0384E090E071
:1021D0008CDCC150C1F7CFCFCC2369F28C2F0E9489
:1021E0002D038DE090E081DCC150F6CF00E518E3CF
:1021F000C1E4D0E0CE017AD2F80181938F0121961B
:10220000CC35D105B9F778948091503880934A380D
:1022100080915138809315388091523880931238CC
:102220008091533880930F388091543880931638BA
:1022300080915538809313388091563880931038A8
:10224000809157388093173880915838809314388C
:10225000809159388093113880915A3880931B3877
:1022600080915B3880934B3880915C3880934938FB
:1022700080915D3880931A3880915E3880934D3814
:1022800080915F3880934C388091603880930B3810
:1022900080916138809309388091623880930A3840
:1022A00080916338809308388091643880930C382B
:1022B0008091653880931D38809166388093893885
:1022C0008091673880931E388091683880930E38EB
:1022D0008091693880930D3880916A3880934338B3
:1022E00080914D38811180931C3861E070E084E565
:1022F00098E00E949307442443945524539447E064
:10230000242ECC24C394D12C65E0362E7CEF672E8E
:1023100073E0772EE8EE8E2EE3E09E2EF4E5AF2EEE
:10232000F8E0BF2E0E944D0280917438909175386C
:10233000009751F060917238709173380E94AB072A
:10234000109274381092753880916E38882309F491
:102350005EC080E00E942D034092520180915101A5
:102360008111FCCFF9E5F0935001809100068E7F3A
:10237000809300060E94B0028111FCCF0E94880267
:102380008091120481608093120410929838109208
:1023900071381092703880916E38882331F18091B5
:1023A0005000897F8460809350008091500081604C
:1023B000809350008895809150008E7F80935000CC
:1023C00080917038811110926E38809198388823EE
:1023D00031F050921F3850928D380E9472058091D2
:1023E00071388823C1F2DEDAD6CF22E020931F387D
:1023F00080911204887F80931204B9DA40925201CE
:10240000809151018111FCCF31E43093500164DBA4
:1024100010924F388091873890918838E4E0843C5E
:102420009E0779F4CCE7D0E0FE018491805391DBE4
:102430008CE291E05ADB2196F0E0C838DF07A1F783
:10244000C6C02DE08D3F920779F03FE085389307B5
:1024500009F0B2C080914238813009F0F4C0809117
:102460004138882309F4EFC0C0910B38C23011F114
:1024700020F0C43009F483C055CFEC2FF0E0E75FC3
:10248000F74CD08186E90E942D03C11109C0DA32D0
:1024900020F4C3010197F1F707C081E090E003C089
:1024A0008D2F869590E021DB80E00E942D038D2FFB
:1024B00090E0C7C00E94B9028F73E82EF12C0E94F1
:1024C000B902622DD1D0E60102C0CC0FDD1F9A9572
:1024D000E2F70E94B902632DC7D0F60102C0EE0FE9
:1024E000FF1F9A95E2F7CE0FDF1F0E94B90290E01E
:1024F000BE01DAD0C80FD91FC739D10514F0C6E91B
:10250000D0E08C2F0E942D03C701EFDA8E0133E05B
:10251000159507953A95E1F7011101C001E010E02A
:10252000C701E3DAC01BD10BD7FF02C0C0E0D0E087
:102530008C2F0E942D030E94B902837039F4C701C9
:10254000D4DACE01959587950E942D03C230D1052E
:102550003CF70E94B9026DE087D0E60102C0CC0FC3
:10256000DD1F9A95E2F70E94B90290E0BE0188D083
:10257000C80FD91F80E00E942D03CE0162C0C09118
:102580000838CC0FC73908F0C6E9D4E08C2F0E9478
:102590002D0385E090E0A9DA809108380E942D0390
:1025A00081E490E0A2DAD15089F780ED92E09DDAE3
:1025B00080E00E942D03B6CEF8E08A319F0781F4B7
:1025C00080918C38E9DA80911B38882381F0A092C1
:1025D0007438B09275381092723810927338A2CE57
:1025E00028E08A33920731F480918A38D5DA88EE70
:1025F00093E027C037E0813F9307C1F480916F38A3
:10260000811190CE80911C380E942D0384E690E0C9
:102610006CDA80E00E942D0320910C38289DC001C7
:10262000299D900D1124845691090BC0895B974018
:1026300051F480E0C7DA81E0C5DA80E0C3DA80EDEA
:1026400097E053DA6FCE80915000897F80935000DD
:102650008091500081608093500088958091500057
:102660008E7F809350005ECE991B79E004C0991F45
:10267000961708F0961B881F7A95C9F780950895DC
:10268000AA1BBB1B51E107C0AA1FBB1FA617B70798
:1026900010F0A61BB70B881F991F5A95A9F78095B4
:1026A0009095BC01CD01089597FB072E16F4009478
:1026B00006D077FD08D0E4DF07FC05D03EF4909506
:1026C00081959F4F0895709561957F4F0895A29FC2
:1026D000B001B39FC001A39F700D811D1124911DF6
:1026E000B29F700D811D1124911D089503D080812A
:1026F00099270895FC01E050FC4E0895262FFADF3B
:102700000080021611F004D0019701970895262F3A
:10271000AF93BF93E0E0F0E1328131FDFDCFDC010A
:10272000A050BC4E2C932DE924BF23E020830196BA
:0A273000BF91AF910895F894FFCF18
:10273A00020301153812380F3802010000000000A8
:10274A00000001000000000000000001000021015B
:0C275A0023022503270429052C06FF0696
:10276600060B1801010100045A2943030237190117
:102776000705787887010A0A780101015A2D0702B0
:00000001FF
