:20000000DAC00000F5C00000F3C000000C94F10DEFC00000EDC00000EBC000000C94E00DAC
:20002000E7C00000E5C00000E3C00000E1C00000DFC00000DDC00000DBC00000D9C00000C0
:20004000D7C00000D5C00000D3C00000D1C000000C94730DCDC00000CBC00000C9C000008F
:20006000C7C00000C5C00000C3C00000C1C00000BFC00000BDC00000BBC000003230323233
:200080003032303830363134000000000000000000000000000000000000000000000000CB
:2000A000000000000000000000000000000000000000000000000000000000000000000040
:2000C0000000000000000000000000010304050708090B0C0E0F1113141618191B1D1F21D0
:2000E000232527292B2D30323437393B3E404346484B4E5154575A5D606366696D707377DB
:200100007A7E8185898D9094989CA0A5A9ADB1B6BABFC3C8CDD1D6DBE0E5EAEFF4FAFF0192
:200120000102020303040405060708090A0C0D0E0F11131416181A1D1F2224272A2D303366
:20014000373B3E42464B4F54595D63686E73797F868C939AA1A8B0B8C0C8D1D9E2ECF5FF3B
:20016000FFFFFFFFFFFFFFFFFFFFFFFFFFFFFFFFFFFFFFFFFFFFFFFFFFFFFFFFFFFFFFFF9F
:20018000FFFFFFFFFFFFFFFFFFFFFFFFFFFFFFFFFFFFFFFFFFFFFFFFFFFFFFFFFFFFFFFF7F
:2001A000FFFFFFFFFFFFFFFFFFFFFFFFFFFFFFFFFFFFFFFF000011241FBECFEFCDBFDFE335
:2001C000DEBF18E3A0E0B8E3E8E9F2E202C005900D92A032B107D9F728E3A0E2B8E301C08E
:2001E0001D92A83CB207E1F70E94010E0C943F1107CFF89498ED94BF809361008091630018
:2002000080FDFCCF78940895E5E9F8E320E030E09081992339F02F5F3F4F339620313105D2
:20022000B9F70BC0F901EE0FFF1F2E0F3F1FF901EB56F74C80836183728308950F931F9348
:20024000CF93DF93D0919538DD2351F10091963810919738C0917238C150C7FD0DC0EC2FD3
:20026000EE0FFF0BED58F74C0190F081E02DB8018D2F09958111F0CFE5E9F8E383818083CC
:200280008481958181839283339688E3E23CF807A9F71092C2381092C3381092C438D2CFC1
:2002A000DF91CF911F910F910895BC018091C738ABCF1092C7381092C5381092C63881E0F9
:2002C00080934C3808950F931F93CF93C82F02E919E0CC2349F085E08CDFC8010197F1F718
:2002E00081E087DFC150F5CFCF911F910F910895E0E0F6E0828581608287808581608087A1
:20030000089582B185FB882780F991E0892780936B380895E0910638F09107383196FB7050
:20032000F460E0930638F0930738809167388B5A80936738E491809167388E0F08958823A5
:2003400049F0813069F480E28093220488E080933504089580E280932104809326040895F6
:2003600080E280932104809325040895CF93C82F809369388093683880916A3881110AC03B
:2003800091E0C11101C090E081E0C23408F480E0890FD5DFC11109C010922A0A10922B0AA2
:2003A0001092280A1092290A17C08FEF8C0F90E0FC01E15EFE4FE491F0E0E0932A0AF0933C
:2003C0002B0AFC01E757FF4FE491F0E0E093280AF093290AC53010F485E005C0CE3010F49A
:2003E00083E001C081E0CF9104CFCF93DF93CDB7DEB72697CDBFDEBF909147382091833866
:2004000030918438285B394009F492E0843019F4609348381FC06623E9F0823019F427E9B0
:20042000261B622F26E0E2E8F2EADE01119601900D922A95E1F79E012F5F3F4F280F311DB1
:20044000280F311DF90132970190F081E02DE90FF11D60832696CDBFDEBFDF91CF9108950A
:20046000BF92CF92DF92EF92FF920F931F93CF93DF93EC0140914738E0911A38EE2311F00D
:2004800082E001C0842F90E0DC01AC5EB74C2C9120931838DC01AF5EB74C8C918093173800
:2004A000F0E0E25FF74C3181622F70E0442349F0313039F49B01280F311DC90195958795F6
:2004C00038C0C617D707A4F1682F70E06C177D0784F1411102C08C2F2CC0821B032F10E0F7
:2004E00001501109E82EF12CC701B8010E94F810609345386695E62FF0E0822FC12CD12C48
:20050000B12CB316B1F0C601B8010E94E410822F860FCE0CDF1CAE01481B510957FF03C0DE
:20052000519541955109E417F5071CF4B394E9CF822FDF91CF911F910F91FF90EF90DF9051
:20054000CF90BF90089580934B3810CFCF93C091693889E18C0F873908F080E007DF82E022
:20056000B2DE8C2FCF9102CF81E00895611160931D380895662389F0813061F480918638D3
:2005800090918538891B681B6093853882E080931E3803C0635E60931C3880911C388734F0
:2005A00018F086E480931C3808956093403808950F931F93CF93DF938091473880934D386D
:2005C0008091143880934E388091113880934F3880910E3880935038809115388093513845
:2005E000809112388093523880910F38809353388091163880935438809113388093553813
:20060000809110388093563880911A38809357388091483880935838809146388093593874
:200620008091193880935A3880914A3880935B388091493880935C3880910B3880935D3845
:200640008091093880935E3880910A3880935F38809108388093603880910C3880936138A5
:2006600080911C3880936238809185388093633880911D388093643880910D3880936538D1
:200680008091403880936638F8940DE418E3C1E4D0E0F80161918F01CE010E94221121967D
:2006A000CB35D105B1F765EA80E490E00E9422117894DF91CF911F910F910895109294388D
:2006C0009091100680916738890F8093673880918938882309F419C1109289389091923847
:2006E00080916A38882339F0809100068E7F8093000610929238911143C080911E38882313
:2007000049F060918E3870918F3860938A3870938B3804C060918A3870918B38605F7F4FDE
:20072000A6E076956795AA95E1F780E098E50E94E41080911D3890E00297680F791F769519
:2007400067956093883880913C38882311F0815007C06D3138F460E070E084E055DD85E0CC
:2007600080933C3880916A388111C6C08EE18093060685E48093020681E080939238B9C05E
:20078000913009F0B9C080911E38811143C080918C3890918D3840969C0145E03695279550
:2007A0004A95E1F7A0918538A901569547950A2E000CBB0BCD0183519140840F951F80934C
:2007C00086389093873880912B38E82FF0E0EE0FFF1FE45DF74C40815181B901641B750B33
:2007E000208331838F5F877080932B38CB01880F991F880F991F40911C3850E04D5E5E4F30
:200800004A1B5B0B440F551F841B950B820F931F23E01CC0809190389091913880938C384B
:2008200090938D38409635E0969587953A95E1F7ECE2F8E38193919328E3EC33F207D1F72B
:20084000A6CF009709F00196215029F018161906C4F70197F9CF18161906E4F477FD39C078
:2008600020912A3812160CF1880F991FBC016350710977FF02C06F5F7F4F75956795161601
:20088000170614F061E070E088E1861B80932A3885E026C08C3F2FEF9207DCF477FF19C03B
:2008A00020912A3827FF05C02450281B20932A3818C024EE281B20932A38209188382F315B
:2008C00080F06CEF7FEF681B790B7595679586E007C0809188388E3120F060E070E087E00E
:2008E00093DC8DE18093060685E5809302061092923810929338FCDC80911E38882329F09B
:2009000080911E38815080931E380895813019F410924A380895823019F46093493808954A
:20092000833019F4609346380895843011F4609319380895909188389D3110F480E006C076
:200940008F70E82FF0E0E857FD458081F8CCCF93C0911A38C1114AC0883039F41092443887
:20096000109241381092423842C0813B59F48091443881508330D0F583E08093443880935A
:20098000433834C0853BB1F4CB016EE370E00E94E410892B61F5809144388A3F40F58B5F01
:2009A00080934438809343381092413810924238CDDD1DC08130D1F48091413890914238C1
:2009C000019688382EE0920728F480934138909342380DC010924138109242388091443843
:2009E000882329F081508093443801C0C1E08C2FCF910895FF920F931F93CF93DF938C0173
:200A0000EB01F42E8091833890918438892B31F0E0918338F091843889E00995009383388C
:200A200010938438012B39F0E0918338F0918438BE018F2D099581E080934C38DF91CF91B8
:200A40001F910F91FF900895CF93DF93E0917238EE2359F0E150E0937238F0E0EE0FFF1F98
:200A6000ED58F74CC081D18102C0C0E0D0E0E0917238EE2341F0F0E0EE0FFF1FEF58F74C77
:200A80008081918102C080E090E04AE060E070E0B1DFCE01DF91CF910895883029F41092B4
:200AA0003D381092243815C08130F9F490912438911107C06032710568F180932438F9DBC6
:200AC00029C0913081F46B3B710528F082E08093243880E01EC061157105E1F06270862F70
:200AE000880F8E5E16C0B0DF15C0813811F0813E89F491E090932438813E21F480913D38F9
:200B0000865F03C080913D388F5F80933D38D1DB8BE42CDC80E008959C01909172389830E1
:200B200088F4E92FF0E0EE0FFF1FED58F74C208331839F5F9093723848E0C9015BDF80914F
:200B4000723808958FEF08950F931F93CF93DF93EC018B0179DFB801CE01DF91CF911F9132
:200B60000F91DACF813C29F460E070E08DE496E006C0823C39F460E070E083E196E0E4DFFD
:200B800080E0089581E00895843011F580918338909184382BE0843A920729F469E170E0DE
:200BA00081E397E013C08153974061F490916938923040F0892F869596959695890FC3DC73
:200BC00080E0089560E070E08DE496E0BDDFF8CF81E00895813C29F460E070E08DE496E0EF
:200BE00006C0823C31F460E070E082EB95E0ACDF16C0813B49F4CB016EE370E00E94E4107D
:200C0000892B69F4A3DC0BC0813E59F4CB016EE370E00E94E4106F5F60930C38C9DC80E060
:200C2000089581E00895CF93C0911A38C11117C0813C29F460E070E08DE496E006C0823C96
:200C400031F460E070E083E396E07EDF09C0873B31F460E070E080EC99E05EDF01C0C1E0E2
:200C60008C2FCF910895813C29F460E070E08DE496E006C0823C31F460E070E08AEE95E045
:200C800063DF07C0873B39F460E070E084EC99E043DF80E0089581E008950F931F93CF9310
:200CA0008B01883079F480E061DB80910D38837046DB10924438012B19F481E080936A3810
:200CC000C0E0CAC0813051F469317105C8F380936A3880910D38837032DBF2CF833041F574
:200CE00080914A38882371F09091493842EC51E0949F9001959F300D11246217730710F0F7
:200D000080931B3880910D388370833011F4802F11DE80914038882399F242EC51E0849F8D
:200D20009001859F300D11242017310748F64DC0813B99F481E090E093DB18DB80914638C8
:200D40008111BECF80914738811104C00831110508F4B6CF61E070E028C0813ED9F3813801
:200D600021F480911B3890E013C0813C21F46091693870E01AC0823B79F48091193890917C
:200D80001A38911180914838811104C086E990E067DB05C086E903C0823E19F480E0E6DA73
:200DA0008FCF823C31F466E970E081E397E0CCDE87CF833999F3833C29F460E070E083E160
:200DC00096E0F5CF843C31F4C1DB60E070E08CEC99E0EDCF8F3C29F460E070E084EB92E0C2
:200DE000E6CFC0911A388A3B79F4672B69F4CC2329F0ACDB10921A38DBDB62CF60E070E080
:200E000088EB99E089DE28C0C11125C08A3C29F49DDB81E080931A381CC0833B29F460E0C8
:200E200070E084EA9BE007C0853C39F48FDB60E070E08CE29DE088DE0FC0873C61F4909171
:200E40000D3881E0890F83709C7F982B90930D3876DAAEDB01C0C1E08C2FCF911F910F9175
:200E60000895AF92BF92CF92DF92EF92FF920F931F93CF93DF93182FEB01D0901838F090D4
:200E80001738B0904738BB2019F0C090453802C0CC24C3948091193800911A380111809122
:200EA0004838882349F0813021F080911B388F1518F0F6E9EF2E01C0EF2CA0904438BE01B9
:200EC000812F45DD20914438222339F0A1100CC0809169388093283807C0AA2029F060E019
:200EE00070E08DE496E039C0812F8D7F8830D9F410923F381A3019F4C0911B38D0E08D2D03
:200F000090E08C179D0738F48F2D90E0C817D90710F4C0931B38CE01A3DA15DB81E08093A9
:200F2000053800E0D3C1113CD1F2123C71F4809169388E1510F48E2D02C080911B3803DB25
:200F40008091693880932838ECCF143C41F480E00DDA60E070E08CEC99E0F6DDE2CF8FE46D
:200F6000810F823008F04FC0BB2041F0CE0168E170E00E94E410892B31F0D3CF60910E3870
:200F800070E0CE01F6CF80916938209761F4123B11F48FEF05C08F15E0F7D81648F181E017
:200FA0008093053825C020910E3830E066E371E0269FA001279F500D369F500D11244C1708
:200FC0005D0710F48F1528F76CE672E0269FA001279F500D369F500D11244C175D0740F457
:200FE000D81630F0B3DA60E070E08CEC99E0ACDD30910538209169384C2D3403C001112456
:20100000820F911D2DC18FE1810F823020F480910538819584CF113009F0CEC0A99711F419
:20102000109305382223B1F04091283830E021503109429FC001439F900D1124609143383C
:2010400070E00E94F810611101C061E06093683860934B38C0916838309169388C2F90E09B
:20106000831B910960912638709127386F5F7F4F6093263870932738009709F452CF97FFEF
:2010800005C0333830F040E450E005C040E052E002C040E051E05695479597FD0196959566
:2010A00087950097C1F74617570708F03ACFC31710F48FEF03C03C1718F481E0830F01C0D7
:2010C0008C2F9FEF980FA92FB0E0AD01415E5E4FFA016491931778F420912A0A30912B0ADD
:2010E000232B49F46F3F39F42FEF30E020932A0A30932B0A20C020912A0A30912B0A70E072
:201100002617370738F460912A0A70912B0A6F5F7F4F0DC020912A0A30912B0A6217730796
:2011200050F460912A0A70912B0A6150710960932A0A70932B0A9D0127573F4FF9016491ED
:20114000E091280AF091290A70E0E617F70738F46091280A7091290A6F5F7F4F0DC0E09190
:20116000280AF091290A6E177F0750F46091280A7091290A615071096093280A7093290A5D
:2011800060912A0A70912B0AFA01449150E06417750769F44091280A5091290AF9012491DA
:2011A00030E04217530719F4E1D8C09368381092263810922738B5CE1530A9F4809169389B
:2011C000823408F4AECE90E08C1B9D0B282F813491052CF08739910518F026E901C021E431
:2011E000209368389ECE1630B9F49091693880914B38981708F095CEC90FD11D90E08C1704
:201200009D0734F0C134D10524F4C1E4D0E001C0EC01C093683885CE173079F49091683865
:2012200080916938891710F48F5F04C0981708F078CE81508093683874CE133CA9F481E0A6
:20124000B11080E080934738B3D9C091693880E08DD883E038D88C2F89D88091693890E0E7
:20126000FFD880931B386BCE01112FC0133B29F4CD2B09F056CE8E2D04C0133E21F4809181
:201280001B3861D923C0153C41F480E06FD860E070E08CE29DE058DC19C0173B29F460E07A
:2012A00070E084EB99E00FC01A3C39F48091693880934A387DD94AD909C01A3B31F460E061
:2012C00070E08CEB99E028DC01C001E0802FDF91CF911F910F91FF90EF90DF90CF90BF902E
:2012E000AF900895883061F41092253880E03ED880916B38811136C081E08093253822C0A1
:20130000982F907F903BB1F420912538421778F0CB016DE570E058D7029739F42F5F209314
:2013200025384217F8F088E303C082E101C080E01DD818C0903E61F480912538882389F0DB
:20134000481778F060E070E08DE495E0E5DB0AC08A3041F460913D3880912538F90109956B
:2013600027D972DB80E0089525EF31E043E0BACF25EF31E044E0B6CF26E834E044E0B2CFBD
:2013800026EB32E041E0AECF2AEB32E042E0AACF25ED32E041E0A6CF0F931F93CF93DF93E8
:2013A000D82F8B0180798039B9F420911438909115388D2F8F70823041F480914A38811109
:2013C00008C0822F291728F403C0822F921708F4892F0E94B6011EC0803821F480E00E9461
:2013E000B60109C0D83039F480910D38869586950E949F013AC0D13069F40931110508F4C6
:2014000054C0D0936A3880910D38869586950E949F014BC0D33049F480910D388C708C308C
:2014200009F043C0802F86DA40C0D43C71F4C0914A38CC2319F06C2F70E00EC060911B3864
:2014400070E081E397E080DB33C0D43B49F47ED81092C73861E070E081E397E075DB25C02F
:20146000D53C19F466E970E0F7CFC0911A38C1111EC0DA3B31F460E070E088EC99E04CDBB8
:2014800017C0D73CA1F490910D38892F869586958F5F8370282F220F220F9370920F909318
:2014A0000D380E949F0184D803C0C0E001C0C1E08C2FDF91CF911F910F910895CF93DF9338
:2014C000C0E0D6E08DE18E8385E58A8310929238109293380E947801E0EAF0E08081806150
:2014E000808383E08883888581608887DF91CF9108950F931F93CF9310926D388091C53806
:201500009091C6389C012F5F3F4F88279078822B932B8093C5389093C638C0916B380E940A
:201520008101C81731F110926A3880936B389091C738882359F0892F80699F709F3009F0A2
:201540008F5F8093C73880E090E00DC0892F8F7E95FD02C0806801C0806C8093C73880911D
:20156000C5389091C6380E9455011092C5381092C6380091C5381091C63880916A3888238D
:2015800079F0B80183E00E9404010E941E010F731127012B09F043C0109229388FDF32C019
:2015A000C091C7388C2F807F803B19F460E070E001C0B80181E00E940401C4FF13C0C5FFED
:2015C00002C0C8010CC008311105E0F01092C5381092C638C062C093C73880E090E00E9470
:2015E000550110C0CC2371F0C5FD0AC00231110548F0C064C093C73880E090E00E9455012A
:201600000E945901C0912938C11105C00E94780181E080938938CF5FCF71C0932938CF91B3
:201620001F910F91089580919438811147D880916D3881115ECF0895EF92FF920F931F93B7
:20164000CF93DF93EC010AEC18E082E3E82E82E0F82E2097D9F080914C38811119C0809147
:201660006938853028F485E00E94F900C70104C081E00E94F900C8010197F1F781E00E9424
:20168000F900D1DF0E941E012197E3CF81E001C080E0DF91CF911F910F91FF90EF90089529
:2016A000CF93C82F882391F089E10E94B60186EA90E0C2DF80E00E94B6018AEF90E0BCDF24
:2016C000C15091F78AE992E0CF91B6CF89E10E94B60188E090E0B0DF80E00E94B6018AEF4B
:2016E00090E0AADFEFCFCF93DF9364E661D5282F892F6AE05DD5EC01222341F0822FD0DF91
:201700008C2FCEDF8D2FDF91CF91CACFC111F8CFF9CFCF93DF93D82FC3E080911B380E9457
:20172000B60188EC90E088DFDD2319F080E991E083DF80E00E94B60188EC90E07DDFC15058
:2017400061F7DF91CF910895DF92EF92FF920F931F93CF93DF93D82F8B01C0910B3881E091
:2017600080933F38C33009F0E2C0F09044388D2FEED8FF2051F080914438811106C060E04E
:2017800070E08DE496E0E0D9D2C0D83021F481E080930338CEC0D23C19F410924438D7C09D
:2017A000D13BC1F490910238012B49F49E3610F08FEF03C0923018F481E080930338809101
:2017C0000338890F11F481E03CC18F3608F439C18EE637C1D13E31F4809103388195809303
:2017E0000338ECC0D23B61F481E08093033880910238823008F4EAC0815080930238E6C08A
:20180000D13009F0F4C00932110511F4D0930338D09023388D2D880FD7FC809527E0829F0A
:20182000C0011124E09022382E2D220FE7FC2095D09101382D9F90011124232F290FF0908E
:2018400021388F2D880FF7FC8095C09100388C9FC0011124822F890F6091023870E0680FEF
:20186000711D809144388130B9F4809141389091423825E0969587952A95E1F724E730E0CC
:20188000A901481B590B469FC001479F900D569F900D1124B90198D4862F0E94B60100FDB6
:2018A00006C00E948A018170D80ED092233880912038E80EE09222380E948A0165E278D4B6
:2018C000F90EF09221380E948A018F7331F40E948A016DE06DD490932038DD2339F00E94D1
:2018E0008A018F7319F4D150D09301380E948A01811108C00E948A016BE05AD49093013808
:2019000010922238C33038F00E948A018F7119F4C150C09300380E948A018F7709F07CC072
:201920000E948A0166E044D49093003875C0D83021F481E08093043886C0D13C31F460E007
:2019400070E08DE496E000D97EC0D23C49F48C2F90E0019665E070E04BD480930B384CC016
:20196000D13B51F5C23090F400FD6DC0EC2FF0E0E75FF74C808190910438891B883020F037
:201980008F3F99F58EEF31C088E02FC0C43009F05AC09091083880910438890F823010F423
:2019A00082E003C0893708F088E780930838809108380E94B60147C0D13E31F48091043856
:2019C00081958093043818C0D23BA1F481E080930438C23068F500FD36C0EC2FF0E0E75F05
:2019E000F74C80818F3F79F18F5F80832CC0D13C09F4A5CFD23E19F40E94D80224C0D53C82
:201A000039F460E070E08CE29DE09ED880E0D1CFD13011F081E018C00932110519F481E0AE
:201A20008093043880916738080F009367380BC0C43049F480910838833008F4B8CF81500A
:201A4000B4CF8093023880E0DF91CF911F910F91FF90EF90DF9008950F931F93CF93DF93F4
:201A6000D82F8B01883031F480913F38813011F488E06ADE8D2F8079803961F481E08093D1
:201A80003E38C0913F38C1110CC080911B380E94B60123C0803839F410923E3880E00E94CB
:201AA000B601C0E01AC0D130B9F4C0913E38CC2351F080913F388130A1F7B801DF91CF91F6
:201AC0001F910F9141CE0733114058F3D0936A3880E00E949F0101C0C1E08C2FDF91CF913D
:201AE0001F910F9108951F920F920FB60F9211242F933F934F935F936F937F938F939F933C
:201B0000AF93BF93EF93FF9381E080930B0680919338882309F440C0E0919238E130D1F403
:201B20008091211120912011A0911006B0911106A81BB10987FDB39530E06DD3DC01CB019F
:201B400080589F4FAF4FBF4F892F9A2FAB2FBB27BC0104C0609110067091110686E0660FFB
:201B6000771F8A95E1F7F0E0EE0FFF1FDF01A257B74C6D937C93E657F74C808191818617D2
:201B8000970708F401966817790708F401978083918381E08093943881E080939338FF915B
:201BA000EF91BF91AF919F918F917F916F915F914F913F912F910F900FBE0F901F901895EE
:201BC0001F920F920FB60F9211248F9381E08093530180936D388F910F900FBE0F901F909C
:201BE00018951F920F920FB60F9211248F931D9A81E080936C388F910F900FBE0F901F9080
:201C00001895F89480914000877F8093400088EDA89584BF90910001907F9093000121E096
:201C200030E084BF2093610083E284B988E08093100480931104809312048093130480937E
:201C4000140499E09093150480931604809317048093320480933304809334048093500417
:201C600080935104809352048093530487E38093010A8FEF90E08093260A9093270A91E0AB
:201C80009093000A8091120481608093120490935201809151018111FCCF81E480935001E7
:201CA0000DDC789481E00E94630160E070E084EC95E00E948C0510924C380E94A6020E940E
:201CC0008101811108C0F89480E490E0B3D2853AA9F17894A9C0C0E08C2F0E94B60183E15D
:201CE00090E0AADC8C2F86950E94B60183E190E0A3DC0E9481018823B9F0CF5FC03461F77A
:201D00006091863880918538681B81E00E94BA020E94D802C6E98C2F0E94B60184E090E0F1
:201D20008BDCC150C1F7CFCFCC2369F28C2F0E94B6018DE090E080DCC150F6CF0DE418E37C
:201D4000C1E4D0E0CE0176D2F80181938F012196CB35D105B9F7789480914D388093473809
:201D600080914E388093143880914F38809311388091503880930E3880915138809315388D
:201D800080915238809312388091533880930F38809154388093163880915538809313385B
:201DA00080915638809310388091573880931A3880915838809348388091593880934638BD
:201DC00080915A388093193880915B3880934A3880915C388093493880915D3880930B388E
:201DE00080915E388093093880915F3880930A3880916038809308388091613880930C38EE
:201E00008091623880931C3880916338809385388091643880931D388091653880930D3819
:201E2000809166388093403880914A38811180931B3861E070E08DE496E00E948C054424CA
:201E400043945524539447E0242ECC24C394D12C65E0362E7CEF672E73E0772EE8EE8E2E5B
:201E6000E3E09E2EFDE4AF2EF6E0BF2E0E941E018091703890917138009751F060916E389F
:201E800070916F380E94A405109270381092713880916A38882309F45EC080E00E94B60188
:201EA00040925201809151018111FCCFF9E5F0935001809100068E7F809300060E9481012A
:201EC0008111FCCF0E945901809112048160809312041092943810926D3810926C3880916C
:201EE0006A38882331F180915000897F8460809350008091500081608093500088958091F0
:201F000050008E7F8093500080916C38811110926A3880919438882331F050921E385092B3
:201F200089380E945E0380916D388823C1F2E1DAD6CF22E020931E3880911204887F80931D
:201F40001204BCDA40925201809151018111FCCF31E43093500167DB10924C388091833893
:201F600090918438E2E0843B9E0779F4CCE7D0E0FE018491805394DB8CE291E05DDB21966A
:201F8000F0E0C838DF07A1F7C6C02BE0843A920779F03DE08C32930709F0B2C080913F383A
:201FA000813009F0F4C080913E38882309F4EFC0C0910B38C23011F120F0C43009F483C019
:201FC00055CFEC2FF0E0E75FF74CD08186E90E94B601C11109C0DA3220F4C3010197F1F751
:201FE00007C081E090E003C08D2F869590E024DB80E00E94B6018D2F90E0C7C00E948A01A7
:202000008F73E82EF12C0E948A01622DD1D0E60102C0CC0FDD1F9A95E2F70E948A01632DE9
:20202000C7D0F60102C0EE0FFF1F9A95E2F7CE0FDF1F0E948A0190E0BE01DAD0C80FD91F7D
:20204000C739D10514F0C6E9D0E08C2F0E94B601C701F2DA8E0133E0159507953A95E1F710
:20206000011101C001E010E0C701E6DAC01BD10BD7FF02C0C0E0D0E08C2F0E94B6010E94DF
:202080008A01837039F4C701D7DACE01959587950E94B601C230D1053CF70E948A016DE039
:2020A00087D0E60102C0CC0FDD1F9A95E2F70E948A0190E0BE0188D0C80FD91F80E00E94BC
:2020C000B601CE0162C0C0910838CC0FC73908F0C6E9D4E08C2F0E94B60185E090E0ACDA22
:2020E000809108380E94B60181E490E0A5DAD15089F780ED92E0A0DA80E00E94B601B6CEAB
:20210000F6E083319F0781F480918838ECDA80911A38882381F0A0927038B092713810929D
:202120006E3810926F38A2CE26E08333920731F480918638D8DA88EE93E027C035E08A3E98
:202140009307C1F480916B38811190CE80911B380E94B60184E690E06FDA80E00E94B601F3
:2021600020910C38289DC001299D900D1124845691090BC0825B954051F480E0CADA81E0B1
:20218000C8DA80E0C6DA80ED97E056DA6FCE80915000897F8093500080915000816080932B
:2021A00050008895809150008E7F809350005ECE991B79E004C0991F961708F0961B881F2F
:2021C0007A95C9F780950895AA1BBB1B51E107C0AA1FBB1FA617B70710F0A61BB70B881FA2
:2021E000991F5A95A9F780959095BC01CD01089597FB072E16F4009406D077FD08D0E4DFEC
:2022000007FC05D03EF4909581959F4F0895709561957F4F0895A29FB001B39FC001A39F41
:20222000700D811D1124911DB29F700D811D1124911D089503D0808199270895FC01E05056
:20224000FC4E0895262FFADF0080021611F004D0019701970895262FAF93BF93E0E0F0E1B5
:20226000328131FDFDCFDC01A050BC4E2C932DE924BF23E020830196BF91AF910895F8942C
:20228000FFCF143811380E3800010201000000000000010000000000060B18010101000460
:1822A00041294303020D010705787896010A0A78010101412D070200CD
:00000001FF
